:020000040000FA
:2010000000000420A5720000CD720000CF720000D1720000D3720000D57200000000000046
:20102000000000000000000000000000D7720000D972000000000000DB720000DD72000080
:20104000D9980000F58E000005110100DF720000DF720000DF72000061950000DF7200004B
:201060008DE50000DF720000DF720000E5990000DF720000E9980000DF720000DF7200006A
:20108000F1B60000DF720000DF720000DF720000DF720000DF720000DF720000DF72000072
:2010A000DF720000DF720000DF720000DF720000DF720000DF72000000000000000000004A
:2010C000DF720000DF720000DF720000DF720000DF720000DF720000DF720000D9B100004F
:2010E000DF720000DF720000DF7200000000000000000000DF72000000000000DF7200005B
:201100000000000000000000000000000000000000000000000000000000000000000000CF
:201120000000000000000000000000000000000000000000000000000000000000000000AF
:2011400000000000000000000000000000000000000000000000000000000000000000008F
:2011600000000000000000000000000000000000000000000000000000000000000000006F
:2011800000000000000000000000000000000000000000000000000000000000000000004F
:2011A00000000000000000000000000000000000000000000000000000000000000000002F
:2011C00000000000000000000000000000000000000000000000000000000000000000000F
:2011E0000000000000000000000000000000000000000000000000000000000000000000EF
:2012000001F0FF01102A2BDB10F0070F08D010F8013B013A8B422DD010F0070F42B3F6D194
:20122000F0B441EA012141EA014122F007047FF000070023F0E80256083C85EA010586EA41
:20124000010685FA47F5A3FA87F586FA47F6A5FA87F68EB9EED1F0BC01F0FF0102F007023C
:2012600032B110F8013B013A83EA010313B1F8D10020704701387047002D06BF354603389F
:20128000073815F0010F07D1013015F4807F02BF013015F4C03F0130F0BC0138704700BF63
:2012A00010B5054C237833B9044B13B10448AFF300800123237010BD8807002000000000DD
:2012C000D869010008B5034B1BB103490348AFF3008008BD000000008C070020D869010082
:2012E000A3F5803A704700BF174B002B08BF134B9D46FFF7F5FF00218B460F461348144AA7
:20130000121A14F0CDFA0E4B002B00D098470D4B002B00D098470020002104000D000D48CA
:20132000002802D00C48AFF3008000F02BF82000290004F087FE00F011F800BF00000800A8
:201340000000000000000000000004204003002028370020000000000000000008B5074B78
:20136000044613B10021AFF30080054B1868836A03B19847204600F029F800BF0000000096
:20138000785C010070B50D4D0D4C641BA4100026A64209D10B4D0C4C14F062FC641BA41040
:2013A0000026A64205D170BD55F8043B98470136EEE755F8043B98470136F2E738030020CF
:2013C00038030020380300203C030020FEE700BF00B585B00346002101AA44F20100CDE968
:2013E0000111039300F004F805B05DF804FB00BF72B6094BD3F8F030DB0700D500BEBFF303
:201400004F8F0549054BCA6802F4E0621343CB60BFF34F8F00BFFDE700ED00E00400FA0562
:20142000014B02481B681847A4070020985C01000378052B02D0094B1B681847084BD3F8A3
:201440008424D3F88034DBB2002BF4D1054BD2B2052A08BF1846014B1B681847A4070020C7
:2014600000700240945C0100012803D0022809D020B17047054B06481B681847034B054827
:201480001B681847014B04481B681847A40700208C5C0100905C0100885C01002DE9F04F15
:2014A00089B0002504460E4601929846049500E0013562680123D2F804902146002204A88F
:2014C000C8470028F4D18DF80E00069085B3814682460BE09DF80E306768023BD7F804B0D3
:2014E000D8479DF80E309A44554521D960680123D0F804B00DF10E02214606A8D847606816
:201500000123D0F804B00DF10F02214606A8D8479DF80F30B3424FF00002214606A8D9D11F
:20152000019B4B4508D009F101095FFA89F9D1E7052009B0BDE8F08F129A9DF80E3013601C
:2015400088F8003088F801606268023B556808F10202A847002009B0BDE8F08FF0B505465D
:2015600083B03B4809F06AF9044610B1204603B0F0BD3849384A394B087010600146482268
:201580001860374814F08CF936484822214614F087F9002D53D095E80700334B83E8070034
:2015A000002846D0002007F0A1FD08B1852843D12E4C237A002B48D0013BDBB204F10C0298
:2015C0004FF0030E6568274E254F1EFB032E04F1090C9CF80110D9B19CF802000CF10103EB
:2015E000013903440CEB000253FA81F112F8013B13F0800F03F00F000ABF03F00F0307EB18
:20160000C00306EBC30391421C6028685860EDD10CF1030CF445DCD10B238DF804302B688F
:20162000124801A99847044600289FD009F044F99CE70F4A1A60B5E7FFF7CAFEB8E70A4B0C
:201640000B4A1D72C3E90025ACE76568E4E700BF31140000ED36002040080020440800208F
:20166000B0070020F8070020A4070020C45C0100E119000010B509F03FFA68B109F044FA47
:20168000044648B9064807F045FD034628B1FFF79FFE2346184610BD0823184610BD00BF1A
:2016A000845C010009F012B909F03ABF4FF0804303E0D3F83824D10707D5D3F83824920713
:2016C000F7D5024B02481B6818477047A4070020AC5C010000B5054B83B082221B688DF856
:2016E000042001A8984703B05DF804FBA40700202DE9F043077A83B0002F59D007F1FF3EE2
:201700005FFA8EF300F1090C00F10C024FF0030E304D314E61461EFB032E4C7800229442F1
:2017200001EB020319D091F8028013F9089013F80830B9F1000F0BDB03F00F0305EBC30383
:201740001B680132002BEAD0112003B0BDE8F08303F00F0306EBC303F2E703318E45DCD1A9
:2017600000241C4D1C4E224602EB420262445378D3B14FF0000E7346917813440EF1010E70
:201780005F56595C002F01F00F03B4BF06EBC30305EBC303186041680968596051785FFA60
:2017A0008EF39942E8D8077A0134E2B29742DBD80A4A13681BB11A681368002BFBD1106038
:2017C00043680B228DF804201B6801A9984703B0BDE8F083F8070020B00700204008002053
:2017E000024B1878003818BF01207047EC360020030710B5044604D52046BDE8104009F09D
:2018000001BF09F017FB204609F054FF2046BDE8104009F0F7BE00BF09F0C2BE014B18683E
:20182000704700BF4008002030B50F4B1D68A5B12C7AA4B100232A469C4603E05FFA83FC85
:2018400064450CD992F809E0864503F1010302F10302F3D109B181F800C0284630BD2B6827
:201860001D68002DE4D1F8E740080020436811461B68184700F00F03082B0AD802064CBFAC
:20188000054A064A02EBC303186810B143681B6818471020704700BFB0070020F80700208C
:2018A00038B5094B1C6864B1054602E023681C683CB1636820461B68294698470628F5D030
:2018C00038BD062038BD00BF4008002038B504460D4609F087F918B1054B1B78022B01D024
:2018E000082038BD29462046BDE8384009F08AB9ED36002038B504460D4609F073F918B1A2
:20190000054B1B78022B01D0082038BD29462046BDE8384009F006BAED36002070B543680B
:201920009B6882B006460D46144623B19847062801D002B070BD1CBB337AAB4225D909363A
:2019400005EB450535446E78BEB13246234600E06A789A4216D9AB782A19D05C030706D49B
:20196000019009F067FA019809F0A4FE0198013409F048FEE3B29E42EAD8002002B070BD05
:201980000720D6E700231B78FFDE6378FFDE00BF70B54368DB6805460C4603B198472B7A71
:2019A000A3421AD9093504EB44042C4466789EB1002532462B4693420BD2A37862190135B1
:2019C000D05C09F0EDFDEBB29E4205D962789342F3D300231B78FFDE70BD00235B78FFDE95
:2019E0002DE9F04103780546852B00F2D280DFE813F04902CB01D2006502A102F000F70042
:201A0000D000110124013701D000D000D000D0004A01D000D000D000D000D000D000D0004C
:201A2000D000D000D000D000D000D000D000D000D000D000D000D000D000D000D000D000A6
:201A4000D000D000D000D000D000D000D000D000D000D000D000D000D000D000D000D00086
:201A6000D000D000D000D000D000D000D000D000D000D000D000D000D000D000D000D00066
:201A8000D000D000D000D000D000D000D000D000D000D000D000D000D000D000D000D00046
:201AA000D000D000D000D000D000D000D000D000D000D000D000D000D000D000D000D00026
:201AC000D000D000D000D000D000D000D000D000D000D000D000D000D000D000D000D00006
:201AE000D000D000D000D000D000D000D000D000D0005E0186007D012B020E02F000734B48
:201B0000734F5A687349186890473C68002C00F07482704D636820461B682946984723682E
:201B20001C68002CF6D1DFF8BC81D8F804300BB10D2098473D6875B12E7A46B10024214659
:201B400028460134FFF724FFE1B28E42F8D82B681D68002DF0D101F0B1FB5F4B1B68002B9B
:201B600000F0638201205D4E08F096FF3278931EDBB2062B00F249825949CB5C13B107F0DD
:201B80009BFA3278022A40F0408209F001F801233370BDE8F081514E3278931EDBB2062B61
:201BA00040F2F481082A01D108F0F2FF4D4B5B68032232700BB102209847454B1C6844B1A9
:201BC000636820461B682946984723681C68002CF6D13E4B2946D3E90002BDE8F04110471E
:201BE00090F902308278002BB4BF3F4B374B02F00F0203EBC203D3E90002294690470028A4
:201C0000C7D0A8780207C4D00307C2D4BDE8F04109F0E2B8334B5B680BB1082098472C4BEC
:201C20001C68002CB5D0636820461B682946984723681C68002CF6D1ABE72A4B5B680BB1E5
:201C400009209847224B1C68002CA2D0636820461B682946984723681C68002CF6D198E76A
:201C6000204B5B680BB10A209847194B1C68002C8FD0636820461B682946984723681C68ED
:201C8000002CF6D185E7174B5B680BB10F2098470F4B1C68002C3FF47CAF636820461B68DA
:201CA0002946984723681C68002CF6D171E70B4C2378062B00F0818103F0FD03052B7FF4D1
:201CC00068AF08F06FFF0223237062E7F807002040080020A85C010044080020ED3600204B
:201CE0007C5C0100A4070020B0070020894F3D6875B12E7A46B10024214628460134FFF703
:201D000047FEE1B28E42F8D82B681D68002DF0D1814E09F0B9FB3278931EDBB2062B30D8A8
:201D20007E49CB5C13B107F0C7F93278022A28D108F02EFF3C68002333704CB1784D63684F
:201D400020461B682946984723681C68002CF6D1744B7349D3E900029047734B5B680BB1FD
:201D60000E2098473378023BDBB2062B3FF611AF6A4AD35C002B3FF40CAFBDE8F04107F0F2
:201D80009BB9082AD6D1D3E7624F3E688EB196F80880B8F1000F08D00024214630460134EA
:201DA000FFF7F6FDE1B28845F8D833681E68002EEDD1594E01F078FA3278931EDBB2062BDA
:201DC00000F2EE805549CB5C002B00F0E980022A03D0082A01D008F0E5FE534B5B680222F8
:201DE00032700BB1012098474E4B2946D3E9000290473C68002C3FF4CCAE636820461B68B7
:201E00002946984723681C68002CF6D1C1E6424E3378032B00F0DA8008F080FE00283FF447
:201E2000B8AE3278931EDBB2062B40F20A813F4807F014F93278022A01D0082A01D108F038
:201E4000A7FE06233370A4E6334E3378032B7FF4A0AE09F03BFB00283FF49BAE33789A1E36
:201E6000D2B2062A00F2F6802C498A5C12B107F023F93378022B40F0ED8008F089FE0423FA
:201E8000337086E6244B1B78032B00F09B80082B00F09880244B5B680BB100209847244B61
:201EA0001C68002C3FF475AE636820461B682946984723685C68002CF6D16AE6164E32787A
:201EC000082A72D0931EDBB2062B00F2A2801349CB5C002B00F09D80022A00F0A3800523E9
:201EE0003370114B5B680BB1032098470D4B2946D3E900029047074B1C68002C3FF449AEDA
:201F0000636820461B682946984723681C68002CF6D13EE640080020ED3600207C5C010015
:201F2000A45C0100F8070020A40700207C00002044080020494B5B680BB103209847484B06
:201F40004849D3E900029047474B1C684CB1454D636820461B682946984723681C68002C79
:201F6000F6D1424E3378062B24D0082B0BD09A1ED2B2062A5CD83E498A5C002A58D0022BA0
:201F800001D008F00FFE0223337002E63849CB5C13B107F091F83278022A3FF405AE01E62C
:201FA000344807F05BF8327811E70223337008F003FE96E707233370EBE508F0F3FD0823CB
:201FC0002370E6E52C48FFF70BFD63E709F07EFA00283FF421AF33789A1ED2B2062A36D826
:201FE00023498A5C12B107F067F83378022B2ED108F0CEFD042333700EE7DFF86080D8F896
:202000000430002B7FF494ADA5E5082A7FF4BFADBBE5184807F022F83378022B02D0082B24
:202020007FF45DAF08F0B4FD59E798F808009AE5104807F013F83378022BA4D0082BA2D0D6
:202040009FE70B49CB5C002B7FF4F5AEEFE6082BD0D1CDE7082B7FF412AF0EE7A4070020BA
:20206000F80700209C5C010040080020ED3600207C5C01007C000020A05C010043681B69FC
:2020800003B118471846704770B50A4B1D687DB12E7A4EB100242146002228460134FFF7FE
:2020A0003DFCE1B2B142F7D32B681D68002DEFD170BD00BF4008002070B5094B1D6875B11A
:2020C0002E7A46B10024214628460134FFF760FCE1B2B142F8D32B681D68002DF0D170BD5D
:2020E000400800204360CA699A4205D38A6902600B67CB610020704701F1280202608B67B4
:2021000000207047F0B5046891F808E0002C00F04484A4F2123CBCF17C0F00F28280BCF1C5
:202120007C0F7ED8DFE81CF0C900E402CF02180346011F03F20211037D007D007D007D00EB
:202140007D007D00BC0316027D007D007D007D0078037C026B027D007D007D007E03000359
:2021600081007D007D007D007D00B803840281007D007D007D007D007D007D00CC037D00EE
:202180007D007D007D006703930197027502C8027D007D00C102D602BA020602FF017D001A
:2021A0007D00F801260354019C037D007D00F9029003DD02B203EB027D007D007D007D008F
:2021C0007D007D007D007D007D007D007D007D007D007D007D007D007D007D007D00560353
:2021E0009E027D007D007D000D017D007D007D007D00AA037D007D007D007D00A2037D0003
:202200007D007D007D007D007D007B034D017D007D007D007D00B8007D007D007D007D00E1
:20222000B800002303601846F0BD002A00F0A284047915464FF0010C2C7000249C450471DB
:2022400080F048830CF1010412B1057902F80C50BC4D91F814C02D682E78B44500F03F835E
:20226000B94E6D783570B94E4FF0000C86F800C0AC45C0F02983B64D95F800C00CF1010C96
:202280005FFA8CFC85F800C0F445C0F0358340F2993303600120F0BD012400250AB10679CC
:2022A0005655AA4EA84D96F800C02D780CF1010C5FFA8CFC86F800C0DAE7002A00F06F849C
:2022C00004791470012B4FF00B04047140F2AA8425460126022495559C420D7D057180F0BE
:2022E000D483661C15559E424FF00204047180F0BD83751C94559D424FF00204047180F0CE
:20230000A6836E1C54559E424FF00204047180F08883751C9455AB424E7E067140F26F837E
:202320006C1C5655A3424FF00005057140F25D83161901343570864D4FF0000C85F800C055
:20234000A2E7804C0125266800241AB190F804C002F804C034780E7DA64200F0F8828E7DE7
:20236000A64200F0AB834024AB42047140F2BF826C1C002A00F0D78206795655A3424FF0D5
:202380000005057140F2BF821619013435706D4D0E7D2D682D78AE4200F0BA828E7DAE42B0
:2023A0007FF47FAF0025A342057140F287842546013473E7002A00F044840479012600251A
:2023C000A0E7002A00F04A84057916460124DDE7002A00F056840679944601240225A3424D
:2023E0008CF80060057140F2BA822E46651C1655AB424FF00504047140F2CA82264602EB34
:20240000050C6C1C2425A3428CF80060057140F2BA822E46651C1655AB424FF00604047122
:2024200040F2AC825619013534700E7D0671AB4240F29F826C1C5655A3428D7D057140F2E7
:2024400093821619013435703E4D2D6808E7002A00F0F983047901264FF0000C02F80C4084
:20246000B3424FF00004047140F20583751C9455AB424FF01004047140F2EE826E1C5455F1
:20248000B3424FF00104047140F2D08235199455AB424FF00504047140F2B6826E1C54558C
:2024A000B3424FF02404047140F2A482751C94559D424FF00104047180F092822E1954556D
:2024C0009E424FF00304047180F08582751C94559D428E7D067180F079826C1C56559C4293
:2024E0004FF00405057180F06C821619013435709C424FF02405057180F05E822E46651CB6
:2025000016559D424FF00204047180F05082264602EB050C6C1C61E7002A00F0CB83057955
:2025200016460124E3E7002A00F0C683067901240025D3E7002A00F0AF8304790125002655
:20254000C5E700BF48080020EE360020F0360020EF360020002A00F096830479164601259F
:2025600034700E7ABB4C2478B44280F0B98304EB440401F10906B84F16F804C080F804C09D
:202580003444AB423C6040F27B826C1C002A00F0818206795655A3424FF00005057140F26B
:2025A000608204F1010C1555AB4C256863456C78047140F2478202EB0C060CF1010C3470A0
:2025C0002C780D7DA54200F024828D7DA5427FF434AE0A246345047140F27A830CF101048E
:2025E000002A00F07882057902F80C50A3424FF00005057140F2118304F1010C1FE0964CAB
:202600002568002A00F02783047916464FF0010CD5E7002A00F03A830479012600252EE7D3
:20262000002A00F03B8305794FF0010C0024BAE7002A00F02F8305794FF0010C002415550F
:2026400063454FF00004047140F24F8202EB0C050CF1010CF0E5002A00F0228304790125D8
:20266000002604E7002A00F023830579944601248CF80050784D2E68784D96F801C02D7824
:20268000AC4540F22A8396F802C03544A34215F80C50057140F25681651C56E6002A00F0FD
:2026A000D48204790126002509E7002A00F0CF82047901260025F2E6002A00F0D98204790D
:2026C00001250026E3E6002A00F0E28205790126002407E6002A00F0E78204790125002665
:2026E000E5E6002A00F0BF820479164601259BE6002A00F0D782057901240026EBE5002AFE
:2027000000F0BA820579164601249CE6002A00F0CD8206790124002503E6002A00F0A182B4
:202720000679944601246DE6002A00F0A38205794FF0010C0024155563454C7E047185D8ED
:2027400040F22E3303600120F0BD002A00F08D82057916460124EDE5002A00F09082047912
:2027600001250026C6E5002A00F07382047901250026CFE501250024002A40F09D810224EE
:20278000AB42047140F213816C1C0225A342057140F2E580651C0524AB42047140F2F880BA
:2027A0006C1C2425A342057140F2ED80651C0624AB42047140F2E28001350C7D0471AB428C
:2027C00040F2D7806C1C8D7D0571A34240F2CC80013439E601260024002A00F02C81057921
:2027E0001555B3424FF00505057140F2A68002EB060C741C3CE74FF0010C0024002A00F027
:2028000079810579155563454FF02404047140F24E810CF1010621E601240025B6E601243B
:202820000025A6E501244FF0000C002A00F0E781057902F80C50A3424FF00205057140F24F
:20284000A98104F1010C76E701250024002AAED00679E0E5EF36002048080020F0360020BE
:2028600001250024002A96D00679C0E501250026002A3FF478AD0479945574E50125002483
:20288000002A3FF470AD067916556CE501240025002A98D00679CEE501244FF0000C9FE680
:2028A00001250024002A00F06981067916559D424FF00404047180F00981561901354FE671
:2028C00001244FF0000CBFE40725A34205712FD9661C81E74FF44F7303600120F0BD05250C
:2028E000A342057140F2518104F1010C86E740F2833303600120F0BD0925A342057140F236
:202900007981651CCEE74FF4617303600120F0BD0D6AA3422D7805713FF649AD40F28933AF
:2029200003600120F0BDA3420271ECD901342EE540F26D3303600120F0BD40F26E330360C8
:202940000120F0BD40F2723303600120F0BD0324AB42047140F26B812C46013590E740F2A9
:20296000523303600120F0BD40F2593303600120F0BD4FF4567303600120F0BD40F25733B9
:2029800003600120F0BD40F2563303600120F0BD40F2553303600120F0BD08240471002B63
:2029A0007FF48BAC40F2123303600120F0BD40F2513303600120F0BD4FF454730360012050
:2029C000F0BD40F24F3303600120F0BD4FF4537303600120F0BD40F24B3303600120F0BD4A
:2029E00040F24A3303600120F0BD40F2193303600120F0BD40F2493303600120F0BD4FF426
:202A0000467303600120F0BD4FF4527303600120F0BD02246345047140F20E810CF101048D
:202A200003E740F2173303600120F0BD40F2453303600120F0BD0524B34204717FF67DAFF0
:202A4000741C17E64FF44A7303600120F0BD40F2163303600120F0BD4FF451730360012081
:202A6000F0BD40F2273303600120F0BD40F2153303600120F0BD40F2433303600120F0BD68
:202A800040F2263303600120F0BD4FF4457303600120F0BDA3420271E3D90134934D2D6890
:202AA0009C426E780671CDD204F1010C88E540F2423303600120F0BD067921E50224AB425D
:202AC000047140F200812E460135D1E640F2213303600120F0BDA342027140F29E800134D9
:202AE00000259C420571C0F0948040F2353303600120F0BD242463450471D8D90CF10104B6
:202B000000259C420571B6D201341025A3420571A2D9013401259C42057187D22C440525D2
:202B20009C420571BFF470AF013424259C420571BFF460AF01340125A34205717FF650AFB1
:202B40002C4403259C420571BFF445AF01348D7D05719C42BFF43AAF013404259C42057101
:202B6000BFF42FAF01342425A34205717FF624AF651C04E64FF0010CFFF75FBB04249D42D5
:202B80000471A3D20E7A0135ECE440F2413303600120F0BD40F22D3303600120F0BD0B24F4
:202BA000012B04713ED902240D7D05719C42BFF46CAF013402259C420571BFF457AF0134ED
:202BC0000225A34205717FF642AF013402259C420571BFF426AF01344D7E05719C42BFF4CE
:202BE0000EAF013400259C420571BFF4FEAE0134FFF7A1BB4FF4487303600120F0BD02252E
:202C0000A3420571C6D901344D7E05719C42BFF497AD04F1010CFFF710BB4FF44D73036046
:202C20000120F0BD40F2133303600120F0BD40F2773303600120F0BD4FF44B73036001208B
:202C4000F0BD0124C2E701245AE7012479E701246BE70124C0E74FF0010CB1E40124FFF7CF
:202C600096BB01249DE50125A7E50124FFF763BB012454E70124C7E70124FFF7E5BB01245E
:202C80009EE7012481E5764601256BE4012441E701248FE7012423E7012458E70124FDE670
:202CA000012432E701247FE7012444E7012499E70124DFE4012456E701244EE740F28E33BF
:202CC00003600120F0BD4FF45F7303600120F0BD40F2333303600120F0BD00231B78FFDE21
:202CE000024A002313601B78FFDE00BF4808002070B90B681A7B202A01D006207047D3F85F
:202D00000EC0598A1A7DC3F818C099839A777047032070474360CA699A4210D38A6910B4CE
:202D20000260C8690C6FC01A1A44C8612344003818BF01205DF8044B8A610B67704701F1E3
:202D40002802026000208B67704700BF2DE9F0470B7888B00C4605460E2B14D8DFE803F0DB
:202D600008180808130D281313181308080808000024204608B0BDE8F0874B78DA0930D165
:202D80005B09012B4DD00624204608B0BDE8F0870368002403F134022046C3E91E44C3E949
:202DA00020441C845C62DC625A6708B0BDE8F087027A002A00F06581837A0930002B00F0B1
:202DC0005E818B78E97A415C9942D1D01B061FD4E77807F0FD03012BCAD0002F66D00324D9
:202DE000C7E713F0600FC3F3411200F09580012AC9D18B78212BC6D1B1F80720072AC2D166
:202E00000168601C183108B0BDE8F04700F060BAE478002C00F0A080032C14BF0324002401
:202E2000A7E78B780668202B00F09E80222BAAD1B1F80730002BA6D1B1F80330328C33849F
:202E400003F0010702F00102BA4291D0C3691BB1C7F10301C9B29847002F89D12B7A012BBD
:202E600040F20B816B7B05F10C08002B00F00381AB7B18F8030008F06BF92B7A012B40F26D
:202E8000FC806B7B012B40F2F680AB7B98443C4698F8010008F05CF906F13403C6E91E7728
:202EA000C6E920777762F762736762E72E68012A06F10C0100F0E1806A7B012A05F10C034C
:202EC00040F2D980AA7B069113446F4A0592B46A93F80180002C63D1F36FC6F88030F36A4D
:202EE000C6E91E44002B00F0B58006F12C0393E8030006F1240383E803000023F36205A91B
:202F00004046FEF7F7FC0446EB69002B3FF431AF0021284698472CE703F01F03012B7FF432
:202F200032AF8E78062E7FF42EAF05A8039200F0DFFC03AB00930746E278217928463B46A8
:202F4000FEF7ACFA05283FF41EAF601C039A394600F0BEF904460CE7EB69002B3FF408AFC4
:202F600001212846984704E7B1F80720072A7FF40AAF3373B1F80730DBB2737300200E366D
:202F8000CDE90563079000F0DDFF05A90020FEF79DFC0446002866D0002000F0DBFFE8E6F4
:202FA000D6F884A0706A544528BF544606F134092246494612F08CFCF26FF767AAEB04031B
:202FC00009EB04011444F26AC6F88040C6E91D13002A42D006F12C0797E8030006F12404E0
:202FE0004FF0000984E80300C6F82C90DBB938E0706A12F06DFCB26AB36FC6F880209B1A5E
:20300000B367736F13447367EB6913B1002128469847F36A13B397E8030084E80300B36FC7
:20302000C6F82C90EBB1B26A716F9342E0D21A46706A12F04DFCB26FB36AF2679B1AB36211
:20304000736A1344736253B105A94046FEF752FC044659E70023736256E700237362002411
:2030600052E7736AEFE7094B03A9CDE9033500F02BFC044690E73B78FFDE7B78FFDE1B78AB
:20308000FFDE5378FFDE00BF152D0000F12C00000368B3F820C01CF0010F18D00B46017AC7
:2030A000012918D9417B00F10C0C91B110B5817B84B01CF8010091060CBF0124002401A98F
:2030C000CDE901320394FEF701FC04B010BD082070470B78FFDE00235B78FFDE0368D3F8B5
:2030E00080007047F0B50468238CDB0783B022D50546002016460F4600F024FFA26F42B992
:20310000636AE3B11124002000F024FF204603B0F0BD964228BF1646616F3246384612F03D
:20312000D7FBD4E91D32921B3344C4E91D32C4F880600024E7E70824204603B0F0BDC4E964
:2031400009762A7A012A12D9697B012905F10C020FD9AB7B084D13440C3458786946CDE9F5
:203160000054FEF7C7FB041E08BF9224CBE75B78FFDE1B78FFDE00BFE52000000020704738
:203180002DE9F04F4B6885B0CDE900020C46002B70D007F01DFEE568019B9D4228BF1D4659
:2031A0008146002D7BD04FF0000A56464FF00108D346D4E90113AB421F4628BF2F46E1B179
:2031C0003A4609EB060012F083FBA268E368C4F804B0D21BED1B3E44DF1BA260E76022B3A1
:2031E000002F08BF4FF00008002DE2D1009BC3E90096404605B0BDE8F08FABB1204609EBC0
:20320000060250F8101B4B68D3F804A03B46D047A268E368D21BED1B3E44DF1BA260E7606A
:203220005AB14FF0010ADBE7E768BAF1000F04D15FB9B846002DBCD1D8E723681B681B6879
:2032400023604FF0010A002FF3D02168F1B1CDF808B003E0A36821680133A3604B68002284
:203260005F6802A80123B8470028F3D12061002D9FD1BBE70B681B681B68002B89D18B681D
:20328000002B86D1C0E900339846B2E76160002EACD0019BB34288BF4FF00008A6E72E46CE
:2032A0004FF00108A2E700BF08B50020FEF7A0FABDE808408020FEF79BBA00BF08B500209F
:2032C000FEF7AAFABDE808408020FEF7A5BA00BF70B5C38893421E4628BF1646934284B0C0
:2032E0000D4612D8002400200394CDE9015600F029FE01A98020FEF7E9FA044688B10020CD
:2033000000F028FE204604B070BD8020144607F059FCB4FBF0F202FB1044B4FA84F4640995
:20332000E1E707F02DFE80280BD1094A094B92E8030083E80300002000F00CFE204604B059
:2033400070BD002000F006FE1024204604B070BD0C5D0100700800202DE9F04F0B780E2B9E
:2033600089B00CD893B1013B0D2B0FD8DFE803F07118130E33480E0E0E0E18621D23852B10
:2033800004D1A64B1A78032A00F025810625284609B0BDE8F08FA24805F0E6FD002878D169
:2033A0000025284609B0BDE8F08F4FF08043D3F83834DB075DD4994B1A78012AF0D099490E
:2033C00099480A78012422F002021C700A700025FEF706FBDBE705230DF115008DF8143068
:2033E00007F038FD9DF81530904E002203F01F043260032C00F29680DFE804F096BF766DF5
:20340000C87803280C46C1D0884E3368002B00F0EE8000227168326098470546002860D154
:203420003368002B00F0E580A378002BB8D107F033FDACE7794A1378002BB1D079497A486A
:203440000B78002523F0020315700B70FEF7C8FA9DE7724A1378032B98D0724972480B789C
:20346000032423F0020314700B700625FEF7B8FA8DE76A4A1378022B92D06A496A480B7812
:20348000022423F0020314700B700025FEF7A8FA7DE7674B0122DA65BFF36F8FBFF34F8F7B
:2034A0007EE79DF81620062A00F03381082A00F01F8182B95B495F4B09781A80890744BF0F
:2034C00002221A705B4902220DF11500FFF700FF0546062D03D105A8FEF7E2F90546002D27
:2034E00041D007F043FD52E79DF81900020707D005A9FEF7BFF906280546F0D19DF815304E
:2035000013F0600F0ED19DF81630444A9DF819401278012B00F0A080032B00F08D80002BE7
:2035200000F0AD800625DCE713F0600FC3F34117D1D1DB09B5D19DF81630032B00F0B280C9
:20354000092B00F0BE80012BC5D1BDF81730012BC1D1FEF745F9002800F0F180314A1378CB
:2035600023F0020313703368002B4BD007F008FD054600287FF414AF59E79DF8190003A990
:20358000FEF752F90446002840D09DF80C1005AAFEF76CF906280546A1D19DF8152012F0F8
:2035A000600F9ED11D4B9DF80C101B78D20940F0DB809DF816200B2A93D1052B70D1BDF891
:2035C0001730FF2B00F2BD809DF817202046FEF7A5F9054683E7134913480A78042422F05E
:2035E00002021C700A700625FEF7FAF9CFE60E2577E74FF08053D3F83021082A08D007F039
:20360000ABFCC4E607F0A8FC0025C0E6102568E7D3F83431002BF2D1C2E600BFF1360020A3
:2036200078080020F2360020D45C010070080020007002407C08002025073FF573AFBDF84C
:203640001730002B7FF46EAF052A01D0200727D1204607F0C1FB86E721073FF563AFBDF8A0
:203660001730002B7FF45EAF052A01D0220717D1204607F0DFFB204608F01CF873E7052A15
:2036800001D027070CD1204607F0B2FB8549034602220DF115000B80FFF71AFE05461EE70D
:2036A00008251EE7BDF81730012B7FF414AFFEF797F8002843D07C4A137843F002031370AF
:2036C00051E77A4C2378043B012BE9D89DF81730002B38D0012B34D1FEF7D6FC2378052B53
:2036E0003FF441AF052372482370FEF779F93AE76E4A1278052A4ED0042A7FF4ECAE694B2C
:203700001F70684901220DF11500FFF7E1FD0546DFE69DF81830022B56D0032B3ED0012BB7
:203720007FF4D9AEBDF81B30002B3FF46BAF614912220DF11500FFF7CBFD0546C9E60F253A
:20374000CFE60725CDE6FEF7B7FC2378042B3FF40AAF554A56481378042123F002032170E1
:203760001370FEF73DF9FEE69DF81670002F7BD00A2F7FF4B6AE052B92D120460192FEF791
:203780007DFC4849019A03460B700DF11500FFF79FFD0546A3E6434A1370B2E7BDF81B309E
:2037A000002B3FF42FAFBDF819109DF8170000F0B7FB014600283FF48EAE02780DF1150036
:2037C000FFF786FD054684E6BDF81B30002B3FF419AF092B28BF09239946FEF71FF84FF024
:2037E000090A0546B8B103974FF0000801E008F101086A680123D2F804B02946002203A88E
:20380000D8470028F3D12A682B7A15681C44C244E4B2002DE7D1234D27494A46284612F028
:2038200057F82C71A5F802A0FDF7DAFF18B1EB7943F02003EB71FDF7F1FF204B1860BDF835
:203840001B20DA600020C3E9015900F07BFB1C498020FEF74FF8054690B1002000F07AFB15
:20386000062D7FF43EAE36E6052B7FF419AF0D4902220DF115000F80FFF72AFD05462EE697
:2038800007F07EFB802808D10E4B93E8030086E80300284600F05EFB65E6284600F05AFB3A
:2038A00010251EE67C080020F2360020F1360020D45C0100F85C0100D85C01005808002061
:2038C000145D01000C5D010038B505460C4607F057FBA84207D194E80300044A82E803003D
:2038E0000023184638BD1023184638BD7008002008B1402303600148704700BF7C08002052
:2039000030B50C7A002C75D001F1090E0468002C00F0AD816FF4AB7504EB050CBCF1140FB9
:203920006AD8BCF1140F67D8DFE81CF01500FA0060018B017101820157014E01E70066007E
:203940006600D300BF006A0066002B0069015C007A0124004901002A00F0D9810479147050
:20396000012B4FF00404047140F27781A44601250224DCE04FF0010C002442B390F804E072
:2039800084E04FF0010C0024002A40F063810A8A9C454FEA1222027180F07D810CF1010450
:2039A0004A8A02719C4280F0718104F1010C4A8A9C454FEA1222027180F063810CF1010493
:2039C0008A8A0271A34240F24D8104F1010C8A8A63454FEA1222027162D840F26B13036090
:2039E000012030BD4FF0010C0024002ADFD090F804E031E0A64689E700230360184630BDC6
:203A0000002A00F0CB8190F804C01546012485F800C091F810E080F804E0A34240F240818A
:203A200004F1010C02F804E0B1F810E09C454FEA1E2E80F804E080F02E8102EB0C050CF131
:203A4000010485F800E091F812E080F804E09C4280F01C8104F1010C02F804E0B1F812E0C7
:203A60009C454FEA1E2E80F804E080F00A8102EB0C050CF1010485F800E091F814E080F837
:203A800004E09C4280F0EE8004F1010C02F804E0898A63454FEA112101719ED96244117070
:203AA00040F26D130360012030BD002A00F0788190F804C001244FF0000E02F80EC0A34265
:203AC0004FF0090C80F804C040F2EF80151901349DE7002A00F0668104794FF0010E4FF0C3
:203AE000000C02F80C4073454FF02104047140F2E180A4460EF10104DFE7002A00F04881B9
:203B000004794FF0010C4FF0000E02F80E4063454FF00904047140F2D2800CF1010EE0E787
:203B2000002A00F0378190F804C00124002502F805C0A3429EF800E080F804E040F2E28013
:203B400004F1010C02F804E063454FF00004047140F2D3800CF1010E02F80C4073454FF057
:203B60000004047140F2C4800EF1010C02F80E4063454FF0FF04047140F2B5800CF1010E30
:203B800002F80C4073454FF00104047140F2A6800EEB040C02F80E4063454FF00104047164
:203BA00040F297800CEB040E02F80C4073454FF00004047140F288800EF1010CA5E7002A01
:203BC0003FF46EAF01796AE7002A00F0F18004794FF0010E4FF0000CE6E7002A00F0E480DE
:203BE00004794FF0010C4FF0000ED3E7002A00F0E38090F804E04FF0010C0024A2E7002AE9
:203C000000F0CA8090F804E01546012419E7002A00F0D08004794FF0010C4FF0000EA5E772
:203C2000002A00F0C38090F804E01546012422E7002A00F0C38004794FF0010E4FF0000CBF
:203C40009EE7002A00F0A28004794FF0010E4FF0000C81E790F804E0E4E64FF4AC7303602A
:203C6000012030BD4FF4B5730360012030BD09240471002B7FF46FAE40F2571303600120DD
:203C800030BD40F269130360012030BD4FF4B4730360012030BD40F267130360012030BD20
:203CA0004FF4B3730360012030BD4FF4B2730360012030BD40F263130360012030BD4FF4F5
:203CC000B1730360012030BD40F25F130360012030BD4FF4AF730360012030BD40F25D13C2
:203CE0000360012030BD4FF4AE730360012030BD40F25B130360012030BD4FF4AD730360A7
:203D0000012030BD40F259130360012030BD0422012B0271A1D902249EF800200271A34213
:203D2000F0D9013400229C420271E6D201340022A3420271DCD90134FF22A3420271D2D99D
:203D4000013401229C420271C8D214440122A3420271BED914440022A3420271B4D9013422
:203D60000922A3420271AAD901342122A3420271A0D9013409229C42027196D201340A8A12
:203D800002719C428CD204F1010C00E60124CEE70124E5E70124BFE7012401E60124EEE7F0
:203DA0000124E7E70124E0E70124CFE7012407E60124D0E70124BFE70124B3E70124C0E705
:203DC0000B780E2B0BD8DFE803F0080808080A0C080A0A0A0A080808080000207047062007
:203DE0007047F0B54B78DA0985B00C46064611D15B09012B02D0062005B0F0BD8C78002CF2
:203E0000F9D102681373036A002B39D0214698472046F1E713F0600FC3F3411214D0012A39
:203E2000E9D18B78072B09D0082BE4D1C2688169601C05B0BDE8F040FFF74ABAB1F80720EE
:203E4000182AD8D1C169F3E703F01F03012BD2D18D78062DCFD103A80292FFF749FD02AB8F
:203E600000930746E278217930463B46FDF716FB0528C0D0029A3946601CFFF729FABBE763
:203E80001846B9E770B54FF0805286B0D2F8A830D2F8A41000916FEA83436FEA93430B4A64
:203EA0000B4E9BB20D2102A80CF018F802AD002404E015F8013B06F8013B013402A811F05E
:203EC00039FD8442F5D306B070BD00BF305D0100BC08002010B5114B53F8204023780BB9DF
:203EE000A01C10BD0020FFF703FD217899B12246C4F1010C02EB0C03DCB2234620F81410E7
:203F000012F8011F0029F5D101335B00DBB243F44073038010BD40F20233FAE7985D0100F4
:203F200040B1052808D8054A105C28B1044B53F820300BB1FFF7CEBF00207047B05D0100E1
:203F4000985D010072B6024A1368013313607047CC080020034A1368013B136003B962B6DF
:203F6000704700BFCC08002010B50446006830B1002107F0DBFE54F8040F0028F8D110BD71
:203F800010B590F84C30094A0446013384F84C3080212346203002F091FC054B224619786D
:203FA000BDE81040002007F083BF00BF813F0000F33600202DE9F041038804463BB1B3F53B
:203FC000867F0AD182290DD00120BDE8F0814FF4867323800120BDE8F08100230380032063
:203FE000BDE8F08103F014FABFF35F8F1649174B0E6800220A601F781A70FFB2BFF35F8FD5
:20400000134D03F009FA28680028E0D0DFF8448003E055F8040F0028D9D090F8463026FA15
:2040200003F3DA07F5D590F8453047FA03F3DB07EFD502F0A5FC0028EBD02B684246184616
:20404000022102F03BFCE4E7E0080020F6360020D40000208D40000010B4094A094C13684D
:20406000194311602178012202FA00F040EA0103DBB2237004485DF8044B07F04BBF00BFCD
:20408000E0080020F6360020DC00002070B5044602F076FC00B970BD04F12006304602F094
:2040A0006FFC94F84610054694F8450003F06EF948B994F8443063B9002DECD1304602F0CE
:2040C00045FC0D4B11E00128F6D194F84430002BF2D1002DDFD000252346084A84F84C50A4
:2040E0007E21304602F0EAFB054B197822462846BDE8704007F0DCBEF5360020813F00002C
:20410000F4360020F8B507F009FE304B304C187007F004FE2F4B304F187007F0FFFD2F4A45
:204120002F4B107022687B600025FF213972FD60002A42D02B4E09E091F84600F9683A7259
:20414000834054F8042F0B43FB60B2B392F8463092F84510926C03F01F0343EA41131F2B52
:20416000C6BF03F01F0331464FF0A04103F5E07342F08C0241F82350236893F8461093F860
:20418000450003F0BFF8226892F8463092F8450003F01F0343EA4010012105F037F9216875
:2041A000387A91F8452082424FF00103C4D0FF28C2D054F8042F002AC8D10B48002107F05E
:2041C000B5FDBDE8F840044803F0F4B8F4360020D4000020F5360020D0080020F33600209B
:2041E0005940000000030050DC000020042800D0704708B5054A13680133136002F0E4FC24
:2042000000B908BDBDE8084002F0B4BCE408002000B5134B83B000221A6004F0D5FEC0B9A3
:20422000002004F0EDFE0F4B0F4A93E803000090ADF804100D48694605F06AFB60B901216C
:204240000A4805F0B9FB094805F0AAFB03B05DF804FBFDF7BDF8E3E7FDF7BAF8EFE700BFC3
:20426000E4080020E45D0100ED410000EC5D0100014B1868704700BFE4080020014B18685E
:20428000C0097047E40800200346806A596007F041BE00BFF0B5858C83B0044617461E46FD
:2042A0004DB36A2D22D182294AD14568002D62D00023009304F1180204F11401284601F074
:2042C00075FE227E131E18BF012384F82030D4E90431994246D0637E0133DBB26376002A4B
:2042E0003AD0032B0ED9042384F820300023A384032003B0F0BD244B4560C0E904551B6846
:204300008362058301F012FA3946308100F058FF2060F0B11D4BC36323681C64216991B92E
:2043200021683046463101F017FA2368A3F84400206800F05FFF6A230120A38403B0F0BD90
:20434000012003B0F0BD40230022304601F04AFEE6E7A0840220CCE7032BC4D8022384F877
:204360002030C3E7089B606898472369227E01332361637EB3E7032380F820302846089B9B
:204380009847A5840220B4E7341800208942000010B5846882B01CB194F90830002B01DBA5
:2043A00002B010BD236A002BFAD01A68002AF7D00749097831B11B6A23B101909847236A80
:2043C00001981A68002302B0BDE8104000F092BEF73600202DE9F04782B006461248DDF871
:2043E00028A00F469146984603F0F6FC70B10446656843464A463946304625B1CDF800A085
:20440000A847054638B92468002CF1D10025284602B0BDE8F087B379012BF8D13A4631467E
:20442000002000F049FCF2E7E80800202DE9F04F2DED028BA34CA44E05468BB020468846A7
:2044400001F030FBC4F8A0500346307008BBA279013A032A62D9636823F07F4323F0FF0375
:20446000002B4FD06379032B00F02781208900F051FF074600284DD0D0E90F9700F034FF53
:20448000B9F1000F00F091808E493846C847337843B30027C22B2BD0DFF84892384600F02F
:2044A00023FF3278C32A69D0BF2A84BFA022327002212389834801F041F9D9F80010039140
:2044C000084611F037FA039902467E4801F0B0FD41467C4801F040F9414682B2284601F085
:2044E0002DF8337818460BB0BDEC028BBDE8F08F384600F0F9FE337818460BB0BDEC028B1A
:20450000BDE8F08FC3232089337000F003FF07460028B1D13378002BE4D0BBE7039029462E
:20452000208900F04DFE0746002842D0039B0893CDE9063363794022ADF8162063BB238905
:2045400062484522022101F0F9F8A27A002A40F0AF8007AB00935B480DF11603002206A9D0
:2045600001F024FD70B9089B002B2ADADFF87491574BC9F80030822333708FE7002232703D
:20458000032196E7BDF81630402B28BF4023ADF81630079B0893E7E701F0C8F84522034673
:2045A00001214A4801F0CAF8CFE73378002B99D06FE7DFF83091474BC9F80030A3233370C5
:2045C0006CE708A9BDF81630009107F184023F493C4808EE903A08EE102AFFF7FBFE0028BA
:2045E0004DD1099009A9374801F0BAFC82463A4803F0F2FB002879D0099B03979B462B4601
:20460000994605460AE006DD2A7AD30603D51BF800202F2A08D02D68002D65D06F6838469E
:2046200011F088F98245EED102465946384611F089F90028EFD1A279039F4B46511EA946F6
:20464000012A1D464FF0010303FA01F300F0C080990740F1A880D9F814A0BAF1000F00F040
:20466000A28008AB1949009318EE102A18EE903A1448D04799F80830590600F1BF803378EA
:20468000002B7FF407AFA37D1A0757D5DFF83C9099F90630002B51DB99F816301B074DD47D
:2046A000DFF840900D4BC9F80030A1233370F5E60B49064801F02EFC4BE72189284600F0D1
:2046C000C3F9D3E6F0080020F93600209C090020F45D0100145E0100EC080020045E0100FD
:2046E000FB08002048010020039F4D465948842101F00AFC5748842101F006FC3378002BAF
:204700007FF4C8AE534807F1460101F025F880B2A7F8440020B9C123DFF844913370BDE604
:204720003378002B7FF4B6AE384600F063FD337818460BB0BDEC028BBDE8F08F637DD91116
:2047400016D1089A002ADDD0DFF80891013218BF01224023484601F045FCB9F8A420D9F8F3
:20476000A810402A28BF4022484601F061FCC5E7DDE90723934232D00133069944D0BDF8E3
:204780001630DFF8D0900122324801F02BFCBDF81620B9F8A4309342B0D9D9F8A8102D481B
:2047A00001F046FCAAE75A0705D5D9F818A0BAF1000F7FF456AF180705D5D9F81CA0BAF10E
:2047C000000F7FF44EAF8521224801F09DFB91E7D9F810A0BAF1000F7FF443AF38E7DFF8B3
:2047E0007490B9F8A420934219D382231A4989F8063048460F2201F01BFC7FE7154A1749D4
:20480000484600F059FA3AE7DFF84890BDF81630B9F8A4209A4294BF00220122B4E7D21A8C
:20482000BDF8163006999A4294BF00220122484601F0D8FB0799B9F8A430BDF816205B1A93
:204840009A4228BF1A46D9F8A8304846194401F0EFFB53E79C090020F45D0100F00800205D
:204860004801002010B504460D486160214603F0B5FA94F90830002B00DB10BD206A002857
:20488000FBD0036A002BF8D00268002AF5D0054BC0E903340023BDE81040083000F02ABC3E
:2048A000EC0800209143000008B50B4B1A7802B108BD012209481A7003F08AFA084803F03B
:2048C00087FA08490848FFF7CDFF00F031FEBDE8084000F023BF00BFF7360020E8080020FA
:2048E000EC080020245E0100F8000020014803F073BA00BFEC08002003F016BB2DE9F041C2
:204900000546134803F068FA0446E0B1DFF844800F4F002601E0246894B1294604F1180074
:2049200000F068FD0028F6D02146404603F0CAFB2146384603F09EFA24680136002CECD173
:204940003046BDE8F08106463046BDE8F08100BF480A0020EC0000202DE9F04705461B48BB
:204960000F46164603F038FA044658B3DFF860A0DFF858904FF0000801E02468FCB12946A6
:2049800004F1180000F036FD0028F6D094F82C30B342F2D13246394604F12D0010F088FFB9
:2049A0000028EAD12146504603F08CFB2146484603F060FA246808F10108002CDFD140466B
:2049C000BDE8F08780464046BDE8F087480A0020EC0000202DE9F047064619480F4603F093
:2049E000FBF9044640B3DFF85CA0DFF854904FF00008251D314604F1180016B100F0FAFC3E
:204A0000A0B1BD42284607D010F094FF39460246284610F04DFF48B92146504603F052FBAF
:204A20002146484603F026FA08F101082468002CDFD14046BDE8F08780464046BDE8F087FA
:204A4000480A0020EC0000202DE9F843054614480E4603F0C1F90446E8B1DFF84890DFF876
:204A600040800027294604F1180000F0C3FC10B1E38EB34205D02468002CF3D13846BDE889
:204A8000F8832146484603F01DFB21464046013703F0F0F9EFE707463846BDE8F88300BF1A
:204AA000480A0020EC0000202DE9F04F2DED028B0C46E1B00746002800F0C98041680291AF
:204AC000084610F037FF05AE054602991322304610F04CFF122D40F2928000240DF12809ED
:204AE00023464522012148460DF1D40AF47400F025FE234601222146504600F01FFE3146D2
:204B0000504601F037FA304610F014FF97F808B00546CBF3001B624803F05EF90446002883
:204B200068D008EE106A02970AE006DDBBF1000F03D063191B792F2B08D02468002C59D0B6
:204B4000271D384610F0F6FEA842EED118EE100A39462A4610F0F6FE80460028EDD100F057
:204B6000E5FD04F1180100F02BFB07460028E4D0A26B4C4B4C4901FB02324C4BB3EBB20FA7
:204B800028BF89F805808388E386A9F8083004AB0093002300F184020493494640235046E0
:204BA0000392FFF717FC58B9029B002B73D004AA00921B69039A1E46494640235046B047F7
:204BC00099F90630002B24DA94F82C2004F12D01484601F09FF9049A32BB07F1460148467A
:204BE00000F0BAFDA7F84400384600F003FB2468002CA5D161B0BDEC028BBDE8F08F002CFA
:204C00003FF46BAFC5F113022146701910F0AEFE63E7A16B4B1CA363484601F0BFF9A36BD8
:204C200023F07F43A363CFE7013218BF012200214023484601F0D6F9B9F8A420D9F8A810E6
:204C4000402A28BF4022484601F0F2F9C5E70029D0D005AE132230460DF1280910F086FEB1
:204C60000DF1D40A3B464522012148468DF8277000F064FD3B4601223946504600F05EFD4F
:204C80003146504601F076F9304610F053FE4FF0010B05463FE7802389F8063094E700BF90
:204CA000480A002098999919CDCCCCCCCCCCCC0C0021FFF7F9BE00BF8B79012B00D07047BA
:204CC0002DE9F04792F90630002B82B015464EDBCB7C5B060C464AD5D1F8A070002F46D0AE
:204CE0004B6E4BB1012B42D18A7A38460B3102B0BDE8F047FFF730BE096E0191384694F87D
:204D00000AA0D4F85C80FFF765FE1F4803F0BEF9064678B3B8F1120FC146C4BF4FF01308B2
:204D2000C146424601990430B14410F0D1FD3946002706F1180089F8047000F047FB5246DF
:204D400004F10B0186F82CA006F12D0010F0C0FD0E48F786314603F041F8B16B4B1CB36318
:204D6000284601F01BF9B36B23F07F43B36302B0BDE8F0870649A32310222846AB7102B066
:204D8000BDE8F04701F054B9EC000020480A0020385E01002DE9F04F2DED028B83B008EEFF
:204DA000101ADDF8389001929846FFF79FFD002800F0BB800025D9F800B006462C46A3458A
:204DC00008D8454512D2019B4FF03C025A55D9F800B00135631C5B4508D3454506D2019B0E
:204DE0004FF02F025A55D9F800B00135D6F804A0504610F09FFD023427185F453FD801D137
:204E0000454554D3D6F80CB07C1CBBF1000F17D09BF80030A3B1D9F800A0A24509D8454543
:204E200007D2019A3B235355D6F80CB0D9F800A00135584610F07EFD02373C1854453BD875
:204E4000454504D9D9F80030621B9A4246D83046FFF752FD0646002856D0D9F800B0002C71
:204E6000ADD0A34507D8454505D2019A2C235355D9F800B001350134A345ABD8A1E7019A81
:204E8000ABEB040B08F101015019BBF1000FACBF0AEB0B030AF10003491B284A0BF01EF8FB
:204EA0000544454530D2D9F800309F42AAD3019A3E2353550135A5E7019AAAEB070308F125
:204EC00001015019002BACBF5B440BF10003491B1A4A0BF003F805444545B8D9019918EE71
:204EE000100A2A4601F0A4F818EE100A282101F01DF8D6B1D9F800304344C9F8003003B079
:204F0000BDEC028BBDE8F08F002DE7D1002CF0D0822118EE100A00F0F7FF18EE100A08494C
:204F20000F2201F085F8002EE4D14FF0FF33C9F8003003B0BDEC028BBDE8F08F4C5E0100D5
:204F4000F45D0100014806F0E5BF00BF1C01002038B5038804463BB15C2B0DD188290FD07D
:204F600082290DD0012038BD1B48802101F008FE5C232380012038BD00230380032038BDA2
:204F800000F0EAF80546F0B900F0C8F850EA010319D0124BC9014FEAC01C41EA50616345B4
:204FA00075EB010313D3BCF57A7F71F1000311D34FF47A72002360460FF0B6FB0146064877
:204FC00001F0DEFDD4E7064806F0A4FFD0E74FF4F051F4E70121F2E7540A0020E733750045
:204FE0001C01002010B5FFF743F90C4B1968411A03D10B4BD3E9000110BD094A18604FF488
:205000007A70A1FB00131468C80940EA43605168001941EBD311C2E9000110BD500A002008
:20502000600400200148002106F080BE1C0100202DE9F041234B1A7882B0804662B3224853
:2050400002F0CAFE414606461F4802F013FF1E4802F0C2FE014668B3D8E904754FF0000C59
:2050600003E00C688C4644B32146D1E904349F4275EB0403F5D214484246614602F01EFF0E
:20508000114802F0A9FE864211D0104B9B68019302B0BDE8F041184701220B481A7002F0AA
:2050A00097FE0A4B1B68002BC9D09847C7E702B0BDE8F081B8F1000FE2D00348424602F03B
:2050C000FDFEDDE7F8360020640A00206C5E0100064B10B55B6804469847C4E9040121464F
:2050E0000348BDE8104002F0C5BE00BF6C5E0100640A0020084970B5496805461E461446B3
:205100008847241846EB0101C5E904412846BDE87040FFF78DBF00BF6C5E010010B50C48B6
:2051200002F05AFE044678B10A4B5B689847D4E90423904271EB030402D30020014610BD99
:20514000101A63EB010110BD4EF66020214610BD640A00206C5E01002DE9F041164F7D6826
:20516000A847804615480E4602F036FE30B1D0E90423904576EB0303044602D20020BDE8C3
:20518000F0810E48214602F075FE63680BB120469847BB689847094802F01EFE0028EDD06A
:2051A000D0E90464A847B04271EB04032CBF01200020BDE8F08100BF6C5E0100640A002030
:2051C00070B5064609480D4602F060FF044658B1002326302946A68084F8243000F0F6F85A
:2051E0000348214602F0FAFD204670BD2C010020680A00202DE9F04190F8463013F0300F1B
:205200000446C3F301152FD190F82430042B13D8B0F8442000F14601263000F08FF994F8E4
:205220002430B3B3226A5200226204F108000023BDE8F041FFF75EBF2630D4E90F67FFF7CA
:205240005DFB04F10800FFF743FF1E48214602F011FE1D48214602F035FF8EB329463846D3
:205260003346BDE8F0411847B0F8442000F14601263000F063F904F10800FFF729FF214618
:20528000104802F0F7FD21460F48BDE8F04102F019BF0E4BC4E903340FF0F6FB0C4AA2FB52
:2052A0000032920A40F2DD5303FB120202F6B832226204F108000023BDE8F041FFF71ABF81
:2052C000BDE8F081680A00202C010020D5520000B76FA5AE806830B190F82430013380F8E8
:2052E0002430FFF787BF704770B110B504460830FFF7EEFE2146054802F0BCFD214604480B
:20530000BDE8104002F0DEBE704700BF680A00202C01002010B50446054802F05DFD10B944
:2053200004E0006810B18388A342FAD110BD00BF680A002070B5028804465AB1B2F5DA7F83
:2053400016D11A4B1B788B4216D04FF4DA732380012070BD114610460BF060FC43F21633B8
:20536000134A03824FF4DA73106023800120F0E700230380032070BD0E4B1B789B07E4D573
:205380000D4B0E490E4D09880E4E03F120028A5A2A820021A9740FCB85E80F000A4B3288CD
:2053A00019682846FFF742F8CFE700BF1A370020840A00201E370020C02D0020E63600207C
:2053C000700A0020E8360020B83200208B68D1F800C04A6800B5D1F80CE0C0F80CE0C0F8F7
:2053E00000C0426083600B8A03828B7C83745DF804FB00BF38B5102205460C4610F058FA2F
:2054000058B92A8A238A9A4200D038BDA87CA37CC01AB0FA80F0400938BD002038BD00BF30
:205420002DE9F0470E1E8AB08146904639DD0346002402E00134A64233D01F4613F8015BCB
:205440005B2DF7D1A6422CDD09EB04032546AA460135AE4225D013F8012F5D2AF7D1334994
:205460000622484610F06EFAB0FA80F04009A54288F812001FDD384641460EF0F1FAD0B1C7
:205480000AF1020A09EB0A0019F80A303A2B32D098F812303BB343F21643A8F81030012006
:2054A0000CE022490622484610F04CFAB0FA80F0400988F81200272E03D900200AB0BDE8F4
:2054C000F08732464946684610F002FA06F128030DEB030600234146684606F8283C0EF0C9
:2054E000BFFA0028EAD043F216330120A8F810300AB0BDE8F087023E761BC9D000221146D9
:2055000004E001318E4203EB440209D010F8013F303BDDB2092D02EB8204F2D90029B7D032
:2055200052BAA8F810200120C8E700BF785E01000148002106F0FABB3801002070B582B064
:20554000B8B11446028848F2FE039A420E46054603D00A4B5B6A984758B1094A2B8A1068F3
:20556000009322462B4631460CF0D4FE204602B070BD4FF0FF34204602B070BD58660100BF
:20558000840A00200C2841D9B0F5867F94BF6FF02F0C6FF01F0C0C2936D9B1F5867F94BFAC
:2055A0000D230E2343EA0C03B0F5867F137017D96FF48673C3181B0A0D38537090700223A8
:2055C0000320B1F5867F16D96FF4867C8C444FEA1C2C02F800C01A440D39D81C917070474E
:2055E0000C280ED90D38B1F5867F50704FF001034FF00200E8D80C2902D90D3911540130B0
:20560000704701200023DCE74BB2CBE703014FFA83FCC0E72DE9F0411C46260C14F07F4804
:205620004FEA06460B46154614BF01210021CEB1013124F0FF07C01A02312A46FFF7A2FF44
:20564000B8F1000F17D0230E2B54431C16B3220CEA54023017B1230A2B5401302C540130DF
:20566000BDE8F08134F0FF07E5D14CB9BDE8F041C01AFFF787BF76B1230C2B540130EAE76C
:20568000C01A0131FFF77EFFB8F1000FDBD1002CE6D0E3E71846002FDDD1002CE0D0DDE7A0
:2056A0002DE9F04F83B01F460C9B9DF834B00024013382468E4691460193B8462646A4462A
:2056C00004E0019B01349C42A44622D817F80C3007EB0C05A5EB08055B4509EB0602AAEB37
:2056E0000E00294602D00C9B6345EAD1FFF74AFF0644414609EB06002A4610F0E9F80134C1
:20570000019B07EB040801349C422E44D646A446DCD9304603B0BDE8F08F00BF08B506F0F0
:2057200081FC014B188008BDD8360020024B1888013080B218807047D8360020F8B5044651
:205740000F4616461D46AC22002110F0A9F86771A6712581F8BD00BF2DE9F043012200230D
:20576000016002710B7002680E461378017943EA811313700268437911781B0103F03003E2
:205780000B4313700268837A117803F00F030B431370036882795A70038902681B0A937024
:2057A00003680289DA70837983B00446002B00F06A810268837A151D6BB16FF0030100F121
:2057C0000B03891A13F8012B05F8012B94F80AC06A189445F6D8E37C9807C3F3400111D55E
:2057E00094F86A702A4639460120FFF7CBFE3A46804604F16B01281810F06AF84744E37C41
:205800003D4401211A0711D5D4E910792A46C1F103003946FFF7B6FE494680463A46281835
:2058200010F056F84744E37C3D440321DF0612D594F824702A46C1F104003946FFF7A2FE64
:205840003A46804604F12501281810F041F84744E37C3D440421980606D5C1F105010901A3
:2058600005F8011BE37C05215A0607D5636E2A460620FFF7CFFEE37C05440621DB0907D09A
:205880002A46B4F850300720FFF7C4FE07210544237DDF070BD52F230193A36C0093E36CDF
:2058A0002A460820FFF7FCFE237D0544082118070BD52F230193E36D0093236E2A460B205A
:2058C000FFF7EEFE237D05440B21DA0607D5A38B2A460C20FFF79EFE237D05440C215F063E
:2058E00007D5236A2A460E20FFF794FE237D05440E21DB090CD026230193D4F89430009341
:205900002A46D4F898300F20FFF7CAFE0F210544637D980708D5B4F868302A461120FFF7E6
:2059200079FE637D05441121DA060BD526230193636D0093A36D2A461420FFF7B1FE637D5C
:2059400005441421DB091CD0636F94F878201B01002A40F09C80B4F87A200020120900F1FF
:20596000010C520886461FFA8CF0F8D118B10EF00F0E43EA0E032A461720FFF74BFE172156
:205980000544A37D1F071DD5D4F8803094F884201B01002A7ED1B4F886200020120900F1C7
:2059A000010C520886461FFA8CF0F8D118B10EF00F0E43EA0E032A461B20FFF72BFEA37D4A
:2059C00005441B21D80607D52A46D4F88C301C20FFF720FE1C210544E37D1A0711D5D4E996
:2059E0000C792A46C1F123003946FFF7CBFD494680463A4628180FF06BFF4744E37D3D44B6
:205A00002321DB0910D0D4E90E792A46C1F127003946FFF7B7FD8046494628183A46474428
:205A20000FF056FF3D442721A37EDB0612D42368EB1A3E2B19DCB4F8A420F2B9D4F8A810D4
:205A400028460FF053FFB4F8A400AD1B284403B0BDE8F083D4F890302A463C20FFF7DAFD13
:205A600023680544EB1A3E2BE5DD0C4B0C4A002020601A6003B0BDE8F083FF2305F8013B35
:205A8000B4F8A420DAE7042003B0BDE8F08343F0080360E743F008037DE700BF4801002097
:205AA0008C5E0100032A40F2C9802DE9F04704460D4682B090460021A82204300FF0F0FE55
:205AC000256095F800A04FEA9A1A84F804A02B78C3F3011363712A7802F00F02A2726B782A
:205AE000A3716B88BAF1010F5BBA23817BD1082A00F2AB80291D8E1805EB08094E4575D8C3
:205B000004F10B000FF0E4FE00274E45C4F81370C4F8177080F0A480327802F0F003F02B2A
:205B200000F07B81711C89454FEA121302F00F025CD90D2B5ED00E2B67D00D2A61D00E2A12
:205B40006FD08E18B14551D31F443C2F4ED804EBD70007F0070390F813C00AFA03F343EA09
:205B60000C03C3747B1E3B2B74D8DFE813F07B0073008500880092009500A200B1007300E2
:205B80007300B800BF007300CD00DA007300E20073007300F10073007300F8007300730011
:205BA000730034011801730073007300730073007300690073007300730069007300730061
:205BC000730073007300730073007300730073007300730073007300730073007300730095
:205BE000730073002601AF4BAF4A1A60802002B0BDE8F0877378B11C0D338945F6D90D2AF1
:205C00009DD111F8012B0D329BE77378B11C89454FEA0323EAD9B07800F20D10F11C0344ED
:205C2000EBE7084610F8012B81454FEA0222DDD9487800F20D100231024482E7802070472F
:205C4000984B9A4A1A60A520D1E7964B984A1A608020CCE7FB0700F14D81B1453FF65CAFFF
:205C60000020C4E7082A28BF082284F86A2004F16B000FF02DFEF0E7C4E91021EDE7082ACB
:205C800028BF082284F8242004F125000FF020FEE3E784F89CA0E0E74AB1013A88180139A3
:205CA000002211F8013F814243EA0222F9D16266D3E752B1013A0A440023013911F8010F17
:205CC0008A4240EA0323F9D19AB2A4F85020C4E7A06C002840F0B080C4E91221BDE7E06D76
:205CE000002840F0BB80C4E91721B6E752B1013A0A440023013911F8010F8A4240EA032371
:205D0000F9D19AB2A283A8E74AB1013A88180139002211F8013F884243EA0222F9D12262D5
:205D20009BE7D4F89400002840F0C480C4E9252193E752B1013A0A440023013911F8010F76
:205D40008A4240EA0323F9D19AB2A4F8682084E7606D002840F09480C4E915217DE7002AD8
:205D600000F0C080013A0A440023013911F8010F8A4240EA0323F9D103F00702102123F0CE
:205D80000F00914089B200FA02F2C3F3C0001B0984F87800A4F87A10E26763675DE74AB1F4
:205DA000013A88180139002211F8013F884243EA0222F9D1C4F88C204FE74AB1013A88180A
:205DC0000139002211F8013F884243EA0222F9D1C4F8902041E7002A00F08880013A0A44FA
:205DE0000023013911F8010F8A4240EA0323F9D103F00702102123F00F00914089B200FAF2
:205E000002F2C3F3C0001B0984F88400A4F88610C4F88820C4F880301FE70136751BA8EB92
:205E20000505ADB2402D88BF40250020C4F8A860A4F8A4507055DAE6E36C01924FF02F0C8B
:205E400003F800C0A36CE06C0133A36418440FF04DFDA36C019A1344A364FEE6236E01923C
:205E60004FF02F0C03F800C0E36D206E0133E36518440FF03BFDE36D019A1344E365ECE6A4
:205E8000A36D01924FF0260C03F800C0636DA06D0133636518440FF029FD636D019A134417
:205EA0006365DAE648010020BC5E0100FC5E0100D45E0100D4F8983001924FF0260C03F8B5
:205EC00000C0D4F89430D4F898000133C4F8943018440FF00BFDD4F89430019A1344C4F8B9
:205EE0009430BAE613461021104651E713461021104689E7024B034A1A60822077E600BF04
:205F000048010020245F0100FF299ABF817101200020704710B5082A28BF082214468272D3
:205F20000B300FF0D5FC204610BD00BF037D818343F0100303750120704700BF082A38B56C
:205F400028BF0822044680F82420253015460FF0BFFCE37C43F01003E374284638BD00BFA2
:205F6000037DC3F3C0021B0702D5036E0B60C26D104670470B782F2B10B5044603D111F84F
:205F8000013F2F2BFBD0216608460FF0D3FC237DE06543F00803237510BD00BFC37C4166CC
:205FA00043F04003C3740120704700BF8446407DC01115D010B411B1DCF874400C6012B123
:205FC0009CF87810117013B1BCF87A201A80019B1BB1019ADCF87C3013605DF8044B704727
:205FE000704700BFA3F1100CBCF5FE6F02D8B1F5801F01D30020704790F815C04167003A54
:2060000018BF01226CF07F0C80F87820A0F87A3080F815C00120704711B1D0F8A8300B605B
:20602000D0F8A83013B1B0F8A400704718467047402A28BF4022C0F8A810A0F8A42010460F
:20604000704700BF38B5674C05F048FDFEF7E0F808F0AEFA05F09CFE6348002105F066FECF
:2060600000F018FC0DF0A6FE00F0D0FC09F07AFF05F03CFD05F06CFF02F0E8FA02F0F8FA07
:206080002368022B3CDC594A594B1168526819605A605848002105F049FE4FF0FF300BF01D
:2060A000D7FA2368022B054613DC05F04DFDFEF7FBFB5148FDF758FF0DF0A4FE05F084FEF9
:2060C0000446E4B20DF0A6FE002CF7D105F042FDF4E74A4A4A494B4805F058FD4A4805F0B1
:2060E00055FD2368022BE0DD05B10235284601F01FFF2368022BD8DD0A2005F019FFD4E710
:206100003E4A3F493F4805F041FD404805F012FF2368022BB7DD394A39493A4805F036FD2C
:206120003B4B3C48196805F031FD2368022BAADD324A3349334805F029FD374B3748196862
:2061400005F024FD2368022B9DDD2C4A2C492D4805F01CFD324B3348196805F017FD23687C
:20616000022B90DD254A2649264805F00FFD2E484AF6CD3105F00AFD2368022B83DD1F4A07
:206180001F49204805F002FD28481A2105F0FEFC2368022B7FF777AF184A1949194805F033
:2061A000F5FC234B2348198805F0F0FC2368022B7FF769AF114A1249124805F0E7FC1E48FF
:2061C00005F0E4FC2368022B7FF75DAF074801F0BFFE2368022B7FF756AF0A2005F0A8FEBB
:2061E00051E700BFD801002080010020DC0F002068340020C802002028640100405F010030
:20620000485F0100505F01001C600100605F010058660100905F0100D8660100A05F0100FB
:2062200048600100AC5F0100B85F0100D45F0100DA360020F45F0100046001002DE9F04727
:206240000D468B6892F82C900646506B1446D3E9007801F00FFE686805F0B6FEA9681D4830
:2062600001F030FF1C48294601F02CFF606B01F0B3FDD8B10023A38505F0D4FE174BA3FB08
:206280000023C11A03EB51039B08C3EBC303C11A134A234604F10C0000F010FB4B46324601
:2062A00041463846BDE8F04701F0D6BE04F10C0000F04CFB21460B4801F0DCFD21460A4803
:2062C00001F000FF4B46324641463846BDE8F04701F0C2BE4C01002064010020254992245D
:2062E000ED620000F00A00205801002020B32DE9F047044684B0406B01F06EFD0546C0B15B
:20630000406805F077FE76490D2005F0CBFB0121082005F0B9FB00F0BDF900280DDAAB6809
:206320003BB105202246294604B0BDE8F047FFF785BF04B0BDE8F087704705F041FB694F3B
:2063400090F802807B68019305F03AFB064605F041FB019B01463046984705F0B7FBBB6912
:2063600001930646984700282DD1002E61D1D7F81C90C84738BBBB681E4605F02BFBB047C2
:2063800000286BD002281ED0AB68002BD1D00420C8E708F0F3F86FF028031E1A03E008F050
:2063A000EDF8C64202D5C8470028F8D0C84700286ED03B69032103A89847032803D19DF8BF
:2063C0000E3043453BD0AA68002AB2D094F82D104B1CDBB2052B84F82D301AD8127A94F85E
:2063E0002C00904221D2012B88BF1F2671D905F019FEB0FBF6F101FB160104F10C003A4A74
:20640000234600F05BFA686804B0BDE8F04705F0D5BD94F82C300133DBB2002184F82D1064
:2064200084F82C30127A9A4216D82246294601207AE7BE6805F0CEFAB0470028A2D1AB684D
:20644000002B3FF476AF94F82C300020013384F82D0084F82C3065E70726C8E708F08EF856
:206460006FF0180AAAEB000A04E008F087F81AEB000F02D5C8470028F7D0019B9847002815
:2064800087D1C847002884D17B699847002880D0A96800293FF44DAF94F82C300133002236
:2064A000DBB284F82D2084F82C300A7A9A4203D822462946022037E705F0B4FD0B4BA3FBC2
:2064C0000023C21A03EB52039B08C3EBC303C11A93E70B1D0126DBB206FA03F35E1E86E753
:2064E000DC0F0020B4640100ED620000254992242DE9F04106460E200F4605F0DFFA554B81
:206500001A780546002A6FD0534C2178002940D04A1CD2B289B20720227005F0B5FA012120
:206520000C2005F0B1FA4D4801F056FC044620B918E001F0F9FC0446A0B12946201D01F07E
:206540003FFC03462046002BF3D0606B01F0ACFC072821DD394630460123BDE8F0410622BB
:2065600001F07ABD3E4801F091FD04460028F1D02946201D01F01EFC002304F13000C4E90F
:206580000C30A38501F024FC3448214601F026FCDBE701210222BEE7324801F077FD0546B9
:2065A00088B3314801F072FDA86040B305F0E4FC686000B30620D5F8088005F06DFAC8E9F4
:2065C000006710F0FF000ABF082388F8080088F80830606B294601F001FC606B01F0FCFB46
:2065E00085421ED0BDE8F08101221A7005F01AFD194CC1B28AE7A9681B4801F063FD1948A8
:20660000294601F05FFD606B01F04EFC0028A1D12146124801F02EFC2146114801F052FD42
:2066200098E794F82D30012B0ED91F2505F0FAFC2346B0FBF5F10D4A01FB150104F10C004C
:20664000BDE8F04100F03AB90333DBB201259D40013DEBE7FA360020FB360020F00A0020F0
:2066600058010020640100204C010020ED62000008B5054801F0F8FC044801F0F5FCBDE89E
:206680000840034801F0F0BC640100204C0100205801002010B501210C2005F0F5F9024B1C
:2066A000BDE810405B68184780600100014B9B68184700BF80600100014B1B6A184700BFA5
:2066C000B4640100014B5B6A184700BFB464010010B50D4B82B01B6898470C4B04469B6A02
:2066E00001A91820984701280BD0002C019BB8BF1524802BD4BFC4EB0300C4F1800002B086
:2067000010BD002002B010BD80600100B4640100FFF7EEBE30B50C4C83B0A56A694618200B
:20672000A84738B901A90420A84728B1FFF7A0FF236A984703B030BD0199E36A21F0020147
:20674000019104209847F1E7B464010030B583B005F03AF9032801D103B030BDFFF7A6FF3B
:206760000028F9DB0E2005F0A9F9224901F028FB08B30D2005F0A2F91E4901F021FB0446A3
:206780000028E9D101F00EFC0546C8B1082005F083F90028E0D002238DF804308DF805403F
:2067A00005F00EF9144B8278DB688DF80620032101A89847D0E705F089F90028CCD0D8E739
:2067C00001F016FC082005F067F918B90B4B9B689847C1E702238DF804308DF8055005F0DB
:2067E000EFF8054B8278DB688DF80620032101A89847EBE7DC0F0020B4640100D866010099
:20680000F0B5038883B0054633B14A2B18D188291BD0012003B0F0BD1B4801F0DDFA0446F6
:2068200030B1A168201D00F0ABF92468002CF8D1164B01221A704A2301202B8003B0F0BD75
:2068400000230380032003B0F0BD0F48019201F0C3FA04460028EED0019A031D9A4205D0DB
:206860002468231D002CE6D09A42F9D10648084E214601F0FFFAD4E90523376832600BB1FD
:20688000E06998473760D6E7D00B0020FC3600203418002010B5064B064800241C7001F0BE
:2068A00097FA21460448BDE8104005F03FBA00BFFC360020D00B00207001002070B582610C
:2068C0000D4A0E4D044610782E68E361666130B9A1600B482146BDE8704001F07FBA201D33
:2068E000084B2B6000F04CF92E6021460448BDE8704001F073BA00BFFC3600203418002054
:20690000D00B00207001002070B50C4B1B7804462BB921460A48BDE8704001F05FBA094D40
:20692000094B2E682B60043000F034F92E6021460348BDE8704001F051BA00BFFC360020EF
:20694000D00B0020341800207001002010B50A4B1B7804463BB9C0E9033321460748BDE81A
:20696000104001F087BA043000F036F921460348BDE8104001F07EBAFC360020D00B002025
:2069800038B50C4B1D7804466DB90B4801F024FA38B1A04202D10BE0844209D00068002894
:2069A000FAD1012038BDBDE83840043000F006B9002038BDFC360020D00B002010B5044685
:2069C000C0B20DF0C3F90A2C01D0204610BD0DF08DF9204610BD00BFF8B588B10F46461E3E
:2069E000002500E0013516F8014F20464CB1AF4207D00DF0ABF90A2CF4D10DF077F9F1E7F2
:206A000005460DF073F92846F8BD00BF704700BF10B5FDF72DFC0B4B1A68D2E900319268CA
:206A20000B44191A52B1D2E9003423441B1A9268994228BF1946002AF5D14318024A136021
:206A400010BD00BFD80B0020D40B00202DE9F843038805465BB3592B2CD187292FD0822998
:206A600020D12C4FDFF8B4803C684FF00009CCB1002603E0A3682646A3B11C4620460AF0A0
:206A800003FB0028F6D0E0682246882105F010FA03464046002B2AD005F03CFAA36826461C
:206AA000002BEAD159232B800120BDE8F883194A1360F7E7002303800320BDE8F883154F87
:206AC0003968002019B9EDE789680120D9B1CB689342F9D000B139608B68002BE2D0D86888
:206AE000904207BF9B688B6019469B68F5E7E360A3686EB1B3603B68C4F808902BB1FFF789
:206B000087FF3C68B3E73960CCE7034A1360C9E73B60F1E7D80B0020D40B002080010020DF
:206B200010B50446104805F0F5F91049E3680A684BB142B194420FD0134601E09C420BD05E
:206B40009B68002BFAD10A4BA2601B68E3600C60BDE81040FFF75CBF054B1B68E360BDE8F2
:206B60001040FFF755BF00BF80010020D80B002034180020014805F0CDB900BF80010020C8
:206B800010B504460AF064FA2046BDE81040FFF7C7BF00BF10B504460AF062FA2046BDE888
:206BA0001040FFF7BDBF00BF10B504460AF066FA2046BDE81040FFF7B3BF00BFC068B0FA97
:206BC00080F04009704700BF024B1868003818BF01207047D80B002010B5124B1968814269
:206BE000044614D00B462BB19A68A24206D01346002BF9D10023C4E9023310BDA2689A605A
:206C000049B1FFF705FF0023C4E9023310BD82681A60002AF5D1044B00221A600023C4E99F
:206C2000023310BDD80B0020D40B0020014B1888704700BF3403002000283ED0037A022BB7
:206C400030B410D00378022B15D00379B3B10024C37913F0030318BF012301B10C6002B1CE
:206C6000136030BC7047C579447A037965B90CB9012BF2D0DBB100231C46EEE7447A14F00D
:206C8000030418BF0124E3E7C4B1032D37D1032C2ED0022C24D143BB022D2DD00123032DAC
:206CA00024D1A4F10204B4FA84F46409D5E7023C012C8CBF00240124CFE770474BB9022D56
:206CC00008BF0123EAD1A4F10304B4FA84F46409C3E7032D01D0022D02D123461C46BCE7C4
:206CE000002BC8D1022DDAD1EDE701230024B4E7002BC0D10123D4E701231C46ADE7022D5B
:206D0000C7D1002BF1D1022C4FF00103DBD11C46A3E700BF30B500230B608B80437D0D4695
:206D2000D9075CBF01232B70037E012B83B0044623D901AA694604F11000FFF77DFF009B07
:206D40000BB10223EB70019B0BB102236B70E37D03F00303022B03D0032B14BF00230823F7
:206D6000AB70637E03F00303022B03D0032B14BF002308232B7103B030BDC37D9A0706D0DC
:206D8000437E9B0703D0C28B838B9A4202D000232375CEE701230375CBE700BF02280CBF42
:206DA000012307230B441A78FF2A184603F1FF3303D18142F7D1012070470020704700BF2A
:206DC00000B583B06946FFF7A5FF9DF800309DF801209DF802009DF80310023313440344F5
:206DE0009DF804209DF805000B441344184403B05DF804FB4378827890F800C0DB0012014C
:206E000002F0100203F0080313430CF0070290F803C0134302794FEA4C1C0CF0200C92019D
:206E200043EA0C0302F0400213430B704379827990F809C003F00103520043EA8C1302F002
:206E4000020290F807C01343027A4FEA8C0000F00C001201034302F0300213434B70704707
:206E600030B583B005460C466946FFF753FF214605F11000FFF7BEFF9DF80030012B04BF92
:206E8000AB7EA3709DF801300CBF03220222022B08D1AB8BA354531CA98BDBB2090A023232
:206EA000E154D2B29DF802306BB303F1FF3E1344AE44DBB294460132D2B21EF8011904F870
:206EC0000C109A42F6D19DF80320022A08D1EA8BE2545A1CE98BD2B2090A0233A154DBB253
:206EE0009DF8040088B100F1070C1844AC44C0B21A460133DBB21CF801E904F802E0984227
:206F0000F6D103B030BD1346DDE7184603B030BD02784378C2F3C00002F0070C4870C2F3D3
:206F2000401081F800C0C870C2F3001C03F00100C2F3801281F802C00A71C3F3400CC3F316
:206F400001124871C3F381009B0981F806C0C8710A724B72704700BF012943DD2DE9F041D2
:206F600086B00F4603A914460546FFF7D1FF0B4603CB9DF811201B882061616123836AB3E1
:206F8000AE1C03A802AA01A9FFF756FE9DF81380B8F1000F43D0029B002B31D1B8F1020F65
:206FA000A38367D0B8F1030F4DD09DF81580B8F1000F2CD0019BBBB9A38BE383B8F1020F60
:206FC0004DD0B8F1030F31D0701B3B1A8742C4E90E6300DA002006B0BDE8F081AB78A3760F
:206FE000EE1CCEE700207047727816F8023B03EB0223029A9BB2E383002ADFD1A383DDE7A0
:20700000727816F8023B03EB02239BB2C6E71E4904F1080000F0CEFEA4F81E80D4E71A49B6
:20702000204600F0C7FEA4F81C80BEE706F10800034604F1080213F8011D02F8011BB342DD
:20704000F9D10646C0E706F108000346621E13F8011D02F8011FB342F9D10646A5E70A497E
:2070600004F1080000F0A6FE7378237216F8023B6372A9E70449204600F09CFE7378237094
:2070800016F8023B637090E73064010030B591B004F086FC044604F097FC6A4601462046FC
:2070A000FFF75AFF00283ED0044604F05FFCD0B39DF810100C2004F0E7FC9DF81310082097
:2070C00004F0E2FC9DF817308BB1BDF81C50FFF7ADFD854205D0BDF81C204FF6FF739A42E5
:2070E00021D19DF817006946FFF758FEB0B102A90D2004F0D7FC9DF815303BB14FF6FF717C
:20710000072004F0C1FC204611B030BD9DF81A10072004F0B9FC204611B030BD69460E2003
:2071200004F0C0FCE3E74FF0FF34ECE7F8B505460C2014460E46A84700232074A37496B3B8
:20714000E37463750920A847002701232376A07567740720A847A076FFF768FDE0830A2000
:20716000A84701280CBF3B4603236376FFF75EFDA0830B20A84701281AD066B90323E3756E
:20718000637E022B0CD0E37DA3F10203B3FA83F35B092375F8BD0223E375637E022BF2D1EA
:2071A00001232375F8BD0820A8476675E074C9E7E775E5E730B591B00446FFF737FD4FF661
:2071C000FF7398425DD04022002168460EF068FB2D4B1A7832B36CBB04F078FC01466A462F
:2071E0002A48C9B2FFF7A2FF04F070FC00283DD04FF6FF73ADF800300D2004F05FFC014627
:2072000002A800F0D7FD04F0CBFB0E9004F0DCFB034668460F93FFF7D3FD0546D4B9284638
:2072200011B030BD01221A7004F0FCFE184B1870002CD1D0072004F02FFC0028CCD1144DE1
:207240002978D9B189B2072004F01EFC2B7801332B70C1E704F05AFB98B104F0B1FB014600
:207260006846FFF7FDFD284611B030BD0E2004F025FC0146684600F09DFDBDE70121297033
:20728000E1E74FF0FF35CAE7FD36002099BA0000FE3600200120FFF78DBF00BF0020FFF7D0
:2072A00089BF00BF0649074A074B9B1A03DD043BC858D050FBDC09F0D5FBFAF715F8000023
:2072C000E46901000800002040030020FEE7FEE7FEE7FEE7FEE7FEE7FEE7FEE7FEE7FEE7E3
:2072E00000F01F0301219940C0F3471000F068B808B501F0F1FF00B108BDBDE8084001F075
:20730000B3BF00BF30B583B00223002501F01F018DF8063012F00C03ADF80450144641EA7F
:20732000401508D0042B26D0082B28D00C2B04BF03238DF8043014F0030306D0022B16D004
:20734000012B04BF03238DF805300F4A01A9284601F0CCFF230604D4284602F0C7F803B05E
:2073600030BD0121284602F051F803B030BD01238DF80530E9E701238DF80430DBE7022343
:207380008DF80430D7E700BFE172000001F01F0141EA40101F28CABF054B4FF0A04300F0A6
:2073A0001F00D3F8101521FA00F000F001007047000300500146014800F010BDDC0B002064
:2073C00070B505460C480E4600F006FD90B1044601E0246874B1237AAB42FAD1E36816EAE5
:2073E0000301F6D063682846002BF2D098472468002CF0D170BD00BFDC0B002008B503484A
:2074000000F0E6FCBDE80840FFF772BFDC0B0020EFF3108072B6704780F31088704700BFAD
:207420002DE9F0410DF030FB534A544CDFF8708182FB0032C317C3EB620303EB8303C01AEE
:207440000CF046FE4E4B00220CF0D6FFD4E900230646C8E900230F460DF016FB494B1B78D6
:20746000002B42D0D4E9000132463B460CF0E2FC06460F46C4E900670DF02EF905460CF01E
:2074800027FE02460B46304639460CF0D3FC00223D4B0CF087FE0DF01FF9294602463B48F4
:2074A00004F074FB3A4B1D78022D45D011D8042000F0A4FA022000F0A1FA022000F0CAFAED
:2074C000D4E90023D8E900010DF0D4F860B3BDE8F081032DF4D1042000F090FA022000F073
:2074E0008DFA042000F0B6FAEAE705460DF0CCFA284A034682FB03C1C017C0EB61106421EE
:2075000001FB1033272BCDDC82FB0532EB17C3EB621201FB1252222A18DC132A21DDD4E9C1
:20752000006730463946A7E71B4804F003FDBDE8F0411A48FDF7BCBB042000F05FFA28468C
:2075400000F05CFA042000F085FAB0E7D4E90023304639460CF070FC06460F46C4E90067C9
:20756000DFE7D4E9000132463B460CF063FC06460F46C4E90067D4E7676666660800002002
:2075800000002E40FF360020000024408C600100360300201F85EB51A460010090010020E8
:2075A0001000002030B583B00D46002301A90193FEF732FD00283BD0019C3C4920460EF0F2
:2075C000AFF9034640B33A4920460EF0A9F9002847D0384920460EF0A3F900284ED03649B9
:2075E00020460EF09DF900282FD0344920460EF097F900284ED0324920460EF091F9034601
:20760000B0B9304C304A31493148237004F0BEFA304804F08FFC09E02F4C2B4A2B492C4821
:20762000237004F0B3FA2D4804F084FC03B030BD2B4804F07FFC01992A4804F0A7FA802169
:207640002846FEF761FC03B030BD234B1E4A1F491F4803241C7004F099FA234804F06AFC26
:20766000E4E71D4B184A1949194801241C7004F08DFA1E4804F05EFC03B030BD164B124A75
:207680001249134802241C7004F080FA184804F051FCCBE70B4B0C4A0C490D4801241C70BA
:2076A00004F074FA134804F045FCBFE7D06001002C61010080610100B8610100F061010025
:2076C0001C620100FF360020F8600100485F0100505F01003062010036030020FC600100DC
:2076E0004862010060620100DC61010050610100A4610100086201002DE9F04F2A4DDFF818
:20770000BCB08DB0D5E900230C4604A8274908F00FFCD5E90089494640460CF0DDFF244BCB
:20772000D3E900678246394630460CF0D5FF054650460CF0CDFC02460B46404649460CF049
:2077400079FB1C4B00220CF02DFD0CF0C5FF804628460CF0BDFC02460B46304639460CF0D3
:2077600069FB144B00220CF01DFD0CF0B5FF43465246019010490095584608F0D9FB322101
:207780002046FEF7D3FB03A901222046FEF7D6FB58460EF0CFF8594602462046FEF748FCDC
:2077A0000DB0BDE8F08F00BF080000206C620100100000200000244070620100E00B0020C0
:2077C00070B5038884B004460D46B3B1543B98B21C286CD81C2B6AD8DFE803F019696969CC
:2077E00069696969696969696969696943694F69696969696969696980004B488021FFF747
:20780000BFF94A4B1B78002B78D1542323804648FFF7D4F900284FD1002004B070BD04F06C
:20782000B5F9434804F086FB424A43481521FDF7F7FD0222414833463146FDF77FFF404BCB
:207840003E481968FEF796FB32213C48FEF76EFB21223C493948FEF7EBFB3B4A642396841C
:2078600023803A490091354B324A37482946FCF711FD0128D0D9662323803548FFF79EF95E
:207880000028C9D0334B344A1E7834493448002EC5D004F07BF9334804F04CFB32493348C5
:2078A000FCF7E0FF32488021FFF76AF918E000230320238004B070BD2E4B5B6A9847264A33
:2078C000264990B9264804F061F92B4804F032FB1548FFF75FF9154B1B7894E7882D16D0EC
:2078E00070230120238004B070BD1D4804F04EF9224804F01FFB0D4B01221A70164A174973
:20790000174804F043F91E4804F014FBBAE7184B9A42E5D1154B03921B6A9847039A802142
