:020000040000FA
:201000000000042051550000795500007B5500007D5500007F5500008155000000000000EC
:20102000000000000000000000000000835500008555000000000000875500008955000044
:20104000E9760000C56C000049F700008B5500008B5500008B550000857300008B55000048
:20106000E1C600008B5500008B550000FD7700008B550000F97600008B5500008B55000086
:20108000499800008B5500008B5500008B5500008B5500008B5500008B5500008B5500004F
:2010A0008B5500008B5500008B5500008B5500008B5500008B5500000000000000000000F0
:2010C0008B5500008B5500008B5500008B5500008B5500008B5500008B5500004D90000013
:2010E0008B5500008B5500008B55000000000000000000008B550000000000008B55000090
:201100000000000000000000000000000000000000000000000000000000000000000000CF
:201120000000000000000000000000000000000000000000000000000000000000000000AF
:2011400000000000000000000000000000000000000000000000000000000000000000008F
:2011600000000000000000000000000000000000000000000000000000000000000000006F
:2011800000000000000000000000000000000000000000000000000000000000000000004F
:2011A00000000000000000000000000000000000000000000000000000000000000000002F
:2011C00000000000000000000000000000000000000000000000000000000000000000000F
:2011E0000000000000000000000000000000000000000000000000000000000000000000EF
:2012000010B5054C237833B9044B13B10448AFF300800123237010BDE80200200000000022
:20122000703501000C4B43B10C480D4910B5AFF300800C48036823B910BD0A48036833B91B
:201240007047094B002BF7D0BDE810401847064B002BF5D0184700BF000000007035010038
:20126000EC020020E402002000000000154B002B08BF134B9D46A3F5803A00218B460F462E
:201280001348144A121A11F0F5FB0F4B002B00D098470E4B002B00D09847002000210400CC
:2012A0000D000D48002802D00C48AFF3008000F02BF82000290003F04FF800F011F800BF0E
:2012C00000000800000004200000000000000000E80200204C350020000000000000000037
:2012E00008B5074B044613B10021AFF30080054B1868836A03B19847204600F029F800BF08
:2013000000000000682B010070B50D4E0D4CA41BA4100025A54209D10B4E0C4C11F018FC41
:20132000A41BA4100025A54205D170BD56F8253098470135EEE756F8253098470135F2E70D
:20134000DC020020DC020020DC020020E0020020FEE700BF00B585B000230390194601AA43
:2013600044F201000193029300F004F805B05DF804FB00BF72B6094B1B68DB0700D500BEE5
:20138000BFF34F8F0649074BCA6802F4E0621343CB60BFF34F8F00BFFDE700BFF0ED00E082
:2013A00000ED00E00400FA050378052B02D0094B1B681847084BD3F88424D3F8803413F062
:2013C000FF0FF4D1054BD2B2052A08BF1846014B1B6818470403002000700240842B01005B
:2013E000014B02481B68184704030020882B010001280BD006D3022803D1064B06481B689D
:2014000018477047034B05481B681847014B04481B68184704030020802B0100782B010048
:201420007C2B01002DE9F04F87B006AE00250446894692469B4646F8105DA84601E008F15A
:201440000108626801235568214600223046A8470028F4D18DF806000490B8F1000F28D02E
:201460000546064662680123576821460DF1060204A8B84762680123576821460DF10702F5
:2014800004A8B8479DF807304B454FF00002214604A803D1AA4510D00135EDB29DF80630AE
:2014A0006768023B7F68B8479DF806301E44B045D8D8052007B0BDE8F08F109A9DF80630F3
:2014C00013608BF800308BF801906168023B4D680BF102022146A847002007B0BDE8F08FC6
:2014E0002DE9F041054682B03A4807F0D9F8044618B1204602B0BDE8F081374A374B384E14
:20150000147021464822374834601C6011F0B2FA21464822344811F0ADFA002D54D095E877
:201520000700324B83E8070000284AD0002005F0B7FC18B1852801D0FFF70CFF2C4EDFF812
:20154000A8E096F808807768DFF898C0032303FB086808F1090806F10901414521D001B315
:201560004D78DDB18C780B1918BF012202D115E0CB1813D01B7813F0800F03F00F0314BF6B
:201580000CEBC3030EEBC3031E6038685860D0B2A84202EB040302F10102E9D3033141452D
:2015A000DDD102A90B2301F8043D11483B689847044600289DD007F0BBF8204602B0BDE849
:2015C000F0810C4A1A60B1E7084B0A4A5D601D721A60ABE7A9130000F9280020A40300206F
:2015E000A0030020100300205803002004030020B42B0100AD19000010B507F0AFF908B988
:20160000082010BD07F0B2F904460028F8D1044805F05CFC00B910BDFFF79CFE204610BD16
:20162000742B010007F08EB807F07ABF4FF0804303E0D3F83824D10707D5D3F8382492071D
:20164000F7D5024B02481B6818477047040300208C2B010000B583B002A8822300F8043D3F
:20166000024B1B68984703B05DF804FB04030020F0B590F808E0354D354F032606FB0E0634
:2016800000F1090C093661468E4283B01AD0D1B14C78002211E08B781344D9420FD0CB5C9D
:2016A00013F0800F03F00F0314BF07EBC30305EBC30301321B68002B34D1A242EBD1033198
:2016C0008E42E4D10021214C214DCAB272452CD202EB42021CEB020227D0537803B3937899
:2016E000D31818BF012705D11AE093783B44D31814D037461B7813F0800F03F00F0314BF5D
:2017000005EBC30304EBC3031860466836685E6092F801E07B1CBE45DEB2E6D890F808E019
:201720000131D2E7112003B0F0BD0A4A13681BB11A681368002BFBD102A910600B2201F85D
:20174000042D43681B689847EDE700BF5803002010030020A0030020024B1878003018BF63
:2017600001207047F828002000F00F03072B10B5044604D807F09AFA204607F0C7FD204620
:20178000BDE8104007F06ABD07F0A6BF014B1868704700BFA003002070B4114B1E68A6B178
:2017A000357A75B1737A834206F1090210D0002303E012F8034F84420BD00133DBB29D421D
:2017C000F7D133681E68002EEAD1304670BC704700230029F9D030460B7070BC704700BF36
:2017E000A0030020436811461B68184700F00F03082B01D91020704702064CBF044A054A9C
:2018000002EBC30318680028F4D043681B681847100300205803002038B5094B1C6805465E
:201820001CB90AE023681C683CB1636829461B68204698470628F5D038BD062038BD00BF29
:20184000A003002038B50D46044607F0FDF808B9082038BD044B1B78022BF9D129462046C3
:20186000BDE8384007F000B9F928002038B50D46044607F0E9F808B9082038BD044B1B7838
:20188000022BF9D129462046BDE8384007F082B9F928002070B543689B6804460E46154620
:2018A0001BB19847062800D070BD0DB1072070BD237AB34217D906EB4606093434446678EE
:2018C0009EB12B46324609E0A37862190135D05CFFF74AFFEBB2B34207D262789A42F3D8C4
:2018E00000231B78FFDE6B78FFDE002070BD00BF70B54368DB6804460D4603B19847237AA9
:20190000AB4219D9093405EB450525446E7896B100242346324609E0AB782A190134D05C26
:2019200007F0DAFEE3B29E4205D96A789A42F3D800231B78FFDE70BD00235B78FFDE00BFAA
:2019400043681B6903B118471846704770B50A4B1D6885B12E7A4EB1002421460134002272
:201960002846FFF797FFE1B2B142F7D32B681D68002DEFD170BD70BDA003002070B50A4B81
:201980001D687DB12E7A46B10024214601342846FFF7AEFFE1B2B142F8D32B681D68002D8E
:2019A000F0D170BD70BD00BFA003002070B503780446852B00F28D80DFE813F00402B6016A
:2019C0008C0020024E02B100B8008B00D100E400F7008B008B008B008B0019018B008B000D
:2019E0008B008B008B008B008B008B008B008B008B008B008B008B008B008B008B008B0037
:201A00008B008B008B008B008B008B008B008B008B008B008B008B008B008B008B008B0016
:201A20008B008B008B008B008B008B008B008B008B008B008B008B008B008B008B008B00F6
:201A40008B008B008B008B008B008B008B008B008B008B008B008B008B008B008B008B00D6
:201A60008B008B008B008B008B008B008B008B008B008B008B008B008B008B008B008B00B6
:201A80008B008B008B008B008B008B008B008B008B008B008B008B008B008B008B008B0096
:201AA0008B008B008B008B008B008B008B008B008B008B008B008B008B008B000A012D0153
:201AC00065018600E701B1008E4D2B78032B00F00B8270BD8B4D2A78931EDBB2062B05D865
:201AE0008949CB5C13B105F0C7F92A78022A00F0EE81082A00F0EB81844B5B6803222A7068
:201B00000BB102209847824B1D6845B16B6828461B68214698472B681D68002DF6D17D4BE2
:201B2000214693E80500BDE870401047827813064CBF794B774B02F00F0203EBC20393E83D
:201B40000500214690470028C3D0A07800F00F03013B062BBDD8BDE8704007F079B86B4B38
:201B60005B680BB108209847694B1D68002DB0D06B6828461B68214698472B681D68002DAA
:201B8000F6D170BD614B5B680BB109209847604B1D68002D9DD06B6828461B68214698474A
:201BA0002B681D68002DF6D170BD584B5B680BB10A209847564B1D68002D8AD06B682846D3
:201BC0001B68214698472B681D68002DF6D170BD4C4C2378062B00F08081072B02D0052B7A
:201BE0007FF477AF06F010FF0223237070BD474B5B680BB10F209847454B1D68002D3FF4CE
:201C000068AF6B6828461B68214698472B681D68002DF6D170BD3F4B404993E80500904700
:201C20003B4B1C684CB13D4D636820461B682946984723681C68002CF6D1344C63680BB108
:201C40000D209847FFF79AFE01F03AFB344B1B68002B00F0478101202A4D06F04DFE2A7864
:201C6000931EDBB2062B05D82749CB5C13B105F003F92A78022A00F06981082A00F066811B
:201C800001232B7070BD1F4DFFF778FE07F03CFC2A78931EDBB2062B05D81B49CB5C13B114
:201CA00005F0EAF82A78022A00F01481082A00F01181174B1C6800232B704CB1194E636873
:201CC00020461B683146984723681C68002CF6D1104B144993E8050090470C4B5B680BB1DE
:201CE0000E2098472B78023BDBB2062B3FF6F1AE054AD35C002B3FF4ECAEBDE8704005F0A5
:201D0000BBB800BFF92800206C2B010004030020A00300205803002010030020902B010064
:201D2000A4030020942B0100984DFFF727FE01F0BDFA2A78931EDBB2062B00F2BB80944959
:201D4000CB5C002B00F0B680022A03D0082A01D006F05AFE8F4B5B6802222A700BB1012083
:201D600098478D4B214693E8050090478B4B1D68002D3FF4AEAE6B6828461B6821469847CD
:201D80002B681D68002DF6D170BD804D2B78032B00F0C58006F0F4FD00283FF49AAE2A780B
:201DA000931EDBB2062B40F2E5807D4805F036F82A78022A00F0D680082A00F0D380062383
:201DC0002B7070BD714B1B78032B00F0A480082B00F0A1806F4B5B680BB100209847714B72
:201DE0001D68002D3FF475AE6B6828461B68214698472B685D68002DF6D170BD634D2B7805
:201E0000082B5FD09A1ED2B2062A40F2A580644805F004F82B78022B00F09B80082B00F002
:201E2000988005232B705B4B5B680BB103209847594B214693E805009047584B1D68002DE9
:201E40003FF447AE6B6828461B68214698472B681D68002DF6D170BD4E4B5B680BB10320DC
:201E600098474D4B504993E8050090474B4B1C684CB14D4D636820461B68294698472368BD
:201E80001C68002CF6D1414D2B78062B17D0082B0DD09A1ED2B2062A67D9414804F0BEFF8C
:201EA0002B78022B03D0082B01D006F0ADFD02232B7070BD3A4804F0B1FF2A7844E70723D1
:201EC0002B7070BD02232B7006F0A8FDABE706F091FD11E606F08EFDEBE606F095FD0823CD
:201EE000237070BD207AB7E607F04AFB00283FF4F0AD2A78931EDBB2062B05D82449CB5C35
:201F000013B104F0B9FF2A78022A39D0082A37D004232B7070BD2548FFF748FD5AE707F072
:201F20002FFB00283FF436AF2A78931EDBB2062B05D81749CB5C13B104F09EFF2A78022A9F
:201F400021D0082A1FD004232B7023E706F052FD96E606F04FFD64E70D498A5C002A7FF47C
:201F60005AAF54E706F046FD29E709498A5C002A97D192E70649CB5C002B7FF41AAF14E7B9
:201F800006F038FDC4E706F035FDDCE7F92800206C2B01000403002058030020A003002042
:201FA0006C000020A40300209C2B0100982B01004360CA69934205D901F1280202608B6749
:201FC000002070478A6902600B67CB6100207047F0B50468C04E0D7A3570B4F5517F00F0AC
:201FE000708358D940F25635AC4200F0C28300F2ED80B4F5537F00F0AF8340F2778140F285
:202000005135AC4200F0D98300F20C8240F24F35AC4200F04C84B4F5547F40F001830124C7
:202020000027002A00F078850579D555A3424FF00205057140F243842F4604F1010E022580
:2020400073451755057140F215840EF1010402F80E50A3424FF00505057140F23A842F46B6
:2020600004F1010E242573451755057140F21A840EF1010402F80E50A3424FF006050571A8
:2020800040F22284671C15559F420D7D057180F08F837C1CBBE140F2263E744500F03E83E4
:2020A00044D840F2163E744500F0138340F26B8140F2193E744500F0CE8300F2578240F2A1
:2020C0001737BC4200F05D83B4F5467F40F0A882002A00F0BB8505794FF0010E00270024AB
:2020E0007345D555047140F2178435780EF1010702F80E40DFF8ECE100248EF80040A5424B
:2021000040F2F9830924BB42047140F28E847D1C002A00F04A850479D455AB424FF00404D2
:20212000047140F2528405F1010E2FE240F23335AC4200F0D982B4F54D7FC0F08280B4F569
:202140004F7F00F0858340F2628240F24235AC4200F0558200F2248340F24135AC4240F0E6
:202160005F8201240027002A00F096840579D555A3424FF02405057140F24984AE46671C1D
:202180000025BB4202F804E0057140F2198407F1010E10247345D555047140F2FE8325464A
:2021A0000EF101070124BB4202F80E50047140F2E583254607EB040E05247345D5550471A0
:2021C00040F2CD8325460EF10107A6E040F27235AC4200F0C98240F2058140F28335AC42F3
:2021E00000F0B082B4F5617FC0F03C8240F28935AC4200F0FC8140F28E35AC4200F0F78130
:20220000B4F5617F40F00C82002A00F03B840479012700255455314C0D7D24682478A54215
:2022200000F0C0838D7DA54200F0F683DFF8B8E02B4D9EF800402D780134E4B28EF800401E
:202240003DE0B4F54B7F00F0C08200F2FD8040F22735AC4200F00783B4F54A7F40F0E08154
:20226000002A00F01D851D4C90F804E025680027012402F807E02D780F7DAF4200F0C083BE
:202280008F7DAF4200F0F2830025A342057140F2E481671C0AB105791555104C91F814E0C6
:2022A00024682578AE4500F0F681DFF834C0DFF838E065788CF8005000248EF80040AC4258
:2022C000C0F0B281DFF81CE035789EF800400134E4B28EF8004012E7FC280020A80300202C
:2022E000FA280020FB280020FD28002040F24935AC4200F0F38200F2298140F24535AC42DB
:2023000000F08382B4F5527F40F08A81002A00F0AF84057901274FF0000E2424BB4202F894
:202320000E50047140F20C83254607F1010E01247345D555047140F2FE8225460EEB0407FA
:202340000324BB4202F80E50047140F2EF827D1CD455AB428F7D077140F2D98205F1010E24
:20236000042473455755047140F2C08225460EF101072424BB4202F80E50047140F2408270
:2023800025467C1C51E640F21337BC4200F0B882B4F5457F6AD2002C00F0478240F2123756
:2023A000BC4240F03D81002A00F0128404791470012B4FF00B04047140F2F283022501279B
:2023C000D4559D420F7D077180F0E28205F1010E022473455755047140F2CB8225460EF130
:2023E000010751E040F25935AC4200F0488268D840F25735AC4200F0CC81B4F5567F40F065
:202400000F8101240027002A00F0AC830579D5559C428D7D057180F03982671C1555CB4C62
:20242000246842E740F25235AC4200F0088240F25535AC4240F0F480002A00F03884077922
:202440004FF0010E00240DE640F22D35AC4200F0228240F22E35AC4240F0E280002A00F0D2
:20246000198400270579D55501240DE700F0D58140F21537BC4240F0D380002A00F0FE83F7
:20248000057901274FF0000E0224BB4202F80E50047140F25F82254607F1010E02247345F6
:2024A000D555047140F251820EF1010702F80E40BB424C7E047140F23482254607F1010E93
:2024C0000DE640F26D35AC4200F0978140F26E35AC4240F0A580002A00F0E78304790127FE
:2024E00000255455994D9A4C2D68247895F801E0A64540F2AA8095F802E02C449F4214F890
:202500000E40047180F0D8807C1C1AB190F804E002F807E02D780F7DAF4200F05B828F7D85
:20252000AF4200F08C824025A342057140F2A980651C002A00F08E8207791755AB424FF0CE
:202540000004047140F2A2806F1C63E640F24A35AC4200F0E78040F24B35AC4260D1002AE9
:2025600000F08883047901250027F1E6B4F5487F00F0B7802F4640F22135AC4250D1002AF2
:2025800000F08B8304794FF0010E002554550F7A704C2478A7425BD904EB440501F109046F
:2025A0006A4F14F805C080F804C02C4473453C6040F201820EF10104002A00F0DD820579E1
:2025C00002F80E50A3424FF00005057140F2DB81671CDFF878E11555DEF80050BB4295F8A9
:2025E00001E080F804E040F2BF817C1C41E601270024002A3FF41AAE0579155516E6002AEE
:2026000000F02E8390F804E001270024B8E5B4F54D7F00F08F8040F23535AC423FF41EAFC6
:20262000002303601846F0BD0724BB42047139D97D1C002A00F029820479D4559D424FF038
:202640000504047133D26F1C4BE700231B78FFDE3E4A002313601B78FFDE4FF44F730360B1
:202660000120F0BD40F27735AC4202D0B4F55F7FD6D101240025002A3FF455AF07795755E9
:2026800051E740F2833303600120F0BD4FF4617303600120F0BD0524BB42047140F2ED8166
:2026A0007C1C60E540F26D3303600120F0BD40F26E3303600120F0BD40F2723303600120DB
:2026C000F0BD002A00F0CA82057901274FF0000E68E5002A00F0BC8205794FF0010E00275C
:2026E000DCE60125002713E501250024002A00F07981077917554FF0000EAB4280F804E0F3
:2027000040F2AF816F1C0024BB4202F805E0047140F271812546D5557C1CB5E501244FF008
:20272000000E49E7002A00F0AD82057901274FF0000E05E6002A00F0A78290F804E001275D
:202740000025E0E701250024F3E600BFA8030020FD280020FB280020002A00F08D820779AF
:202760004FF0010E0025FBE5B94C002725680124CBE601244FF0000E002A00F0E781057905
:2027800078E4002A00F06682047901274FF0000E8CE6002A00F0948205790127002472E427
:2027A000002A00F05F8205794FF0010E0027F0E44FF4567303600120F0BD002A00F0798205
:2027C00007794FF0010E002439E401250024002A00F0298207791755AB424FF00204047148
:2027E00040F228816F1C5455BB424C7E047191D840F22E3303600120F0BD0125002718E715
:202800004FF4547303600120F0BD002A00F0388205794FF0010E0027CEE4002A00F01C824C
:2028200007794FF0010E0025D2E508240471002B7FF4B9AD40F2123303600120F0BD01247C
:202840004FF0000E002A00F074810579FFF7FFBB012700241EE5002A00F08B8104790127D4
:202860004FF0000E44E4002A00F00082057901270024AEE640F2523303600120F0BD002AD7
:2028800000F01B82057901270024C7E540F2593303600120F0BD002A00F0E6810479012720
:2028A0000025A0E740F2563303600120F0BD002A00F00182057901274FF0000E59E540F280
:2028C000513303600120F0BD40F2573303600120F0BD40F2553303600120F0BD002A00F051
:2028E000D78105794FF0010E002720E540F24F3303600120F0BD40F2993303600120F0BD74
:20290000002A00F0C38104790125002758E54FF4537303600120F0BD40F219330360012016
:20292000F0BD4FF4467303600120F0BD40F24B3303600120F0BD40F24A3303600120F0BDFC
:2029400040F2493303600120F0BD40F2173303600120F0BD40F2163303600120F0BD4FF4FC
:20296000527303600120F0BD4FF44A7303600120F0BD40F2153303600120F0BD40F24533DB
:2029800003600120F0BD40F2273303600120F0BD4FF4457303600120F0BD4FF451730360B3
:2029A0000120F0BD0C6ABB422478047140F2F3803C4601371DE640F2263303600120F0BDA7
:2029C00040F2433303600120F0BD40F2213303600120F0BD0325A342057140F2EF802546D8
:2029E000013448E6AB4202713BD96C1C0025A342057100F2238140F2353303600120F0BD97
:202A00000225A342057140F2DE80651CDFE640F2423303600120F0BD0024BB420471C7D851
:202A200040F28E3303600120F0BD4FF4487303600120F0BD40F22D3303600120F0BD022559
:202A4000A3420571CBD84FF45F7303600120F0BDA8030020AB4202717FF618AE6F1CFFF74B
:202A6000DABB4FF44D7303600120F0BD0A25A342057140F2E680651C38E640F241330360C3
:202A80000120F0BD0127FFF7C6BB05249D420471BFF40DAE6F1C25E52425A3420571B6D916
:202AA00001340025A34205718AD901341025A34205717FF672AF01340125A34205717FF678
:202AC0005DAF2C440525A34205717FF648AF01342425A34205717FF633AF01340125A34219
:202AE00005717FF628AF2C440325A34205717FF61DAF01348D7D0571A3427FF608AF0134E5
:202B00000425A34205717FF6F1AE671C2425BB4205717FF675AE02340225A34205717FF619
:202B2000CEAE04F1010E0225734505717FF6A2AE2C4405259C420571BFF4CBAE04F1010EDD
:202B40002425734505717FF6ADAE02340625A34205717FF6B9AE671C0D7D0571BB427FF6A1
:202B600027AE02348D7D05719C42BFF48FAE671C55E40127FFF7BEBAA34202717FF603AF2B
:202B80000134504D2D68A3426F7807717FF6ECAE0134FFF770BB40F2893303600120F0BD06
:202BA00040F2133303600120F0BD0424AB4204717FF60BAF05F1010E0F7AE9E440F277337C
:202BC00003600120F0BD4FF44B7303600120F0BD0B24012B0471E3D902240F7D0771A342F7
:202BE0007FF6D6AE01340227A34207717FF6C1AE01340227A34207717FF6ACAE0134022755
:202C0000A34207717FF6A1AE01344F7E0771A3427FF687AE01340027A34207717FF67CAE32
:202C2000671CFFF767BA0224AB4204717FF602AF6C1C4D7E0571A3427FF6DAAD0134FFF777
:202C400023BB40F2333303600120F0BD0124E2E70124D4E70124D8E70124C4E701242BE714
:202C600001241EE7012421E70124E2E7012488E701242DE701243DE7012441E70124B8E7E8
:202C800001241FE701242FE70124AFE60124A4E7012423E70124FFF7F7BA4FF0010E77E4C0
:202CA000084D01242D68FFF7E6BA01271AE4144644E7144635E7002427E70127FFF7AFBB94
:202CC000002448E7A80300204360CA69934205D901F12802026000208B6770478A6910B44F
:202CE0000260C8698C690A6FC01A1C441A44C86100308C6118BF01200A675DF8044B704731
:202D000008B1032070470B681A7B202A01D00620704710B41A4603F1180152F80E4F9C614B
:202D2000938892798A718B805DF8044B704700BF2DE9F0430B7889B00D4606460E2B43D855
:202D4000DFE803F03D083D3D421A47424208423D3D3D3D000368002403F134025A671C847B
:202D60005C62DC629C67DC67C3F88040C3F88440204609B0BDE8F0834B78DA0940F09680F4
:202D80005B09012B20D18B780768202B6CD0222B1AD1B1F80730BBB9B1F8033097F8202082
:202DA0003B8402F0010203F001039A4299B206D0002900F03581C3690BB10221984700248E
:202DC000204609B0BDE8F0830624204609B0BDE8F083037A89788BB1827A093082B1F27ACD
:202DE000825C8A42EBD00A0674D4EA78012AE6D008D3032AE3D00324BAE700235B78FFDE7D
:202E00001378FFDE3568012B05F10C00F5D9727B012A06F10C0365D9B27B9749069005911C
:202E20001344AA6A93F80190002A5ED1EB6AE96FAA67C5F88010EA67002B00F0D58005F1F0
:202E40002C0393E8030005F1240383E803004846EA6205A9FEF70AFD0446F369002B87D08E
:202E600030460021984783E7B1F80720072AABD13B73B1F807300024DBB27B7320460E371D
:202E800006930794059701F019F8204605A9FEF7D9FC044630B9794B049603A9039300F0BF
:202EA000FFFC0446002001F011F861E7C3F34112002A6FD0012A87D18B78212B84D1B1F829
:202EC0000720072A80D10168681C183100F002FA04464DE7EC78002C7ED0032C0CBF0024AD
:202EE000032445E700231B78FFDED5F88440686A05F1340EA24228BF2246714690467746D4
:202F00000FF0CFFDEA6FE96AA4EB080307EB080E42440020AB67C5F874E0C5F88020E86723
:202F200000297BD005F12C0797E8030005F124044FF0000884E80300C5F82C80002B56D0E4
:202F4000AA6A9A420ED95BE097E8030084E80300AB6FC5F82C80002B49D0AA6A9A424FD890
:202F6000D5F874E0686A71460FF09BFDA96AAA6F6B6FC5F880100B44521AAA676B67F369C3
:202F800013B1002130469847EB6A002BDCD16B62002462E703F01F03012B7FF415AF8C7814
:202FA000062C7FF411AF05A8039200F08DFC0DF10C0E0746EA782979CDF800E030463B46EC
:202FC000FEF730FA05283FF4D3AE3946681C039A00F080F90446CBE6F369002B3FF4EFAE96
:202FE000304601219847C3E600246C6235E76B6A002BCDD0484605A9FEF738FC04462CE744
:203000001A46696F686A0FF04CFDA96FAA6A6B6AE967521A0B44AA626B62E9E70023B6E7E9
:20302000C3690BB103219847337A012B7FF6E5AE737B06F10C04002B3FF455AFB37BE05C03
:2030400006F0C8FA337A012B7FF6D7AE737B012B7FF648AFB37B1C44607806F0BBFA00242A
:2030600007F134037C62FC62BC67FC67C7F88040C7F884407B677BE6C92C0000012D0000F7
:2030800003681B8CDB0701D408207047037A012B16D910B5437B84B000F10C040BB91B78E1
:2030A000FFDE0B46817B605C019391060CBF0124002401A902920394FEF7C4FB04B010BDE1
:2030C00000235B78FFDE00BF0368D3F880007047F0B50468238CDB0783B003D408242046B3
:2030E00003B0F0BD0546002016460F4600F0E6FEA26F42B9636AC3B11124002000F0E6FE0A
:20310000204603B0F0BD964228BF16463246616F38460FF0C6FCA36F626FC4F880609B1B12
:203120003244A36762670024E7E76762A6622A7A012A13D9697B012905F10C0210D9AB7BA7
:203140000849009113440C34587801946946FEF78DFB002814BF04469224CEE75B78FFDE05
:203160001B78FFDEB11F0000002070472DE9F04F4B6887B0002B7DD00C46154603920290AD
:2031800005F062FDE668AE4228BF2E468346002E00F087804FF0000A5746D1464FF001080F
:2031A000CDF804A0A3686168B3429A4628BFB24601B352460BEB07000FF073FCA268E36812
:2031C000C4F80490A2EB0A02A3EB0A03A6EB0A065744A260E3607AB1002B08BF4FF0000886
:2031E000002EDFD1029AC2F800B05760404607B0BDE8F08F2BBBE368019A22B95BB998463A
:20320000002ECFD1EEE7226812681268226001220192002BF3D02168002939D0CDF8109047
:2032200003E0A36821680133A3604B6800225D6804A80123A8470028F3D12061002EB1D16A
:20324000D0E72046534650F8101B4A6855680BEB0702A847A268E368A2EB0A02A3EB0A035F
:20326000A6EB0A065744A260E360002ACBD001220192B1E70B681B681B68002B7FF47CAF78
:203280008B68002B7FF478AF036043609846ADE76160002FA6D0039BBB4288BF4FF000086F
:2032A000A0E737464FF001089CE700BF08B50020FEF75AFA8020BDE80840FEF755BA00BF0A
:2032C00008B50020FEF760FA8020BDE80840FEF75BBA00BF70B5C38893421D4628BF154682
:2032E000934284B00E461FD80022002003920196029500F0E3FD01A98020FEF7A3FA04467F
:2033000028B1002000F0E2FD204604B070BD05F075FD802818BF1024F3D1094A094B92E89F
:20332000030083E80300ECE78020144605F07CFBB4FBF0F303FB1042B2FA82F25209D4E7CB
:20334000FC2B0100D00300202DE9F04F0B78062B87B07CD010D90D2B69D02AD80B2B06D05E
:203360000C2B2FD1A54A1378002B40F08E800024204607B0BDE8F08F022BF8D045D9032B8D
:2033800025D0052B1ED10DF10D008DF80C3005F09DFC9DF80D209A4D002102F01F03296058
:2033A000032B00F2AF80DFE813F0B100CA00A50096000E2B19D0852B04D1904B1A78032AFD
:2033C00000F0EF800624204607B0BDE8F08F8D4803F0ACFC0028CAD08B4B01221A60BFF3CC
:2033E0006F8FBFF34F8F0024C2E7844B1A78012ABDD0864986480A78012422F002021C7073
:203400000A700024FEF7D2FAB2E7012BDAD17B4B1A78032AD6D07D497D480A78032422F06C
:2034200002021C700A700624FEF7C0FAA0E74FF08043D3F8383413F0010F704B1A7821D098
:20344000022A94D0714972480A780224D5E7C87803280D46B6D06A4E3368002B00F093803F
:203460000022326071689847044600284BD13368002B00F08A80AB78002B7FF478AF05F0B5
:2034800047FC75E7012AB4D171E7604C60482178002321F00201217013701C46FEF786FA76
:2034A00066E79DF80E10062900F0EA80082900F0D58081B9554A574B12781980900744BFD5
:2034C00002221A700DF10D0002225249FFF702FF0446062C03D103A8FEF79EF9044694B95F
:2034E0002C68002C5AD005F089FC044600287FF43EAFC4E79DF81100010759D112F0600FA2
:2035000000F08E80062405F06FFC31E7C2F34114002CE0D1D209C4D19DF80E30032B50D093
:20352000092B5CD0012BD6D1BDF80F30012BD2D1FEF712F9002840F067810F24E3E701A9AE
:203540009DF81100FEF728F9064678B303AA9DF80410FEF747F906280446C0D19DF80D30D2
:2035600013F0600FCFD1254A9DF804101278DF099DF80E3040F0C1800B2BC4D1052A00F081
:2035800049810824BFE70E24BDE7234B1B68082B04D1224B1B68002B3FF4E9AE05F01AFCD0
:2035A000E6E61A491A480A78042438E71024AAE703A9FEF71BF90628044690D19DF80D209C
:2035C0009CE7BDF80F30012B85D1FEF7C5F80028B3D00E4A137843F00203137080E7074C3D
:2035E0002378043B012BCCD89DF80F30002B00F03481012B00F02581072484E7FE280020DF
:20360000D0030020D80300205C700240FF280020C42B0100DC0300203001001034010010F2
:203620009DF80E20954B9DF811401B78012A3DD052D3032A7FF466AF04F00F02072A3FF6F1
:2036400061AFBDF80F1000297FF45CAF052B01D0002A96D1204605F0FBFA41E78749097884
:20366000052900F0CE8004297FF435AF844A14700DF10D0001228249FFF72CFE044628E796
:203680009DF81020022A62D0032A4AD0012A7FF422AFBDF81330002B3FF422AF0DF10D001F
:2036A00012227849FFF716FE044612E704F00F02072A3FF627AFBDF80F1000297FF422AF46
:2036C000052B02D0002A7FF45CAF204605F0EEFA204605F01BFE03E7052B02D023077FF400
:2036E00050AF204605F0C0FA6549022208800DF10D00FFF7EFFD0446F1E6002B74D00A2BAA
:203700007FF401AF052A7FF43CAF3046FEF718F95B493A4608700DF10D00FFF7DBFD0446BE
:20372000DDE6BDF81330002B3FF4DAAEBDF811109DF80F0000F0B0FB014600283FF4CBAEB8
:203740000DF10D000A78FFF7C5FD0446C1E6BDF81320002A3FF4C4AE092A28BF0922914660
:20376000FEF714F8A34606464FF0090AAEB1CDF804B0002700E0013772680123D2F804805E
:203780003146002201A8C0470028F4D1337A326823441668BA44DCB2E8E7394E3A493046EC
:2037A0004A460FF07EF93471A6F802A0FDF7D4FF18B1F37943F02003F371FDF7E7FF334B10
:2037C000BDF81320186000205E60C3F80890DA6000F074FB2E498020FEF748F8044628B34E
:2037E000002000F073FB74E6052A7FF4CAAE244C0DF10D00214623800222FFF76BFD044686
:203800006DE61F4B1A7033E7224A137823F00203137065E6BDF80F30FF2B3FF6EDAE304606
:203820009DF80F20FEF736F8044658E605F0E6FA802805BF184B93E80300102485E8030053
:20384000CEE7FEF783F82378052B3FF449AE052312482370FEF7AAF842E6FEF78FF8237863
:20386000042B3FF43DAE0B4A0C481378042123F0020313702170FEF799F831E6FE28002093
:20388000DC030020E82B0100C82B0100B8030020042C0100FF280020FC2B0100C42B0100B6
:2038A00038B504460D4605F0A9FAA04202D01023184638BD95E80300024A82E80300002350
:2038C000184638BDD003002008B1402303600148704700BFDC030020F0B40D7A0DB101F18A
:2038E0000905046840F25F16B44200F03081B4F5B07F20D340F26715AC4200F01A81B4F575
:20390000B47F48D240F26315AC4200F00281B4F5B27FC0F0048140F26515AC4200F01E8117
:20392000B4F5B37F40F0218101240026002A00F066810579B4E0B4F5AD7F00F0018114D849
:2039400040F25716B4424AD0B4F5AC7F3FD300F0238140F25915AC4240F00781002A00F0DE
:20396000A9810579012700264DE0B4F5AE7F00F0C980C0F0058140F25D15AC4200F0F980E4
:20398000B4F5AF7F40F0F180002A00F095810579012600275FE040F26915AC4200F0AB80BB
:2039A000B4F5B47F40F20481B4F5B57F00F0FA8040F26B139C4240F0D88012B101790024B6
:2039C000115540F26D1303600120F0BC7047002C40F0CB8009240471002B00F00281002AD7
:2039E00000F0A38104791470012B4FF00404047140F2968102260127D455B3422D780571F8
:203A000040F28981771C0024BB429555047140F27D8125467E1C0024B342D555047140F238
:203A200070812546771CFF24BB429555047140F2638125467E1C0124B342D555047140F212
:203A40005681254637190124BB429555047140F2498125463E190024B342D555047140F2AB
:203A60003C812546771C0924BB429555047140F22F8125467E1C2124B342D555047140F210
:203A80002281771C09259F429455057180F016817E1CD555B3420D7C057140F29D80741CE4
:203AA00095550D8AA3424FEA1525057140F28F80661C1555B3428D7C057140F28380741C51
:203AC00095554D8AA3424FEA1525057175D9661C1555B3420D7D057159D9741C9555898A69
:203AE000A3424FEA112101713FF66AAF40F26B130360012069E7002A00F01D8105790126D5
:203B00000024E5E7002A00F0D38005790126002791E7002A68D0047901270026B2E7B4F595
:203B2000B17F22D1002A00F0BD80057901260027A1E7002A00F00381057901260024B8E7B1
:203B4000002A00F0AB8005790126002763E7002A00F0A68005790127002684E7002A00F079
:203B6000EC8005790126002793E70023036018462BE7002A00F09A8005790127002662E754
:203B8000002A00F091800579012700264BE74FF4B5730360012018E7002A50D00479012620
:203BA000002729E701240026002A40D0057995E7012400267AB3057982E740F269130360DF
:203BC000012002E74FF4B47303600120FDE640F2671303600120F8E64FF4B373036001200F
:203BE000F3E606600120F0E601240922A342027164D9661C0A8A0271B342EDD902340A8A9C
:203C0000A3424FEA12220271E1D9661C4A8A0271B342D7D902344A8AA3424FEA12220271E8
:203C2000CBD9661C8A8A0271B342B0D902348A8AA3424FEA122202717FF658AFC1E6012402
:203C40002A780271A34266D901340022A34202715CD901340022A342027152D90134FF2217
:203C6000A342027148D901340122A34202713ED914440122A342027134D914440022A342C5
:203C800002712AD901340922A342027120D901342122A342027116D90134A6E70124D9E797
:203CA0000124F0E70124F3E70124D8E70124E0E70124D9E70124C8E70124DFE740F26513EB
:203CC0000360012081E640F26313036001207CE64FF4B1730360012077E640F25F1303601C
:203CE000012072E64FF4AF73036001206DE640F25D130360012068E64FF4AE7303600120B3
:203D000063E640F25B13036001205EE64FF4AD730360012059E640F259130360012054E670
:203D20004FF4AC73036001204FE60422012B0271F6D9022484E7144673E7144659E714469B
:203D400063E700BF0B780E2B01D906207047012202FA03F347F64F02134210D19B06F4D5A4
:203D6000F0B54B78DA0985B006460C4609D15B09012B01D18C7894B3062005B0F0BD0020F6
:203D80007047C3F3411262B1012AF5D18B78072B2FD0082BF0D1481CF268B169FFF79AFAD5
:203DA000EBE703F01F03012BE6D18D78062DE3D103A80292FFF788FD0DF1080E0746E278D8
:203DC0002179CDF800E030463B46FDF72BFB0528D2D03946601C029AFFF77CFACDE70268A3
:203DE0001373036A1BB1214698472046C5E70020C3E7B1F80720182ABED1C169601CFFF7A5
:203E000069FABAE770B54FF0805286B0D2F8A830D2F8A42000926FEA83436FEA93439BB2D5
:203E200002A80A4A0A4E0D210AF08EFB0DF10705002404E015F8013F06F8013F013402A8FF
:203E40000EF054FE8442F5D306B070BD202C01002329002010B50F4B53F8204023780BB9BF
:203E6000A01C10BD0020FFF72FFD22787AB100230133DBB220F8132014F8012F002AF7D155
:203E800001335B00DBB243F44073038010BD40F20233FAE7882C010040B1052808D8054A82
:203EA000105C28B1044B53F820300BB1FFF7D2BF00207047A02C0100882C010072B6024AC3
:203EC00013680133136070471C040020034A1368013B136003B962B6704700BF1C040020C8
:203EE00010B50446006830B1002105F081FF54F8040F0028F8D110BD38B50488492C05467E
:203F000022D011D9552C09D05E2C28D12A4B1B788B4239D05E232B80012038BD274800F069
:203F2000CFFF00BB012038BDCCB9254A254B14705B699847244B22461868852105F0F4FF72
:203F400049232B80012038BD8529EBD11F4A2049204805F0A3FE204806F0E8F80BE00023AE
:203F60002B80032038BD194A19491A4805F096FE1A4806F0DBF8124B1B7893B1114B1B698F
:203F8000984706F08FF9C5E7104A1149114805F085FE134806F0CAF8124B13489B6A9847E4
:203FA000B8E78021054800F06DFF0AF0BBF855232B80012038BD00BF40350020200400209A
:203FC00045350020A82E0100D40E0020582D0100C02C0100C82C0100D82C0100F42C0100E0
:203FE000082D010068320100242D010010B50188044651B9074805F0FBFE074A07490848CE
:2040000005F04CFE074806F091F800232380032010BD00BFC8020020542D0100C02C0100C5
:20402000C82C01005C2D010010B590F84C10094A013180F84C10044603468021203000F08B
:20404000D5FD054B224619780020BDE8104005F06BBF00BF29400000413500202DE9F0410C
:204060000388044663B1B3F5867F04D182290DD00120BDE8F081002303800320BDE8F08137
:204080004FF4867323800120BDE8F08101F092FCBFF35F8F1649174B0E6800220A601F7891
:2040A0001A70FFB2BFF35F8F134D01F087FC28680028E5D0DFF8448003E055F8040F0028DE
:2040C000DED090F8463026FA03F3DA07F5D590F8453047FA03F3DB07EFD500F0C9FD0028BB
:2040E000EBD02B6842461846022100F07FFDE4E74004002000290020C40000205941000007
:2041000010B4084A084C1368194311602178012202FA00F30B43DBB2237004485DF8044BE4
:2041200005F02EBF4004002000290020EC00002010B5044690F8461090F8450001F07AFAC5
:2041400010B994F8440010BD012806BF94F8440080F00100002010BD70B5044600F088FDF9
:2041600000B970BD04F12005284600F081FD06462046FFF7DDFF01280ED00028F1D1002EC0
:20418000EFD1284600F05AFD0D4B224630461978BDE8704005F0C8BE002EE2D0002628469F
:2041A000234684F84C60074A7E2100F01FFD064B304622461978BDE8704005F0B5BE00BF36
:2041C000403500202940000042350020F8B505F007FE304B304C187005F002FE2F4B304F36
:2041E000187005F0FDFD2F4922682F4B08700025FF2139727B60FD60002A42D02B4E03E094
:2042000054F8042F002A3CD092F8463092F84510926C03F01F0343EA41131F2BC6BF03F0B4
:204220001F0331464FF0A04103F5E07342F08C0241F82350236893F8461093F8450001F0E1
:20424000B7F9226892F8463092F8450003F01F0343EA4010012102F0E1FF22683B7A92F806
:204260004510994201D0FF2BCAD192F84600FA68397201238340134354F8042FFB60002A5A
:20428000C2D10B48002105F0B3FD0548BDE8F84001F0E4B942350020C400002040350020AA
:2042A00030040020413500200141000000030050EC00002000B5134B83B000221A6002F09F
:2042C00063FD08B1FDF746F8002002F079FD0E4B0E4A18689B88ADF80430009000230C48D7
:2042E0008DF80430694603F01FFA08B1FDF732F80121074803F06CFA054803F05DFA03B05F
:204300005DF804FB44040020B02D010041430000B82D0100014B1868704700BF44040020EF
:2043200008B5064A13680133136000F0CFFD00B908BDBDE8084000F09FBD00BF44040020B4
:20434000042800D07047FFF7EBBF00BF014B1868C00970474404002038B5684C05F046FCBF
:20436000FFF7A8FF08F0CEF905F066FD0021644805F03EFD00F000FC0DF0FEFE00F0C8FCF3
:204380000AF0FEF805F03AFC05F0DEFE02F094F802F0A4F82368022B3CDC5A4A5A4B116893
:2043A000526819605A605948002105F021FD4FF0FF300BF003FC2368022B054613DC05F0EC
:2043C0004BFC05F0B5FF5248FFF78AFD0DF0F8FE05F04CFD04460DF0FBFE14F0FF0FF7D18B
:2043E00005F040FCF4E74B4A4B494C4805F056FC4B4805F053FC2368022BE0DD002D7AD0EA
:20440000A81C01F0DFFC2368022BD8DD0A2005F08BFED4E73F4A4049404805F03FFC4148E9
:2044200005F084FE2368022BB7DD3A4A3A493B4805F034FC3C4B3D48196805F02FFC2368D2
:20444000022BAADD334A3449344805F027FC384B3848196805F022FC2368022B9DDD2D4ADA
:204460002D492E4805F01AFC334B3448196805F015FC2368022B90DD264A2749274805F05B
:204480000DFC4AF6CD312E4805F008FC2368022B83DD204A2049214805F000FC1A21294875
:2044A00005F0FCFB2368022B7FF777AF194A1A491A4805F0F3FB244B2448198805F0EEFB57
:2044C0002368022B7FF769AF124A1349134805F0E5FB1F4805F0E2FB2368022B7FF75DAF3B
:2044E000084801F07FFC2368022B7FF756AF0A2005F01AFE51E7284683E700BF5C0100204A
:204500003001002054290020782D00205C0200204C2D0100C02D0100C02C0100C82C010020
:20452000842E0100C82D010068320100F82D0100E8320100082E0100A82E0100142E0100A5
:20454000202E01003C2E0100E42800205C2E01006C2E010070B590F82D40012C05460EDDD2
:204560001F2405F05BFE2B46B0FBF4F1064A01FB140105F10C00BDE8704000F037BBE11C12
:2045800001248C40013CECE71D4600002DE9F0470D468B6892F82C908046506B144693E888
:2045A000C00001F0E3FB686805F00AFEA968174801F0D4FC2946164801F0D0FC606B01F028
:2045C00083FB78B1002384F82C3084F82D302046FFF7C0FF4B46424639463046BDE8F0475B
:2045E00001F080BC04F10C0000F028FB2146094801F0BCFB2146084801F0B0FC4B464246AD
:2046000039463046BDE8F04701F06CBCFC00002014010020B004002008010020002800F04A
:20462000A6802DE9F047044682B0406B01F04CFB054600286DD0406805F0D8FD6B490D20A5
:2046400005F0B8FA0121082005F0A6FA00F092F9002861DB05F0F6F9DFF8948190F802900B
:20466000D8F8046005F0EEF9074605F0F5F901463846B04705F0B2FAD8F818600746B04711
:20468000002854D1002F73D1D8F81CA0D04700284DD1D8F8087005F0DFF9B84700286DD1F7
:2046A00008F012F86FF018073F1A03E008F00CF8C74202D5D0470028F8D0B04718B9D0477C
:2046C000002800F0888007F0FFFF6FF02806361A03E007F0F9FFC64202D5D0470028F8D030
:2046E000D04700286ED10223AA6892B1022B21D194F82C300133DBB2002184F82C3084F885
:204700002D10127A9A4229D8224629460220FFF73DFF02B0BDE8F0870520AB68002BF8D0CF
:2047200022462946FFF732FF02B0BDE8F087AA68002AEED094F82D300133DBB2052B84F85D
:204740002D3094F82C3006D90133DBB2002184F82C3084F82D10127A9A4217D92046FFF70E
:20476000F9FE686805F026FD02B0BDE8F0877047D8F8086005F070F9B04788B1022803D111
:20478000AA68002AC5D0D5E70420C6E7224629460120FFF7FBFEBCE79DF806304B4518D1ED
:2047A000AB68002BB5D094F82C3000200133294684F82C3084F82D002246FFF7E7FE02B015
:2047C000BDE8F087D8F81030032101A898470328E2D0012388E7D8F81430984700283FF443
:2047E00072AFAA68002A83D193E700BF542900206C3001002DE9F04106460E200F4605F08A
:20480000E5F94D4B1A780546002A49D04B4A1178002942D04B1CDBB289B20720137005F0DB
:20482000BBF901210C2005F0B7F9454801F04CFA044628B917E0204601F0C0FA044690B14F
:204840002946201D01F034FA0028F4D0606B01F0ABFA07282CDD3946304601230622BDE822
:20486000F04101F03FBB374801F05AFB04460028F1D02946201D01F015FA002304F1300030
:20488000606384F82C3084F82D30236301F018FA21462B4801F01AFAD8E701210223BCE793
:2048A00001221A7005F0BAFC244AC1B21170AFE7254801F035FB054630B3244801F030FB64
:2048C000A860E8B105F054FC6860A8B10620D5F8088005F069F9C0B220B388F8080088E8C2
:2048E000C0002946606B01F0F1F9606B01F0ECF985421BD0BDE8F081A968144801F02EFBF3
:204900002946114801F02AFB606B01F04DFA0028A1D121460A4801F029FA2146094801F0A6
:204920001DFB98E7082388F80830D8E72046BDE8F041FFF70FBE00BF0129002002290020EB
:20494000B00400200801002014010020FC00002008B5054801F0D2FA044801F0CFFA0448F0
:20496000BDE8084001F0CABA14010020FC0000200801002010B501210C2005F00DF9024B00
:20498000BDE810405B681847E82E0100014B9B68184700BFE82E0100014B1B6A184700BF76
:2049A0006C300100014B5B6A184700BF6C30010010B50D4B82B01B6898470C4B044601A992
:2049C0009B6A1820984701280BD0002C0198B8BF15248028D4BFC4EB0000C4F1800002B071
:2049E00010BD002002B010BDE82E01006C300100FFF700BF30B583B005F028F8032815D0A5
:204A0000FFF7C4FF002811DB0E2005F0DFF8214901F04EF910B905F0E1F838B10D2005F08B
:204A2000D5F81C4901F044F9044608B103B030BD01F002FA0546A0B1082005F0B5F80028F8
:204A4000F4D002238DF804308DF8054004F0FAFF114B82788DF80620DB68032101A898470D
:204A6000E4E701F00FFA082005F09EF870B102238DF804308DF8055004F0E4FF064B8278C3
:204A80008DF80620DB68032101A89847034B9B689847CBE7542900206C300100E832010045
:204AA00030B50F4C83B06946A56A1820A84708B103B030BD01A90420A84728B1FFF748FF72
:204AC000236A984703B030BD0199E36A21F00201019104209847FFF73BFF236A9847F1E7C6
:204AE0006C300100F0B5038883B005465BB14A2B04D188291BD0012003B0F0BD0023038052
:204B0000032003B0F0BD194801F0DEF8044630B1A168201D00F0B6F92468002CF8D1144BFA
:204B200001221A704A2301202B8003B0F0BD0F48019201F0C9F804460028F3D0019A031DA3
:204B40009A4205D02468231D002CEBD09A42F9D121460648074E01F009F9A36962693768D8
:204B600032600BB1E06998473760DBE79005002003290020D40E002010B5064B06480024DB
:204B80001C7001F09DF821460448BDE8104005F02FB900BF0329002090050020200100207D
:204BA00070B50E4C049E257882610446C361466135B9A1600A482146BDE8704001F086B813
:204BC000084D094B2E682B60043000F05BF92E6021460348BDE8704001F078B80329002091
:204BE00090050020D40E00202001002010B5044C82B024680094FFF7D3FF02B010BD00BF50
:204C0000D40E002070B5094B1B7804463BB1084D084B2E682B60043000F03EF92E60214637
:204C20000548BDE8704001F051B800BF03290020D40E0020200100209005002010B50A4BBB
:204C40001B7804463BB9C360036121460748BDE8104001F08BB8043000F040F9214603480E
:204C6000BDE8104001F082B8032900209005002038B50B4B1D785DB904460A4801F024F87C
:204C800010B90AE0006840B18442FBD1002038BD0430BDE8384000F013B9012038BD00BF7F
:204CA000032900209005002010B50446C0B20DF029FA0A2C01D0204610BD0DF0F1F92046CB
:204CC00010BD00BFF8B5E0B10578F5B1D9B104464718002606E0631C0FD014F8015F65B1C8
:204CE000BC420AD028460DF00DFA0A2D06F10106F1D10DF0D5F9631CEFD10DF0D1F930462C
:204D0000F8BD0646F9E70E46F7E72E46F5E700BF704700BF10B50E4C2368B3B1FFF7FAFA03
:204D2000236893E812009A682144091A4AB192E8180023441B1A9268994228BF1946002A63
:204D4000F5D1044B0844186010BD024A136010BD98050020940500202DE9F8430388054684
:204D60007BB1592B08D1872912D0822920D059232B800120BDE8F883002303800320BDE8A7
:204D8000F883264A136059232B800120BDE8F883224F39680029EAD0CB689A4203D026E070
:204DA000CB689A4222D189680029F9D13960DEE71A4FDFF86C804FF000093C68002CD6D0C5
:204DC000002604E0A3682646002BD0D01C4620460AF07AFC0028F5D022468821E06805F014
:204DE000A3F878B1404605F0CBF8EBE739608B68002BBCD0D868824207BF9B688B60194685
:204E00009B68F5E7E060A3682EB1B360C4F80890FFF780FFD1E73B60F8E700BF98050020FF
:204E20003001002010B50446104805F0A9F81049E3680A684BB142B194420FD0134601E030
:204E40009C420BD09B68002BFAD10A4BA2601B68E3600C60BDE81040FFF75CBF054B1B683E
:204E6000E360BDE81040FFF755BF00BF3001002098050020D40E0020014805F081B800BFEB
:204E80003001002010B504460AF002FC2046BDE81040FFF7C7BF00BF10B504460AF000FC1F
:204EA0002046BDE81040FFF7BDBF00BF10B504460AF004FC2046BDE81040FFF7B3BF00BFDB
:204EC000C068B0FA80F04009704700BF024B1868003018BF012070479805002010B50F4B49
:204EE0001A688242044613D072B19368984208BF134605D043B19A68944201D01346F9E77C
:204F0000A2689A60FFF706FF0023A360E36010BD82681A60FFF7FEFEF6E700BF98050020AD
:204F2000014B1888704700BFD8020020B8B130B4037A022B14D00378022B19D00379D3B9A1
:204F4000447A14F0030418BF0124C37913F0030318BF012301B10C6002B1136030BC704765
:204F6000C579447A037945B90CB9012BF2D0F3B100231C46EEE70024E7E704B9EBB1032D8F
:204F80000FD1032C1BD0022C1DD0002BF0D1022D0DD0032D1AD1A4F10204B4FA84F46409BB
:204FA000D8E7022DEFD174B9002BE1D12346A01E01288CBF00240124CCE70123E7E7002B85
:204FC000D6D10123E7E7002BF7D001230024C1E730B500230B608B80437D0D46D9075CBFCA
:204FE00001232B70037E012B83B0044623D901AA694604F11000FFF799FF009B0BB1022363
:20500000EB70019B0BB102236B70E37D03F00303022B03D0032B0CBF08230023AB70637E41
:2050200003F00303022B03D0032B0CBF082300232B7103B030BDC37D9A0706D0437E9B07DA
:2050400003D0C28B838B9A4202D000232375CEE701230375CBE700BF02280CBF02230823B2
:205060000B4403E013F8012DFF2A03D18B42F9D1012070470020704730B583B06946FFF7C5
:20508000A7FF9DF800309DF801509DF802409DF803109DF804209DF8050002332B442344E2
:2050A0000B441344184403B030BD00BF70B4437885780678C4780279DB002D0105F010056B
:2050C00003F008032B43640106F007052B4304F020049201234302F0400213430B704379BD
:2050E0008579467AC479027A03F001036D0043EA861305F00205A0002B4300F00C001201F6
:20510000034302F0300213434B7070BC704700BFF0B583B00D4604466946FFF759FF04F10B
:2051200010002946FFF7C2FF9DF80030012B04BFA37EAB709DF801300CBF03200220022B46
:2051400028D09DF8026076B1771E0644F6B2E219034612F80119E9540133DBB2B342F8D18E
:2051600001373844C0B29DF80330022B1CD09DF804606EB18319F21D2244DCB2034612F81E
:205180000119E9540133DBB2A342F8D13044C0B203B0F0BDA38B2B54431CA28BDBB2120A21
:2051A0000230EA54C0B2CCE7E38B2B54431CE28BDBB2120A0230EA54C0B2D8E7F0B4027839
:2051C000437802F00705C2F3C004C2F30010C2F3401703F00106C2F380120D704C70C3F39C
:2051E0004005C3F381048870C3F301109B09CF704E718D71CC710A7108724B72F0BC70477E
:20520000012950DD2DE9F04186B00F4603A914460546FFF7D3FF03AB03CB1E889DF8113054
:20522000206126836161002B39D0AE1C03A802AA01A9FFF77BFE9DF81380B8F1000F43D021
:20524000029B002B34D0727816F8023B03EB0223A383B8F1020F57D0B8F1030F3BD09DF8D8
:205260001580B8F1000F27D0019BF3B1717816F8023B029A03EB01239BB2E383D2B1B8F1E9
:20528000020F4BD0B8F1030F31D0701B3B1A8742A663E36300DA002006B0BDE8F081AB7845
:2052A000A376EE1CC2E700207047A38BE383E6E7A383CEE7A383E2E71E4904F1080000F0CC
:2052C000F1FCA4F81E80E0E71A49204600F0EAFCA4F81C80C3E706F108000346621E13F88C
:2052E000011D02F8011F9E42F9D10646B7E706F10800034604F1080213F8011D02F8011B5C
:205300009E42F9D10646C0E70A49204600F0CAFC7378237016F8023B6370A0E7054904F11B
:20532000080000F0BFFC7378237216F8023B6372ABE700BF4830010030B591B004F072FBC9
:20534000044604F083FB6A4601462046FFF758FFC8B3044604F04AFBA8B39DF810100C20AD
:2053600004F01AFC9DF81310082004F015FC9DF817308BB1BDF81C50FFF7D2FD854205D0A4
:20538000BDF81C204FF6FF739A421CD169469DF81700FFF761FED8B102A90D2004F00AFC91
:2053A0009DF815303BB14FF6FF71072004F0F4FB204611B030BD9DF81A10072004F0ECFB93
:2053C000204611B030BD4FF0FF34204611B030BD69460E2004F0EEFBDEE700BF00283BD0C2
:2053E000002A39D0F8B506460C2014460D46B04700232074A37415B3E37463750920B047CC
:20540000002701232376A07567740720B047A076FFF786FDE0830A20B047012816BF032363
:2054200067766376FFF77CFDA0830B20B047012813D04DB10223E37501232375F8BD0820E2
:20544000B0476575E074D9E70323E375637E022BF2D000232375F8BD70470023E375F5E79B
:2054600030B591B00446FFF75BFD4FF6FF73984259D04022684600210DF0FCFA2D4B1A7886
:205480002AB364BB04F0AAFB6A46C1B22A48FFF7A5FF04F0A3FB00283DD0FF238DF80030AA
:2054A0008DF801300D2004F091FB014602A800F0F9FB04F0B7FA0E9004F0C8FA0F9068466E
:2054C000FFF7DAFD0546D4B9284611B030BD01221A7004F0A3FE194B1870002CD2D00720E8
:2054E00004F062FB0028CDD1144D2978F1B189B2072004F051FB2B7801332B70C2E704F040
:205500004BFA80B104F09EFA01466846FFF700FE284611B030BD0E2004F058FB014668461A
:2055200000F0C0FBBEE74FF0FF35CDE701212970DEE700BF04290020A99B000005290020D6
:205540000120FFF78DBF00BF0020FFF789BF00BF0649074A074B9B1A03DD043BC858D05006
:20556000FBDC09F069FDFBF781FE00007C35010008000020E8020020FEE7FEE7FEE7FEE70C
:20558000FEE7FEE7FEE7FEE7FEE7FEE700F01F030121C0F34710994000F066B808B501F0DA
:2055A00091FD00B108BDBDE8084001F03DBD00BF30B583B01446022301F01F0100228DF801
:2055C000063014F00C0341EA4015ADF8042008D0042B25D0082B27D00C2B04BF03238DF86E
:2055E000043014F0030306D0022B15D0012B04BF03238DF8053001A90D4A284601F06CFDED
:205600002306284604D5012101F008FE03B030BD01F080FE03B030BD01238DF80530EAE7A3
:2056200001238DF80430DCE702238DF80430D8E78D55000001F01F0141EA40101F28CABFEF
:20564000054B4FF0A04300F01F00D3F8101521FA00F000F001007047000300500146014843
:2056600000F034BB9C05002070B505460B480E4600F02AFB88B1044601E024686CB1237AB4
:20568000AB42FAD1E1683140F7D063682846002BF3D098472468002CF1D170BD9C05002063
:2056A00008B5034800F00CFBBDE80840FFF776BF9C05002070B503899E2B044625D021D95F
:2056C000A32B0CD0BC2B33D100F108050A21284604F0C0FC01282FD9BC232381F6E700F16C
:2056E00008052021284604F0B5FC012824D994F852302F2B22D0224A1021002311702381E4
:20570000022070BDA3B99E23038104F108052846202104F09FFC01280ED90422194904F1CC
:2057200052000DF0EBF90028E5D1A3232381D8E700232381032070BD002070BD94F85330BC
:20574000202B13D0284604F07FFC2044002680F851600F2204F1520104F17A000DF0E0F9CD
:2057600084F88960012384F89030B5E70F22064904F17A000DF0D4F9002384F88930F1E7DF
:20578000803200207C2F01003C30010070B5838D622B04460D4608D0752B1DD01BB100236B
:2057A000A385032070BD6223838528460DF09EF904F12C0602462946304604F0EDFB012889
:2057C00008D97523A38530461B22054904F0E4FB0128E4D8002070BD00F12C06F3E700BF66
:2057E000602F0100F8B5B0F85030882B04460DD022D8002B35D0862B2ED131492046FFF7BA
:20580000C5FF012843D98823A4F85030A38D002B3FD0552B07D158222A4904F12C0004F0F4
:20582000BBFB012833D9284A002310211170A385A4F850300220F8BD8E2B1ED08F2B0BD1DE
:20584000D4F88C3020469847012820D91E4A102100231170C4F88C300023A4F85030032042
:20586000F8BDC0F88C307B300CF0A0FE0346C4F88C0088B18E23A4F8503014492046FFF76A
:2058800085FF012803D98F23A4F85030D8E70020F8BD5523A385BEE70D4D07CD04F17A0635
:2058A000B5F800E0AF78C4F87A0086257160B260A6F80CE0B77384F88930A4F850509CE7C8
:2058C000DC2F0100042F010080320020842F0100F42E0100F8B52E4D2B7813F03006014694
:2058E00017D11A0615D413F04007044628D100284AD01B0717D409F0E1FE2046FFF7DAFECF
:2059000094F89030012B0DD12046BDE8F840FFF769BF39B10023C1F88C301E48BDE8F8400B
:2059200000F01CBBF8BD09F0CFFE0028E5D02023C4F88C70214617482B7000F00FFBDCE72F
:20594000144800F0EDFA0446F0B1134B014604F15205186809F08CFC294604F10800272282
:2059600004F0D6FB294604F12C00272204F0D0FBA4F85060C4F88C6084F890604FF4A06126
:20598000204609F085FEB8E720232B70F8BD00BF80320020400100208C32002008B54FF423
:2059A000A04009F051FC0248BDE8084000F0A6BA40010020EFF3108072B6704780F310887D
:2059C000704700BF70B41A4A1A4C0023012540FA03F1C90712D59178B9B11178567801F07A
:2059E0001F0141EA46111F29C6BF01F01F0126464FF0A04605FA01F1C6F808150133042B67
:205A000002F10302E3D170BC70471178567801F01F0141EA46111F29C6BF01F01F012646C3
:205A20004FF0A04605FA01F1C6F80C15E6E700BFB42C0100000300500E4A30B40E4D02F127
:205A40000C0403201378517803F01F0343EA41131F2BC6BF03F01F0329464FF0A04103F5BE
:205A6000E0730332944241F82300EBD10F2030BCFFF7A8BFB42C01000003005010B50948EE
:205A8000FFF7C0F8084800F079FB48B1064C037A5B0803720146204600F034FB0028F6D149
:205AA00010BD00BF342900204C0100200146014800F090BB4C01002080B110B50446FEF703
:205AC00029FC2368C01AB0F5963F05D2207A032894BF0020012010BD002010BD0020704701
:205AE000F8B507461446D9B121F00403022B0D4600D0F8BD01462A4800F06CFB0646002827
:205B00003FD0062DF5D0FEF705FC337A30602344102BA8BF1023022D337208BF0C340EE046
:205B200001461F4800F056FB064658B3FEF7F2FB337A30602344102BA8BF10233372FEF72A
:205B4000E9FB3368C01AE401B0F5963FA4B20ED3B38819229BB102FB04F41249C2F164022B
:205B600003FB0242A1FB02325209B280F8BD337A042BB38834BF19220A22002BEBD1B48045
:205B8000F8BDF8BD334639460822054800F088FB06460028ADD047F6FF73C380C6E700BF6A
:205BA0004C0100201F85EB5138B50546042003F0FBFF294604B2244800F00CFB90B3B0F9DB
:205BC000062047F6FF739A4237D004EB84045A2164001E4B12FB014283FB0213D217C2EBD5
:205BE0006312C2808388E3B9B0F9063047F6FF72934224D06FF03B029342A8BF13466FF061
:205C000058029342B8BF13465A334FF4706292FBF3F39BB2B3F5C07F28BF4FF4C0738380DC
:205C200038BD38BD034629460822074800F038FB0028F6D047F6FF73C380C480D2E74FF406
:205C40008073838038BD00BF4C0100201F85EB5138B5094800F092FA60B1074D044621467D
:205C6000284600F08FFB2146284600F04BFA04460028F4D138BD00BF4C01002010B50021F4
:205C8000054800F01DFA0023044A05484FF4E131BDE81040FEF7AABF4C0100207D5A000006
:205CA000342900200B684A6842600360704700BF08B508220CF0E6FEB0FA80F0400908BDD8
:205CC00000230360704700BF0068704710B404685CB1A14224D023680BB906E0134699422C
:205CE00010D01A681C46002AF8D100230B6002680AB911E01A461368002BFBD111605DF8A9
:205D0000044B704764B10B68236000230B6000230B600268002AEED101605DF8044B704747
:205D20000B680360F1E700BF30B4056865B1A94218D02B682C460BB906E01346994207D002
:205D40001A681C46002AF8D10D60016030BC704744B10B68236000230B6005680D60016047
:205D600030BC70470B680360F5E700BF10B404685CB18C4214D023680BB906E013469942B7
:205D800006D01A681C46002AF8D15DF8044B704734B10B68236000230B605DF8044B704737
:205DA0000B680360F7E700BF03682BB100201B680130002BFBD170471846704700B1006879
:205DC000704700BF00B58BB00246282168460CF01BF86946024803F061FF0BB05DF804FBB4
:205DE00050300100D8B1F8B5114F054601260024C4B1E30709D52978384603F04FFF082E23
:205E00000CD0013401360135F2E72E2004F08CF92978384603F042FF082EF2D1F8BD054816
:205E200003F03CBF2978384603F038FFE9E700BF6430010054300100F8B5FEF76BFA104F1C
:205E400006463C4600250D2003F0C0FE2146FFF72FFF103420B90135102DF4D10020F8BDBC
:205E6000072007EB051503F09FFE2B7B8342F5D1A868301AB0F5206F8CBF00200120F8BD5F
:205E80008C070020F8B5164F00263C460D2003F09DFE2146FFF70CFF1034F0B90136102E10
:205EA000F4D10F2607EB0614254654F8100D6168A268E368013E0FC5F6D1072003F074FE84
:205EC0003873FEF727FAB8600D2003F07FFEBDE8F84001460248FFF7E5BE002EE2D1ECE791
:205EE0008C07002040B130B40D460446114628461A46234630BC1847704700BF10B504461F
:205F00004288406800210CF0B5FD23886288A06802FB03F20021BDE810400CF0ABBD00BF78
:205F200030B44588BDB141680B7863B14A1C002302E00C78013234B10133AB421146F8D1BA
:205F4000002030BC704701220A700588806803FB050030BC70472846F3E700BF30B444880F
:205F6000826854B18A420CD00588002301E0914208D00133A3422A44F9D14FF0FF3030BCA3
:205F8000704700234268D15C0029F6D00020D05430BC704783688B4208D84288008800FB95
:205FA000023081422CBF00200120704700207047418849B143680020194413F8012B02B955
:205FC00001308B42F9D170470846704738B50F4D002818BF05460E48FFF776FE044650B19F
:205FE000211D2846FFF764FE40B92046FFF7E6FE04460028F4D14FF0FF3038BD054A064B2A
:206000009068241AA01003FB00F038BD48300100BC08002060010020ABAAAAAA2DE9F84FD3
:20602000214C224EDFF88890DFF8888005468B4604F1200A54F8041FA1B18A6892B18DB146
:20604000D9F80830EB1A9B1008FB03F3581C09D04868CF6800FB037020B1F35C09680B410F
:20606000DB0716D4A245E5D1DDB1114B114A9B68EB1A9B1002FB03F30F4C10480022294688
:20608000E254F254FFF772FEBBF1000F03D1BDE8F88F9047E6E729460548BDE8F84FFFF721
:2060A0005DBF4FF0FF33E7E7880800209409002060010020ABAAAAAAAC080020BC08002036
:2060C00010B10368072B0ED90C4A1368072B12D830B40B4C03605D1C8160156044F82300C2
:2060E000012030BC7047064A52F823309842EBD18160012070470020704700BF9009002051
:206100008C080020F8B51A4F1A4C1B4D06463EB359B3F3687068C91A91FBF0F1481C24D0C3
:20612000B86801EB410100EB8100FFF747FED0B1BB68C31A9B1004FB03F35A1C13D0726816
:20614000F16803FB02F3C9180DD093FBF2F35A1CDDD0EB5C32681341D807D8D50846F8BDDB
:206160003046FFF72BFE0020F8BD0020DDE700BF60010020ABAAAAAA9409002010B504461C
:206180001048FFF7A1FDB0B10F4A104B9168401A801003FB00F36CB15A1C0BD06068E168AB
:2061A00000FB031038B10A492268CB5C1341DB0701D510BD002001462046BDE81040FFF753
:2061C000A1BF00BFBC08002060010020ABAAAAAA9409002010B504460846FFF7F7FE84B158
:2061E000431C0ED06368E26803FB00233BB1064A2168125C0A4112F0010F08BF0023184654
:2062000010BD0023184610BD940900202DE9F84315460E46FFF7DEFF28B10024012005B1FF
:206220002C60BDE8F88304463046FFF7CFFE0130F3D11748FFF7BCFE0028EEDC1548FFF7E6
:2062400043FD8146F0B1DFF85480114F124E0AE0204609F1040105F08DFC04464846FFF790
:20626000ADFD814678B1BB68A9EB03039B1006FB03F318F80330002BF0D1002CE8D109F117
:206280000404EBE70446201C18BF0120C7E700BF60010020BC080020ABAAAAAAAC08002057
:2062A0002DE9F04182B058B3314B0D46002908BF1D46294601AA0646FFF7A8FF00B3284614
:2062C000FFF784FE044601301FD07268F36804FB0234204600210CF0CDFB2246F36871688B
:2062E000D31A93FBF1F35A1C06D022493568C85C0122AA400243CA54204602B0BDE8F08129
:206300000024204602B0BDE8F0811B4CDDF804802046FFF705FE0746B8B139461748FFF782
:20632000D5FCA368164CFB1A9B1004FB03F42946381DFFF7B7FC631CC7D10021726808469C
:206340000CF098FB00221446C8E7B8F1000FD7D04046FFF73BFE411CD2D0A76800EB400036
:2063600017EB8007CCD000213846FFF757FED4E7483001009409002060010020BC080020B8
:20638000ABAAAAAA034610B311B370B4C56844684A1B92FBF4F2501C1CD00F4E1D68B45C65
:2063A000012000FA05F524EA0504B454DD685C68491B91FBF4F14A1C07D0084C1D68635CF6
:2063C0000122AA4023EA0203635470BC70477047084670470020EBE794090020AC080020C5
:2063E00090B191B1C2684368891A91FBF3F14B1C0BD010B4064A0368545C012000FA03F3B0
:20640000234353545DF8044B70470020704700BFAC08002098B199B1C2684368891A91FB13
:20642000F3F14B1C0CD010B4064C0268635C012000FA02F223EA020363545DF8044B7047C3
:2064400000207047AC08002088B179B1C2684368881A90FBF3F14B1C08D0054B986801EBCD
:20646000410110EB810002D004307047002070476001002070B505460E480E46FFF724FC19
:20648000044660B1012D0CD01DB963680BB1984770B92046FFF792FC04460028F2D10020F3
:2064A00070BDA3683046002BF3D098470028F0D070BD00BFA4090020054B10B51B68984749
:2064C000044B5B689847044BBDE810405B6818476C300100A82E0100E8320100034A04493C
:2064E0009079D37903EB00230B80704754290020E4280020024B0022C3F8FC2F01207047FE
:206500000010004089B1182800F28380DFE800F00F118181736A7C654F4944818181403C4A
:20652000383481302C2824211D000220704700207047394B394AD3F80835A2FB03239B0863
:206540000A33DBB20B60002070477D230B600020704700200860704710230B600020704799
:206560000A230B600020704720230B600020704703230B600020704708230B600020704752
:20658000D8230B60002070471A230B60002070470B230B6000207047214B1B780B60002045
:2065A0007047204B93F900300B60002070471E4B1E4A012082B018601368002BFCD000208D
:2065C00010601268144B0192019AD3F8483503F07F035B420B6002B07047154B5B790B6077
:2065E00000207047124BDB7800200860002B9ED001230B6070470E4B1B7800200860002B0E
:2066000095D004230B607047094B5B780B60002070470120704700BF00100040CDCCCCCC4B
:206620000629002007290020141000401C1100407C0100200120704770B582B0FFF7BAF975
:20664000BFF35F8F1B4B1B78FBB91B4903F0FF020A600968194B019101991A601A681849CD
:20666000184B00924FF0FF3502224FF44054009EC1F80853C3F88021C1F804431A60BFF37D
:206680005F8FFFF79BF902B070BD0E4B0C4902224FF0FF34C1F80843C3F88021C3F88020A4
:2066A000BFF34F8FBFF36F8FBFF35F8FFFF786F902B070BD7C010020301100403411004003
:2066C0000010004000E100E0144BD3F8FC0F50B1D3F85035DBB2032B06D00020704792F831
:2066E000800080F0010070470D4B1B7803F0FF0073B10C4B1B78053B7A2BEED80A4B1B6884
:20670000002BEAD1094B1868B0FA80F040097047044A1378053B7A2BE1D970470010004026
:206720007C010020A80900203011004034110040074A1378053B7A2B01D900207047054B23
:206740001B6813B992F8800070470120704700BFA8090020301100400C2801D00120704763
:20676000042A01D0022070470029FBD0024B1B680B600020704700BF2C0A002070B51B4C9A
:20678000D4F85055EDB2032D82B028D0184B194AC4F8042518481949C3F810054FF00062B1
:2067A0000126C3F81415C3F80465C3F80425FFF743FFD4F8003243F01003C4F80032D4F890
:2067C0000032022D43F40023C4F8003209D00C4B0C4A002119601B680193019B166002B015
:2067E00070BD094B1E6002B070BD00BF0010004000F00140A8090020381100404C80004015
:2068000058110040041000400810004070B52F4E2F49304A304B314D0024346084B036680C
:206820000096009E0C60096801910199146012680292029A1C602A781B680393531F7A2BAF
:20684000039909D98122214628460CF013F9FFF795FF204604B070BD941E2246691C0CF0CE
:2068600020F92B195B783F2B2CD9FF231C4E1D4A3370D2F848351C4A03F07F035B425BB217
:2068800099B20420137003F087F93178032003F083F9164B2A7816491A74D1F84C05586096
:2068A000D1F8481599605200DA605D680B4881220021023D1D600CF0DDF8FFF75FFF20460A
:2068C00004B070BD9B00DBB2D0E700BF381100400C1100403411004030110040A80900207C
:2068E0000629002000100040072900202C0A00200080004010B503880446FBB140F2C93220
:20690000934203D1822905D0012010BD00230380032010BDFFF70CFF80B10BF059FC03F055
:20692000CBF803F07FF88021FFF770FF002805DD80B203F071F8044BDB68984740F2C933ED
:206940002380012010BD00BFA82E01007D2910B50C4609D801460A48A31C00F8013B22467E
:206960000CF09FF8002010BD064A0749074803F095F921467D22064803F090F9012010BD69
:20698000400A0020A4300100B4300100C82C0100B8300100F0B4164B1649174D174C0F2299
:2069A000C3F810258A780A3A02EB8202C3F808250879CE798A794979120642EA062202430A
:2069C00042EA014240F2022700267F2040F20121C3F86C26C3F83475C3F83855C3F83C657F
:2069E000C3F81445C3F81805C3F85016F0BC7047001000407C0100202110010008000006FA
:206A000008B5064BD3F8FC2F22B90122C3F8FC2FFFF7C0FFFFF7B2FE012008BD00100040FD
:206A200030B585B0FFF7ECFF104A11491148124C0023136015680395039D0B600D6802952E
:206A4000029D03600368019301230198236001E00B6813B91368002BFAD0044A044B106850
:206A60001B68B0FA80F0400905B030BD48110040441100404C1100402C10004010B5072853
:206A800056D8DFE800F0191F5555374249042E4A2E48C9B25171D0F8FC3F5BB11179D47958
:206AA000937952791B0643EA04230B4343EA0243C0F86C36002010BD012940D0002939D017
:206AC000022010BDA1F10B030F2BF9D81E4A1F4BC8B29070D3F8FC2F002AEBD00A3901EBC6
:206AE00081010024C3F8FC4FC3F80815FFF788FF204610BD31F00704E2D1134BC1F38001F0
:206B00001970FFF799FD204610BD31F00100D7D10D4BC9B2D97010BD0B4A0C4BC9B2517092
:206B2000D3F8FC2F002AC5D0C3F80C15002010BD012010BD054BC3F8FC1F084610BDFFF7B2
:206B40005FFF002010BD00BF7C0100200010004010B57D2884B03FD8294CFFF751FFE37873
:206B6000002B46D16378274A2749DBB20120C2F80C350860D2F85035DBB2022BFAD12349C6
:206B8000234BC2F8043500230B600868019001980B66086E029002988B648B6C0393039B3F
:206BA000D2F80032012143F48023C2F80032116005F08AFD6FF00204241A05F085FDE042C8
:206BC000FBD4104AD2F85035DBB20B2BFAD0FFF7D5FD002004B010BD04460E4A0E490F48F7
:206BE00003F05CF821460E4803F058F8012004B010BDFFF715FF0028B4D1022004B010BD52
:206C00007C010020001000400C1000400C110040400A0020A4300100B4300100C82C0100B5
:206C2000EC30010010B50C46FFF790FE2046BDE81040FFF78DBF00BF10B51A491A481B4A51
:206C40001B4C00230B6003704B6023708B6082B0CB600B741360136800934FF08043012122
:206C6000009819601368002BFCD0002414601368019321460F48019B03F0BAF821468122E1
:206C80000D480BF0F7FE0D4B0122C3F8FC2FFFF781FE0B4A1378DBB21370FFF7CDFC2046C4
:206CA00002B010BD2C0A00200629002000010040072900206C010020A80900200010004071
:206CC0007C010020144B1B78B3B900B503F0FF02124B196883B081B9114B1A684AB1196073
:206CE0001B68019381220F48019B0BF0C3FEFFF745FD03B05DF804FB70471A601A68094BE5
:206D0000009209480099012283F8802003F038F903B05DF804FB00BF7C01002030110040B1
:206D200034110040A80900206C01002000B5002350E800EF0EEA030240E8002191F0000F9B
:206D4000F6D170465DF804FB10B568B101280AD10C4C2369A07033B10CCB0120226198474E
:206D60002369002BF8D110BD064CA36801226270002BF8D00CCB0020A2609847A368002B73
:206D8000F8D110BDC00A002010B50B4C237882B013B1852002B010BD08486360A360236108
:206DA000E36000F0AFF8019000F0BAF801980123237002B010BD00BFC00A0020496D000098
:206DC00038B5154DAB78044673B110B14368012098470020FDF772F8EB680133EB600020F7
:206DE000BDE83840FDF772B803F0FF00FDF766F864B12A6942B1944208D0134601E09C42B3
:206E000004D01B68002BFAD122602C61EB68002BE2D100F09BF8DFE7C00A002038B5154D63
:206E20006B78044673B110B14368002098470020FDF744F86B6801336B600020BDE8384037
:206E4000FDF744B803F0FF00FDF738F864B1AA6842B1944208D0134601E09C4204D01B68F5
:206E6000002BFAD12260AC606B68002BE2D100F085F8DFE7C00A002038B5084C0020FDF76B
:206E80001DF86368013B6360656815B900F088F865700020BDE83840FDF718B8C00A002048
:206EA00010B5084C23780BB1852010BD064B002808BF184600F05EFB0028F6D10123237063
:206EC00010BD00BF082900200831010010B5044600F088FB00F08EFB204600F071FB00F0EE
:206EE00079FB002010BD00BF00B550E8002F02EA010340E8003E9EF0000FF6D110465DF8F1
:206F000004FB00BF054A13790BB18520704701211060537118461171704700BFD40A002016
:206F2000084B1A68D20704D4C02283F8002301221A604FF08041044A0123C1F818351370B3
:206F4000704700BF00E100E04335002010B4094B094A0021196083B01B680193019C4FF037
:206F6000804102200123C1F80403136003B05DF8044B70470401004008000040074B0022C8
:206F80001A6082B01B68019301994FF080430122C3F804231A6002B0704700BF00010040AA
:206FA000074B01221A604FF08042D2F80C3403F00113B3F1011FF8D0024B00225A71704753
:206FC00004000040D40A002010B5144B1A6882B062B10021124A19601B68507900934FF070
:206FE00080410123009CC1F8083390B10D4B1A686AB100221A601B6801934FF0804202210F
:20700000074B0198C2F808131B680120984702B010BD116853718847E8E700BF00010040D3
:20702000D40A00200401004030B4204C94F86A3082B01BB1082002B030BC704704F12F03F5
:2070400004F15F01FF2203F8012F8B42FBD1184A4FF0FF302060A2F159042146002307E045
:20706000072B41F8040F02F1010288BF02F8010C0133DBB20C2BF3D10E490F4B0020C022DF
:207080006066888083F8062340221A600B4B0C4A18601B680193019D4FF000410123C2F86B
:2070A000041384F86A3002B030BC7047DC0A0020350B0020400B002000E100E07C6100409F
:2070C00000600040034B93F86A00003018BF0120704700BFDC0A0020F0B54D4E351895F90E
:2070E0003030002B01DB0820F0BD8B78C3F3400CBCF1000F13D0336801337CD000274FF02F
:20710000080E7B1C06EB870404E054F8045F01350CD0013373451F46F7D30420F0BD336A18
:2071200001336DD008274FF00C0EEAE735187CB246F8272085F83040BCF1000F02D137448E
:2071400087F858008B785A071CD4DD0744D51F2887BF304B00F01F0202464FF0A04303EB96
:207160008203D3F8002722F00202C3F800272A4DC20800F0070EAF5C012303FA0EF33B43AF
:20718000AB548B7813F002030AD1083C2644097896F8602042EA811286F860201846F0BD05
:2071A000A30003F1804303F5C0430978D3F8104524F44F3424F44074C3F810450202090451
:2071C000D3F8100501F4403102F47C520A430243C3F810250020F0BD1F284A7887BF0D4DAD
:2071E00000F01F0303464FF0A04503F5E073920045F82320BBE70024326085F83040A1E7E6
:2072000008231F46326285F830301C4697E700BFDC0A002000030050400B0020F0B43A4DDF
:207220002E1882B096F93030072B20DD2B4493F858309B09032B45D0012B14BF4FF440319C
:207240004FF400311F284DD900F01F002F4B03EB8000D0F8002722F44032C0F80027D0F838
:2072600000370B43C0F8003702B0F0BC7047DAB2072AF9D8980000F1804000F5C04003F1C5
:2072800040029200D0F8104592B202F18042002744F0010402F5C042C0F81045019701986D
:2072A00017600029E0D096F9302055F82220002ADAD00122164902FA03F3C1F8043302B026
:2072C000F0BC70471F2810D9104BD3F8103500F01F00C340DB0748BF4FF44031B6D44FF434
:2072E0000031B3E74FF0A043B1E74FF0A0421346D2F81025C24012F0010F14BF4FF44031F5
:207300004FF40031A3E700BFDC0A00200003005000600040184B034493F93030072B13DDFF
:207320001F288ABF154B4FF0A04300F01F0003EB8000D0F8003723F44033C0F80037D0F87E
:207340000037C0F800377047DAB2072A13D810B49A0002F1804202F5C042094CD2F8100568
:20736000012120F0010001FA03F3C2F81005C4F808335DF8044B7047DC0A0020000300506F
:20738000006000402DE9F04F89B0002216460292039217466F4B704D704C012203E0A3429D
:2073A0004FEA420213D0184653F8041B0129F6D1D5F804130A42F2D043F8047C016800910D
:2073C000A34246EA020600994FEA4202EBD1644B1A68012A00F0A98016F0FF0F1AD0614F9B
:2073E00001250024A30003F180432E4203F5C0434FEA45050BD0D3F8100557F82420D3F8E2
:207400001015C0F30520C1F3014102B190470134082CE7D1002E02DB09B0BDE8F08F524D47
:2074200000224FF0FF3305920492A5F16408069307934E4C0027012614F9013B5A1C32D0AE
:20744000DBB223F0C00008AA4FEAD00C02EB0C0E03F007021EF8081C06FA02F2114222D08F
:2074600008EB0009990999F9309058F82990B9F1000F3AD003293AD01F288BBFDFF8F0C002
:207480004FF0A04C03F01F0303460CEB83031EF818CCD3F800E71CEA020FCEF3014E1AD128
:2074A000BEF1030F2ED0A542C6D1002FB4D04FF0A0430299D3F810352D4A9942D2F81025BE
:2074C00002D103999142A7D0049805990293039206900791ADE7BEF1020FE4D1032935D027
:2074E000B9F1000FDFD0C847DDE70329DBD10DF1100B0DF1100A1BF80CB04BEA020B0AF835
:207500000CB0B9E70329EBD14FF40032D3F800E72EF4403EC3F800E7D3F800E7013742EAA8
:207520000E02FFB2C3F80027DAE700221A601B6801934FF0A042019BD2F810250C4B02928D
:20754000D3F81035039346F0004645E74FF44032DCE700BF006100400060004020610040A4
:207560007C610040DC0A0020400B00203C0B002000030050104B1A780AB18520704710B4FB
:2075800002780E494FF08044C2F34002C4F88025027802F00102C4F878250A68D20704D4D4
:2075A000C02281F8002301220A6001221A7000205DF8044B704700BF4435002000E100E07F
:2075C000034B02680021196002B11A60704700BF500B00204FF080434FF46072C3F8042342
:2075E000704700BF4FF080434FF46072C3F80823704700BF014B00221A607047500B002088
:2076000010B54FF0804386B0D3F80443620705D5D3F8082103F58473002A4BD1A30603D56E
:20762000294B1A68002A3CD1600603D5274B1A68002A2CD1210602D5254B1A68F2B9E20542
:2076400002D5244B1A687AB9A3050BD5224B1A6842B100221A60214A1B6805930220136806
:20766000059A984706B010BD00221A601B4A1B68049301201368049A9847E5E70020186071
:20768000164A1B6803931368039A9847D7E700221A60134A1B68029301201368029A984794
:2076A000C8E7002018600E4A1B6801931368019A9847B9E700221A600A4A1B6800931368FE
:2076C000009A9847AAE700BF14010040180100401C0100402001004024010040500B002095
:2076E0004C0B0020480B002008B5FFF789FFBDE80840FFF769BC00BF00B5084B0849094AF2
:207700000020186083B01B680193019BD1F808051368C0B2984703B05DF804FB00D1004031
:2077200000D00040540B002070B443791E4C1F4E03EB430546F82320655D15B1082070BC70
:20774000704790F904308A78002B24DB03F1604303F561435201D2B283F8002390F9043024
:20776000002B07DB124D03F01F0601225B09B24045F8232003680A88C3F80825437908796A
:20778000C97803EB4303E218012550709170E554002070BC7047074D03F00F0352011D444A
:2077A000D2B22A76DAE700BF580B00205C0B002000E100E0FCEC00E00368044A012119603E
:2077C000437903EB43030221D1547047580B002010B403680022C3F8002183B0D3F80031DB
:2077E000026801930123019CC2F8443311B10268C2F8043303B05DF8044B70472DE9F04325
:20780000002585B02B4E2C4FDFF8B090A8464FF4803406E00135032D4FEA440406F1040650
:207820001AD0D7F804332342F4D03368002BF1D0C7F84843C7F80843C6F8008033680393E5
:20784000E8B2D9F80030039A01359847032D4FEA440406F10406E4D1174BD3F80423D10748
:2078600002D5D3F80021C2B9134BD3F80423920702D5D3F8042112B905B0BDE8F083002260
:20788000C3F804210D4AD3F80431019305201368019A984705B0BDE8F0830022C3F8002138
:2078A000064AD3F80031029304201368029A9847DAE700BF40B1004000B000405C0B0020A5
:2078C000084B09491B68094AA1FB03139B0C916800FB03F09368CB1A23F07F438342F9D3A7
:2078E000704700BF5802002083DE1B4310E000E030B44C689C4208D200254560096801601D
:2079000093420CD0002030BC704743600D6805600868E41A1844934281E81100F2D1201C5E
