:020000040000FA
:201000000000042029550000515500005355000055550000575500005955000000000000DC
:201020000000000000000000000000005B5500005D550000000000005F55000061550000E4
:2010400095970000B18D00007D1901006355000063550000635500001D94000063550000FE
:2010600049E400006355000063550000A198000063550000A5970000635500006355000036
:20108000ADB5000063550000635500006355000063550000635500006355000063550000E6
:2010A0006355000063550000635500006355000063550000635500000000000000000000E0
:2010C0006355000063550000635500006355000063550000635500006355000095B00000C3
:2010E000635500006355000063550000000000000000000063550000000000006355000058
:201100000000000000000000000000000000000000000000000000000000000000000000CF
:201120000000000000000000000000000000000000000000000000000000000000000000AF
:2011400000000000000000000000000000000000000000000000000000000000000000008F
:2011600000000000000000000000000000000000000000000000000000000000000000006F
:2011800000000000000000000000000000000000000000000000000000000000000000004F
:2011A00000000000000000000000000000000000000000000000000000000000000000002F
:2011C00000000000000000000000000000000000000000000000000000000000000000000F
:2011E0000000000000000000000000000000000000000000000000000000000000000000EF
:2012000001F0FF01102A2BDB10F0070F08D010F8013B013A8B422DD010F0070F42B3F6D194
:20122000F0B441EA012141EA014122F007047FF000070023F0E80256083C85EA010586EA41
:20124000010685FA47F5A3FA87F586FA47F6A5FA87F68EB9EED1F0BC01F0FF0102F007023C
:2012600032B110F8013B013A83EA010313B1F8D10020704701387047002D06BF354603389F
:20128000073815F0010F07D1013015F4807F02BF013015F4C03F0130F0BC0138704700BF63
:2012A00010B5054C237833B9044B13B10448AFF300800123237010BDD0020020000000009A
:2012C0005471010008B5034B1BB103490348AFF3008008BD00000000D40200205471010037
:2012E000A3F5803A704700BF174B002B08BF134B9D46FFF7F5FF00218B460F461348144AA7
:20130000121A14F0B7FE0E4B002B00D098470D4B002B00D098470020002104000D000D48DC
:20132000002802D00C48AFF3008000F02BF82000290002F0A9FF00F011F800BF0000080087
:20134000000000000000000000000420D002002080370020000000000000000008B5074B91
:20136000044613B10021AFF30080054B1868836A03B19847204600F029F800BF0000000096
:201380001064010070B50D4D0D4C641BA4100026A64209D10B4D0C4C15F02EF8641BA410D7
:2013A0000026A64205D170BD55F8043B98470136EEE755F8043B98470136F2E7C802002040
:2013C000C8020020C8020020CC020020FEE700BF00B585B00346002101AA44F20100CDE9BB
:2013E0000111039300F004F805B05DF804FB00BF72B6094BD3F8F030DB0700D500BEBFF303
:201400004F8F0549054BCA6802F4E0621343CB60BFF34F8F00BFFDE700ED00E00400FA0562
:20142000014B02481B681847EC020020306401000378052B02D0094B1B681847084BD3F8C0
:201440008424D3F88034DBB2002BF4D1054BD2B2052A08BF1846014B1B681847EC02002084
:20146000007002402C640100012803D0022809D020B17047054B06481B681847034B054887
:201480001B681847014B04481B681847EC0200202464010028640100206401002DE9F04FF2
:2014A00089B0002504460E4601929846049500E0013562680123D2F804902146002204A88F
:2014C000C8470028F4D18DF80E00069085B3814682460BE09DF80E306768023BD7F804B0D3
:2014E000D8479DF80E309A44554521D960680123D0F804B00DF10E02214606A8D847606816
:201500000123D0F804B00DF10F02214606A8D8479DF80F30B3424FF00002214606A8D9D11F
:20152000019B4B4508D009F101095FFA89F9D1E7052009B0BDE8F08F129A9DF80E3013601C
:2015400088F8003088F801606268023B556808F10202A847002009B0BDE8F08FF0B505465D
:2015600083B03B4809F0C8F8044610B1204603B0F0BD3849384A394B08701060014648220B
:201580001860374814F076FD36484822214614F071FD002D53D095E80700334B83E8070058
:2015A000002846D0002007F0FFFC08B1852843D12E4C237A002B48D0013BDBB204F10C023B
:2015C0004FF0030E6568274E254F1EFB032E04F1090C9CF80110D9B19CF802000CF10103EB
:2015E000013903440CEB000253FA81F112F8013B13F0800F03F00F000ABF03F00F0307EB18
:20160000C00306EBC30391421C6028685860EDD10CF1030CF445DCD10B238DF804302B688F
:20162000124801A99847044600289FD009F0A2F89CE70F4A1A60B5E7FFF7CAFEB8E70A4BAF
:201640000B4A1D72C3E90025ACE76568E4E700BF311400003B370020880300208C030020BA
:20166000F802002040030020EC0200205C640100E119000010B509F09DF968B109F0A2F923
:20168000044648B9064807F0A3FC034628B1FFF79FFE2346184610BD0823184610BD00BFBD
:2016A0001C64010009F070B809F098BE4FF0804303E0D3F83824D10707D5D3F838249207B9
:2016C000F7D5024B02481B6818477047EC0200204464010000B5054B83B082221B688DF873
:2016E000042001A8984703B05DF804FBEC0200202DE9F043077A83B0002F59D007F1FF3E9F
:201700005FFA8EF300F1090C00F10C024FF0030E304D314E61461EFB032E4C7800229442F1
:2017200001EB020319D091F8028013F9089013F80830B9F1000F0BDB03F00F0305EBC30383
:201740001B680132002BEAD0112003B0BDE8F08303F00F0306EBC303F2E703318E45DCD1A9
:2017600000241C4D1C4E224602EB420262445378D3B14FF0000E7346917813440EF1010E70
:201780005F56595C002F01F00F03B4BF06EBC30305EBC303186041680968596051785FFA60
:2017A0008EF39942E8D8077A0134E2B29742DBD80A4A13681BB11A681368002BFBD1106038
:2017C00043680B228DF804201B6801A9984703B0BDE8F08340030020F80200208803002089
:2017E000024B1878003818BF012070473A370020030710B5044604D52046BDE8104009F04E
:201800005FBE09F075FA204609F0B2FE2046BDE8104009F055BE00BF09F020BE014B18686B
:20182000704700BF8803002030B50F4B1D68A5B12C7AA4B100232A469C4603E05FFA83FC42
:2018400064450CD992F809E0864503F1010302F10302F3D109B181F800C0284630BD2B6827
:201860001D68002DE4D1F8E788030020436811461B68184700F00F03082B0AD802064CBF69
:20188000054A064A02EBC303186810B143681B6818471020704700BFF80200204003002005
:2018A00038B5094B1C6864B1054602E023681C683CB1636820461B68294698470628F5D030
:2018C00038BD062038BD00BF8803002038B504460D4609F0E5F818B1054B1B78022B01D084
:2018E000082038BD29462046BDE8384009F0E8B83B37002038B504460D4609F0D1F818B199
:20190000054B1B78022B01D0082038BD29462046BDE8384009F064B93B37002070B543685F
:201920009B6882B006460D46144623B19847062801D002B070BD1CBB337AAB4225D909363A
:2019400005EB450535446E78BEB13246234600E06A789A4216D9AB782A19D05C030706D49B
:20196000019009F0C5F9019809F002FE0198013409F0A6FDE3B29E42EAD8002002B070BDED
:201980000720D6E700231B78FFDE6378FFDE00BF70B54368DB6805460C4603B198472B7A71
:2019A000A3421AD9093504EB44042C4466789EB1002532462B4693420BD2A37862190135B1
:2019C000D05C09F04BFDEBB29E4205D962789342F3D300231B78FFDE70BD00235B78FFDE37
:2019E0002DE9F04103780546852B00F2D280DFE813F04902CB01D2006502A102F000F70042
:201A0000D000110124013701D000D000D000D0004A01D000D000D000D000D000D000D0004C
:201A2000D000D000D000D000D000D000D000D000D000D000D000D000D000D000D000D000A6
:201A4000D000D000D000D000D000D000D000D000D000D000D000D000D000D000D000D00086
:201A6000D000D000D000D000D000D000D000D000D000D000D000D000D000D000D000D00066
:201A8000D000D000D000D000D000D000D000D000D000D000D000D000D000D000D000D00046
:201AA000D000D000D000D000D000D000D000D000D000D000D000D000D000D000D000D00026
:201AC000D000D000D000D000D000D000D000D000D000D000D000D000D000D000D000D00006
:201AE000D000D000D000D000D000D000D000D000D0005E0186007D012B020E02F000734B48
:201B0000734F5A687349186890473C68002C00F07482704D636820461B682946984723682E
:201B20001C68002CF6D1DFF8BC81D8F804300BB10D2098473D6875B12E7A46B10024214659
:201B400028460134FFF724FFE1B28E42F8D82B681D68002DF0D101F0B1FB5F4B1B68002B9B
:201B600000F0638201205D4E08F0F4FE3278931EDBB2062B00F249825949CB5C13B107F080
:201B8000F9F93278022A40F0408208F05FFF01233370BDE8F081514E3278931EDBB2062BA0
:201BA00040F2F481082A01D108F050FF4D4B5B68032232700BB102209847454B1C6844B14B
:201BC000636820461B682946984723681C68002CF6D13E4B2946D3E90002BDE8F04110471E
:201BE00090F902308278002BB4BF3F4B374B02F00F0203EBC203D3E90002294690470028A4
:201C0000C7D0A8780207C4D00307C2D4BDE8F04109F040B8334B5B680BB1082098472C4B8E
:201C20001C68002CB5D0636820461B682946984723681C68002CF6D1ABE72A4B5B680BB1E5
:201C400009209847224B1C68002CA2D0636820461B682946984723681C68002CF6D198E76A
:201C6000204B5B680BB10A209847194B1C68002C8FD0636820461B682946984723681C68ED
:201C8000002CF6D185E7174B5B680BB10F2098470F4B1C68002C3FF47CAF636820461B68DA
:201CA0002946984723681C68002CF6D171E70B4C2378062B00F0818103F0FD03052B7FF4D1
:201CC00068AF08F0CDFE0223237062E74003002088030020406401008C0300203B37002035
:201CE00014640100EC020020F8020020894F3D6875B12E7A46B10024214628460134FFF7DD
:201D000047FEE1B28E42F8D82B681D68002DF0D1814E09F017FB3278931EDBB2062B30D84A
:201D20007E49CB5C13B107F025F93278022A28D108F08CFE3C68002333704CB1784D636894
:201D400020461B682946984723681C68002CF6D1744B7349D3E900029047734B5B680BB1FD
:201D60000E2098473378023BDBB2062B3FF611AF6A4AD35C002B3FF40CAFBDE8F04107F0F2
:201D8000F9B8082AD6D1D3E7624F3E688EB196F80880B8F1000F08D000242146304601348D
:201DA000FFF7F6FDE1B28845F8D833681E68002EEDD1594E01F078FA3278931EDBB2062BDA
:201DC00000F2EE805549CB5C002B00F0E980022A03D0082A01D008F043FE534B5B6802229A
:201DE00032700BB1012098474E4B2946D3E9000290473C68002C3FF4CCAE636820461B68B7
:201E00002946984723681C68002CF6D1C1E6424E3378032B00F0DA8008F0DEFD00283FF4EA
:201E2000B8AE3278931EDBB2062B40F20A813F4807F072F83278022A01D0082A01D108F0DB
:201E400005FE06233370A4E6334E3378032B7FF4A0AE09F099FA00283FF49BAE33789A1E7B
:201E6000D2B2062A00F2F6802C498A5C12B107F081F83378022B40F0ED8008F0E7FD042340
:201E8000337086E6244B1B78032B00F09B80082B00F09880244B5B680BB100209847244B61
:201EA0001C68002C3FF475AE636820461B682946984723685C68002CF6D16AE6164E32787A
:201EC000082A72D0931EDBB2062B00F2A2801349CB5C002B00F09D80022A00F0A3800523E9
:201EE0003370114B5B680BB1032098470D4B2946D3E900029047074B1C68002C3FF449AEDA
:201F0000636820461B682946984723681C68002CF6D13EE6880300203B37002014640100E3
:201F20003C64010040030020EC020020740000208C030020494B5B680BB103209847484BA4
:201F40004849D3E900029047474B1C684CB1454D636820461B682946984723681C68002C79
:201F6000F6D1424E3378062B24D0082B0BD09A1ED2B2062A5CD83E498A5C002A58D0022BA0
:201F800001D008F06DFD0223337002E63849CB5C13B106F0EFFF3278022A3FF405AE01E66B
:201FA000344806F0B9FF327811E70223337008F061FD96E707233370EBE508F051FD0823AC
:201FC0002370E6E52C48FFF70BFD63E709F0DCF900283FF421AF33789A1ED2B2062A36D8C9
:201FE00023498A5C12B106F0C5FF3378022B2ED108F02CFD042333700EE7DFF86080D8F8D4
:202000000430002B7FF494ADA5E5082A7FF4BFADBBE5184806F080FF3378022B02D0082BC0
:202020007FF45DAF08F012FD59E798F808009AE5104806F071FF3378022BA4D0082BA2D014
:202040009FE70B49CB5C002B7FF4F5AEEFE6082BD0D1CDE7082B7FF412AF0EE7EC02002077
:202060004003002034640100880300203B37002014640100740000203864010043681B694E
:2020800003B118471846704770B50A4B1D687DB12E7A4EB100242146002228460134FFF7FE
:2020A0003DFCE1B2B142F7D32B681D68002DEFD170BD00BF8803002070B5094B1D6875B1D7
:2020C0002E7A46B10024214628460134FFF760FCE1B2B142F8D32B681D68002DF0D170BD5D
:2020E000880300204360CA699A4205D38A6902600B67CB610020704701F1280202608B6771
:2021000000207047F0B5046891F808E0002C00F04484A4F2123CBCF17C0F00F28280BCF1C5
:202120007C0F7ED8DFE81CF0C900E402CF02180346011F03F20211037D007D007D007D00EB
:202140007D007D00BC0316027D007D007D007D0078037C026B027D007D007D007E03000359
:2021600081007D007D007D007D00B803840281007D007D007D007D007D007D00CC037D00EE
:202180007D007D007D006703930197027502C8027D007D00C102D602BA020602FF017D001A
:2021A0007D00F801260354019C037D007D00F9029003DD02B203EB027D007D007D007D008F
:2021C0007D007D007D007D007D007D007D007D007D007D007D007D007D007D007D00560353
:2021E0009E027D007D007D000D017D007D007D007D00AA037D007D007D007D00A2037D0003
:202200007D007D007D007D007D007B034D017D007D007D007D00B8007D007D007D007D00E1
:20222000B800002303601846F0BD002A00F0A284047915464FF0010C2C7000249C450471DB
:2022400080F048830CF1010412B1057902F80C50BC4D91F814C02D682E78B44500F03F835E
:20226000B94E6D783570B94E4FF0000C86F800C0AC45C0F02983B64D95F800C00CF1010C96
:202280005FFA8CFC85F800C0F445C0F0358340F2993303600120F0BD012400250AB10679CC
:2022A0005655AA4EA84D96F800C02D780CF1010C5FFA8CFC86F800C0DAE7002A00F06F849C
:2022C00004791470012B4FF00B04047140F2AA8425460126022495559C420D7D057180F0BE
:2022E000D483661C15559E424FF00204047180F0BD83751C94559D424FF00204047180F0CE
:20230000A6836E1C54559E424FF00204047180F08883751C9455AB424E7E067140F26F837E
:202320006C1C5655A3424FF00005057140F25D83161901343570864D4FF0000C85F800C055
:20234000A2E7804C0125266800241AB190F804C002F804C034780E7DA64200F0F8828E7DE7
:20236000A64200F0AB834024AB42047140F2BF826C1C002A00F0D78206795655A3424FF0D5
:202380000005057140F2BF821619013435706D4D0E7D2D682D78AE4200F0BA828E7DAE42B0
:2023A0007FF47FAF0025A342057140F287842546013473E7002A00F044840479012600251A
:2023C000A0E7002A00F04A84057916460124DDE7002A00F056840679944601240225A3424D
:2023E0008CF80060057140F2BA822E46651C1655AB424FF00504047140F2CA82264602EB34
:20240000050C6C1C2425A3428CF80060057140F2BA822E46651C1655AB424FF00604047122
:2024200040F2AC825619013534700E7D0671AB4240F29F826C1C5655A3428D7D057140F2E7
:2024400093821619013435703E4D2D6808E7002A00F0F983047901264FF0000C02F80C4084
:20246000B3424FF00004047140F20583751C9455AB424FF01004047140F2EE826E1C5455F1
:20248000B3424FF00104047140F2D08235199455AB424FF00504047140F2B6826E1C54558C
:2024A000B3424FF02404047140F2A482751C94559D424FF00104047180F092822E1954556D
:2024C0009E424FF00304047180F08582751C94559D428E7D067180F079826C1C56559C4293
:2024E0004FF00405057180F06C821619013435709C424FF02405057180F05E822E46651CB6
:2025000016559D424FF00204047180F05082264602EB050C6C1C61E7002A00F0CB83057955
:2025200016460124E3E7002A00F0C683067901240025D3E7002A00F0AF8304790125002655
:20254000C5E700BF900300203C3700203E3700203D370020002A00F096830479164601256F
:2025600034700E7ABB4C2478B44280F0B98304EB440401F10906B84F16F804C080F804C09D
:202580003444AB423C6040F27B826C1C002A00F0818206795655A3424FF00005057140F26B
:2025A000608204F1010C1555AB4C256863456C78047140F2478202EB0C060CF1010C3470A0
:2025C0002C780D7DA54200F024828D7DA5427FF434AE0A246345047140F27A830CF101048E
:2025E000002A00F07882057902F80C50A3424FF00005057140F2118304F1010C1FE0964CAB
:202600002568002A00F02783047916464FF0010CD5E7002A00F03A830479012600252EE7D3
:20262000002A00F03B8305794FF0010C0024BAE7002A00F02F8305794FF0010C002415550F
:2026400063454FF00004047140F24F8202EB0C050CF1010CF0E5002A00F0228304790125D8
:20266000002604E7002A00F023830579944601248CF80050784D2E68784D96F801C02D7824
:20268000AC4540F22A8396F802C03544A34215F80C50057140F25681651C56E6002A00F0FD
:2026A000D48204790126002509E7002A00F0CF82047901260025F2E6002A00F0D98204790D
:2026C00001250026E3E6002A00F0E28205790126002407E6002A00F0E78204790125002665
:2026E000E5E6002A00F0BF820479164601259BE6002A00F0D782057901240026EBE5002AFE
:2027000000F0BA820579164601249CE6002A00F0CD8206790124002503E6002A00F0A182B4
:202720000679944601246DE6002A00F0A38205794FF0010C0024155563454C7E047185D8ED
:2027400040F22E3303600120F0BD002A00F08D82057916460124EDE5002A00F09082047912
:2027600001250026C6E5002A00F07382047901250026CFE501250024002A40F09D810224EE
:20278000AB42047140F213816C1C0225A342057140F2E580651C0524AB42047140F2F880BA
:2027A0006C1C2425A342057140F2ED80651C0624AB42047140F2E28001350C7D0471AB428C
:2027C00040F2D7806C1C8D7D0571A34240F2CC80013439E601260024002A00F02C81057921
:2027E0001555B3424FF00505057140F2A68002EB060C741C3CE74FF0010C0024002A00F027
:2028000079810579155563454FF02404047140F24E810CF1010621E601240025B6E601243B
:202820000025A6E501244FF0000C002A00F0E781057902F80C50A3424FF00205057140F24F
:20284000A98104F1010C76E701250024002AAED00679E0E53D370020900300203E370020DD
:2028600001250024002A96D00679C0E501250026002A3FF478AD0479945574E50125002483
:20288000002A3FF470AD067916556CE501240025002A98D00679CEE501244FF0000C9FE680
:2028A00001250024002A00F06981067916559D424FF00404047180F00981561901354FE671
:2028C00001244FF0000CBFE40725A34205712FD9661C81E74FF44F7303600120F0BD05250C
:2028E000A342057140F2518104F1010C86E740F2833303600120F0BD0925A342057140F236
:202900007981651CCEE74FF4617303600120F0BD0D6AA3422D7805713FF649AD40F28933AF
:2029200003600120F0BDA3420271ECD901342EE540F26D3303600120F0BD40F26E330360C8
:202940000120F0BD40F2723303600120F0BD0324AB42047140F26B812C46013590E740F2A9
:20296000523303600120F0BD40F2593303600120F0BD4FF4567303600120F0BD40F25733B9
:2029800003600120F0BD40F2563303600120F0BD40F2553303600120F0BD08240471002B63
:2029A0007FF48BAC40F2123303600120F0BD40F2513303600120F0BD4FF454730360012050
:2029C000F0BD40F24F3303600120F0BD4FF4537303600120F0BD40F24B3303600120F0BD4A
:2029E00040F24A3303600120F0BD40F2193303600120F0BD40F2493303600120F0BD4FF426
:202A0000467303600120F0BD4FF4527303600120F0BD02246345047140F20E810CF101048D
:202A200003E740F2173303600120F0BD40F2453303600120F0BD0524B34204717FF67DAFF0
:202A4000741C17E64FF44A7303600120F0BD40F2163303600120F0BD4FF451730360012081
:202A6000F0BD40F2273303600120F0BD40F2153303600120F0BD40F2433303600120F0BD68
:202A800040F2263303600120F0BD4FF4457303600120F0BDA3420271E3D90134934D2D6890
:202AA0009C426E780671CDD204F1010C88E540F2423303600120F0BD067921E50224AB425D
:202AC000047140F200812E460135D1E640F2213303600120F0BDA342027140F29E800134D9
:202AE00000259C420571C0F0948040F2353303600120F0BD242463450471D8D90CF10104B6
:202B000000259C420571B6D201341025A3420571A2D9013401259C42057187D22C440525D2
:202B20009C420571BFF470AF013424259C420571BFF460AF01340125A34205717FF650AFB1
:202B40002C4403259C420571BFF445AF01348D7D05719C42BFF43AAF013404259C42057101
:202B6000BFF42FAF01342425A34205717FF624AF651C04E64FF0010CFFF75FBB04249D42D5
:202B80000471A3D20E7A0135ECE440F2413303600120F0BD40F22D3303600120F0BD0B24F4
:202BA000012B04713ED902240D7D05719C42BFF46CAF013402259C420571BFF457AF0134ED
:202BC0000225A34205717FF642AF013402259C420571BFF426AF01344D7E05719C42BFF4CE
:202BE0000EAF013400259C420571BFF4FEAE0134FFF7A1BB4FF4487303600120F0BD02252E
:202C0000A3420571C6D901344D7E05719C42BFF497AD04F1010CFFF710BB4FF44D73036046
:202C20000120F0BD40F2133303600120F0BD40F2773303600120F0BD4FF44B73036001208B
:202C4000F0BD0124C2E701245AE7012479E701246BE70124C0E74FF0010CB1E40124FFF7CF
:202C600096BB01249DE50125A7E50124FFF763BB012454E70124C7E70124FFF7E5BB01245E
:202C80009EE7012481E5764601256BE4012441E701248FE7012423E7012458E70124FDE670
:202CA000012432E701247FE7012444E7012499E70124DFE4012456E701244EE740F28E33BF
:202CC00003600120F0BD4FF45F7303600120F0BD40F2333303600120F0BD00231B78FFDE21
:202CE000024A002313601B78FFDE00BF9003002070B90B681A7B202A01D006207047D3F81C
:202D00000EC0598A1A7DC3F818C099839A777047032070474360CA699A4210D38A6910B4CE
:202D20000260C8690C6FC01A1A44C8612344003818BF01205DF8044B8A610B67704701F1E3
:202D40002802026000208B67704700BF2DE9F0470B7888B00C4605460E2B14D8DFE803F0DB
:202D600008180808130D281313181308080808000024204608B0BDE8F0874B78DA0930D165
:202D80005B09012B4DD00624204608B0BDE8F0870368002403F134022046C3E91E44C3E949
:202DA00020441C845C62DC625A6708B0BDE8F087027A002A00F06581837A0930002B00F0B1
:202DC0005E818B78E97A415C9942D1D01B061FD4E77807F0FD03012BCAD0002F66D00324D9
:202DE000C7E713F0600FC3F3411200F09580012AC9D18B78212BC6D1B1F80720072AC2D166
:202E00000168601C183108B0BDE8F04700F060BAE478002C00F0A080032C14BF0324002401
:202E2000A7E78B780668202B00F09E80222BAAD1B1F80730002BA6D1B1F80330328C33849F
:202E400003F0010702F00102BA4291D0C3691BB1C7F10301C9B29847002F89D12B7A012BBD
:202E600040F20B816B7B05F10C08002B00F00381AB7B18F8030008F0C9F82B7A012B40F210
:202E8000FC806B7B012B40F2F680AB7B98443C4698F8010008F0BAF806F13403C6E91E77CB
:202EA000C6E920777762F762736762E72E68012A06F10C0100F0E1806A7B012A05F10C034C
:202EC00040F2D980AA7B069113446F4A0592B46A93F80180002C63D1F36FC6F88030F36A4D
:202EE000C6E91E44002B00F0B58006F12C0393E8030006F1240383E803000023F36205A91B
:202F00004046FEF7F7FC0446EB69002B3FF431AF0021284698472CE703F01F03012B7FF432
:202F200032AF8E78062E7FF42EAF05A8039200F0DFFC03AB00930746E278217928463B46A8
:202F4000FEF7ACFA05283FF41EAF601C039A394600F0BEF904460CE7EB69002B3FF408AFC4
:202F600001212846984704E7B1F80720072A7FF40AAF3373B1F80730DBB2737300200E366D
:202F8000CDE90563079000F0DDFF05A90020FEF79DFC0446002866D0002000F0DBFFE8E6F4
:202FA000D6F884A0706A544528BF544606F134092246494613F076F8F26FF767AAEB040334
:202FC00009EB04011444F26AC6F88040C6E91D13002A42D006F12C0797E8030006F12404E0
:202FE0004FF0000984E80300C6F82C90DBB938E0706A13F057F8B26AB36FC6F880209B1A77
:20300000B367736F13447367EB6913B1002128469847F36A13B397E8030084E80300B36FC7
:20302000C6F82C90EBB1B26A716F9342E0D21A46706A13F037F8B26FB36AF2679B1AB3622A
:20304000736A1344736253B105A94046FEF752FC044659E70023736256E700237362002411
:2030600052E7736AEFE7094B03A9CDE9033500F02BFC044690E73B78FFDE7B78FFDE1B78AB
:20308000FFDE5378FFDE00BF152D0000F12C00000368B3F820C01CF0010F18D00B46017AC7
:2030A000012918D9417B00F10C0C91B110B5817B84B01CF8010091060CBF0124002401A98F
:2030C000CDE901320394FEF701FC04B010BD082070470B78FFDE00235B78FFDE0368D3F8B5
:2030E00080007047F0B50468238CDB0783B022D50546002016460F4600F024FFA26F42B992
:20310000636AE3B11124002000F024FF204603B0F0BD964228BF1646616F3246384612F03D
:20312000C1FFD4E91D32921B3344C4E91D32C4F880600024E7E70824204603B0F0BDC4E976
:2031400009762A7A012A12D9697B012905F10C020FD9AB7B084D13440C3458786946CDE9F5
:203160000054FEF7C7FB041E08BF9224CBE75B78FFDE1B78FFDE00BFE52000000020704738
:203180002DE9F04F4B6885B0CDE900020C46002B70D007F07BFDE568019B9D4228BF1D46FC
:2031A0008146002D7BD04FF0000A56464FF00108D346D4E90113AB421F4628BF2F46E1B179
:2031C0003A4609EB060012F06DFFA268E368C4F804B0D21BED1B3E44DF1BA260E76022B3B3
:2031E000002F08BF4FF00008002DE2D1009BC3E90096404605B0BDE8F08FABB1204609EBC0
:20320000060250F8101B4B68D3F804A03B46D047A268E368D21BED1B3E44DF1BA260E7606A
:203220005AB14FF0010ADBE7E768BAF1000F04D15FB9B846002DBCD1D8E723681B681B6879
:2032400023604FF0010A002FF3D02168F1B1CDF808B003E0A36821680133A3604B68002284
:203260005F6802A80123B8470028F3D12061002D9FD1BBE70B681B681B68002B89D18B681D
:20328000002B86D1C0E900339846B2E76160002EACD0019BB34288BF4FF00008A6E72E46CE
:2032A0004FF00108A2E700BF08B50020FEF7A0FABDE808408020FEF79BBA00BF08B500209F
:2032C000FEF7AAFABDE808408020FEF7A5BA00BF70B5C38893421E4628BF1646934284B0C0
:2032E0000D4612D8002400200394CDE9015600F029FE01A98020FEF7E9FA044688B10020CD
:2033000000F028FE204604B070BD8020144607F0B7FBB4FBF0F202FB1044B4FA84F4640938
:20332000E1E707F08BFD80280BD1094A094B92E8030083E80300002000F00CFE204604B0FC
:2033400070BD002000F006FE1024204604B070BDA4640100B80300202DE9F04F0B780E2BBC
:2033600089B00CD893B1013B0D2B0FD8DFE803F07118130E33480E0E0E0E18621D23852B10
:2033800004D1A64B1A78032A00F025810625284609B0BDE8F08FA24805F044FD002878D10B
:2033A0000025284609B0BDE8F08F4FF08043D3F83834DB075DD4994B1A78012AF0D099490E
:2033C00099480A78012422F002021C700A700025FEF706FBDBE705230DF115008DF8143068
:2033E00007F096FC9DF81530904E002203F01F043260032C00F29680DFE804F096BF766D98
:20340000C87803280C46C1D0884E3368002B00F0EE8000227168326098470546002860D154
:203420003368002B00F0E580A378002BB8D107F091FCACE7794A1378002BB1D079497A480D
:203440000B78002523F0020315700B70FEF7C8FA9DE7724A1378032B98D0724972480B789C
:20346000032423F0020314700B700625FEF7B8FA8DE76A4A1378022B92D06A496A480B7812
:20348000022423F0020314700B700025FEF7A8FA7DE7674B0122DA65BFF36F8FBFF34F8F7B
:2034A0007EE79DF81620062A00F03381082A00F01F8182B95B495F4B09781A80890744BF0F
:2034C00002221A705B4902220DF11500FFF700FF0546062D03D105A8FEF7E2F90546002D27
:2034E00041D007F0A1FC52E79DF81900020707D005A9FEF7BFF906280546F0D19DF81530F1
:2035000013F0600F0ED19DF81630444A9DF819401278012B00F0A080032B00F08D80002BE7
:2035200000F0AD800625DCE713F0600FC3F34117D1D1DB09B5D19DF81630032B00F0B280C9
:20354000092B00F0BE80012BC5D1BDF81730012BC1D1FEF745F9002800F0F180314A1378CB
:2035600023F0020313703368002B4BD007F066FC054600287FF414AF59E79DF8190003A933
:20358000FEF752F90446002840D09DF80C1005AAFEF76CF906280546A1D19DF8152012F0F8
:2035A000600F9ED11D4B9DF80C101B78D20940F0DB809DF816200B2A93D1052B70D1BDF891
:2035C0001730FF2B00F2BD809DF817202046FEF7A5F9054683E7134913480A78042422F05E
:2035E00002021C700A700625FEF7FAF9CFE60E2577E74FF08053D3F83021082A08D007F039
:2036000009FCC4E607F006FC0025C0E6102568E7D3F83431002BF2D1C2E600BF3F37002098
:20362000C0030020403700206C640100B803002000700240C403002025073FF573AFBDF894
:203640001730002B7FF46EAF052A01D0200727D1204607F01FFB86E721073FF563AFBDF842
:203660001730002B7FF45EAF052A01D0220717D1204607F03DFB204607F07AFF73E7052A53
:2036800001D027070CD1204607F010FB8549034602220DF115000B80FFF71AFE05461EE7AF
:2036A00008251EE7BDF81730012B7FF414AFFEF797F8002843D07C4A137843F002031370AF
:2036C00051E77A4C2378043B012BE9D89DF81730002B38D0012B34D1FEF7D6FC2378052B53
:2036E0003FF441AF052372482370FEF779F93AE76E4A1278052A4ED0042A7FF4ECAE694B2C
:203700001F70684901220DF11500FFF7E1FD0546DFE69DF81830022B56D0032B3ED0012BB7
:203720007FF4D9AEBDF81B30002B3FF46BAF614912220DF11500FFF7CBFD0546C9E60F253A
:20374000CFE60725CDE6FEF7B7FC2378042B3FF40AAF554A56481378042123F002032170E1
:203760001370FEF73DF9FEE69DF81670002F7BD00A2F7FF4B6AE052B92D120460192FEF791
:203780007DFC4849019A03460B700DF11500FFF79FFD0546A3E6434A1370B2E7BDF81B309E
:2037A000002B3FF42FAFBDF819109DF8170000F0B7FB014600283FF48EAE02780DF1150036
:2037C000FFF786FD054684E6BDF81B30002B3FF419AF092B28BF09239946FEF71FF84FF024
:2037E000090A0546B8B103974FF0000801E008F101086A680123D2F804B02946002203A88E
:20380000D8470028F3D12A682B7A15681C44C244E4B2002DE7D1234D27494A46284612F028
:2038200041FC2C71A5F802A0FDF7DAFF18B1EB7943F02003EB71FDF7F1FF204B1860BDF847
:203840001B20DA600020C3E9015900F07BFB1C498020FEF74FF8054690B1002000F07AFB15
:20386000062D7FF43EAE36E6052B7FF419AF0D4902220DF115000F80FFF72AFD05462EE697
:2038800007F0DCFA802808D10E4B93E8030086E80300284600F05EFB65E6284600F05AFBDD
:2038A00010251EE6C4030020403700203F3700206C6401009064010070640100A00300205D
:2038C000AC640100A464010038B505460C4607F0B5FAA84207D194E80300044A82E80300A2
:2038E0000023184638BD1023184638BDB803002008B1402303600148704700BFC4030020CC
:2039000030B50C7A002C75D001F1090E0468002C00F0AD816FF4AB7504EB050CBCF1140FB9
:203920006AD8BCF1140F67D8DFE81CF01500FA0060018B017101820157014E01E70066007E
:203940006600D300BF006A0066002B0069015C007A0124004901002A00F0D9810479147050
:20396000012B4FF00404047140F27781A44601250224DCE04FF0010C002442B390F804E072
:2039800084E04FF0010C0024002A40F063810A8A9C454FEA1222027180F07D810CF1010450
:2039A0004A8A02719C4280F0718104F1010C4A8A9C454FEA1222027180F063810CF1010493
:2039C0008A8A0271A34240F24D8104F1010C8A8A63454FEA1222027162D840F26B13036090
:2039E000012030BD4FF0010C0024002ADFD090F804E031E0A64689E700230360184630BDC6
:203A0000002A00F0CB8190F804C01546012485F800C091F810E080F804E0A34240F240818A
:203A200004F1010C02F804E0B1F810E09C454FEA1E2E80F804E080F02E8102EB0C050CF131
:203A4000010485F800E091F812E080F804E09C4280F01C8104F1010C02F804E0B1F812E0C7
:203A60009C454FEA1E2E80F804E080F00A8102EB0C050CF1010485F800E091F814E080F837
:203A800004E09C4280F0EE8004F1010C02F804E0898A63454FEA112101719ED96244117070
:203AA00040F26D130360012030BD002A00F0788190F804C001244FF0000E02F80EC0A34265
:203AC0004FF0090C80F804C040F2EF80151901349DE7002A00F0668104794FF0010E4FF0C3
:203AE000000C02F80C4073454FF02104047140F2E180A4460EF10104DFE7002A00F04881B9
:203B000004794FF0010C4FF0000E02F80E4063454FF00904047140F2D2800CF1010EE0E787
:203B2000002A00F0378190F804C00124002502F805C0A3429EF800E080F804E040F2E28013
:203B400004F1010C02F804E063454FF00004047140F2D3800CF1010E02F80C4073454FF057
:203B60000004047140F2C4800EF1010C02F80E4063454FF0FF04047140F2B5800CF1010E30
:203B800002F80C4073454FF00104047140F2A6800EEB040C02F80E4063454FF00104047164
:203BA00040F297800CEB040E02F80C4073454FF00004047140F288800EF1010CA5E7002A01
:203BC0003FF46EAF01796AE7002A00F0F18004794FF0010E4FF0000CE6E7002A00F0E480DE
:203BE00004794FF0010C4FF0000ED3E7002A00F0E38090F804E04FF0010C0024A2E7002AE9
:203C000000F0CA8090F804E01546012419E7002A00F0D08004794FF0010C4FF0000EA5E772
:203C2000002A00F0C38090F804E01546012422E7002A00F0C38004794FF0010E4FF0000CBF
:203C40009EE7002A00F0A28004794FF0010E4FF0000C81E790F804E0E4E64FF4AC7303602A
:203C6000012030BD4FF4B5730360012030BD09240471002B7FF46FAE40F2571303600120DD
:203C800030BD40F269130360012030BD4FF4B4730360012030BD40F267130360012030BD20
:203CA0004FF4B3730360012030BD4FF4B2730360012030BD40F263130360012030BD4FF4F5
:203CC000B1730360012030BD40F25F130360012030BD4FF4AF730360012030BD40F25D13C2
:203CE0000360012030BD4FF4AE730360012030BD40F25B130360012030BD4FF4AD730360A7
:203D0000012030BD40F259130360012030BD0422012B0271A1D902249EF800200271A34213
:203D2000F0D9013400229C420271E6D201340022A3420271DCD90134FF22A3420271D2D99D
:203D4000013401229C420271C8D214440122A3420271BED914440022A3420271B4D9013422
:203D60000922A3420271AAD901342122A3420271A0D9013409229C42027196D201340A8A12
:203D800002719C428CD204F1010C00E60124CEE70124E5E70124BFE7012401E60124EEE7F0
:203DA0000124E7E70124E0E70124CFE7012407E60124D0E70124BFE70124B3E70124C0E705
:203DC0000B780E2B0BD8DFE803F0080808080A0C080A0A0A0A080808080000207047062007
:203DE0007047F0B54B78DA0985B00C46064611D15B09012B02D0062005B0F0BD8C78002CF2
:203E0000F9D102681373036A002B39D0214698472046F1E713F0600FC3F3411214D0012A39
:203E2000E9D18B78072B09D0082BE4D1C2688169601C05B0BDE8F040FFF74ABAB1F80720EE
:203E4000182AD8D1C169F3E703F01F03012BD2D18D78062DCFD103A80292FFF749FD02AB8F
:203E600000930746E278217930463B46FDF716FB0528C0D0029A3946601CFFF729FABBE763
:203E80001846B9E770B54FF0805286B0D2F8A830D2F8A41000916FEA83436FEA93430B4A64
:203EA0000B4E9BB20D2102A80CF0CEF902AD002404E015F8013B06F8013B013402A812F0A6
:203EC0002BF98442F5D306B070BD00BFC86401000404002010B5114B53F8204023780BB90E
:203EE000A01C10BD0020FFF703FD217899B12246C4F1010C02EB0C03DCB2234620F81410E7
:203F000012F8011F0029F5D101335B00DBB243F44073038010BD40F20233FAE73065010054
:203F200040B1052808D8054A105C28B1044B53F820300BB1FFF7CEBF002070474865010041
:203F40003065010072B6024A136801331360704714040020034A1368013B136003B962B6FB
:203F6000704700BF1404002010B50446006830B1002107F039FE54F8040F0028F8D110BDCF
:203F800010B590F84C30094A0446013384F84C3080212346203000F0B1FD054B224619784E
:203FA000BDE81040002007F0E1BE00BF813F0000413700202DE9F041038804463BB1B3F58F
:203FC000867F0AD182290DD00120BDE8F0814FF4867323800120BDE8F08100230380032063
:203FE000BDE8F08101F056FBBFF35F8F1649174B0E6800220A601F781A70FFB2BFF35F8F94
:20400000134D01F04BFB28680028E0D0DFF8448003E055F8040F0028D9D090F8463026FAD4
:2040200003F3DA07F5D590F8453047FA03F3DB07EFD500F0E7FD0028EBD02B6842461846D5
:20404000022100F05BFDE4E72804002044370020CC0000208D40000010B4094A094C1368A3
:20406000194311602178012202FA00F040EA0103DBB2237004485DF8044B07F0A9BE00BF70
:204080002804002044370020D400002070B5044600F0B8FD00B970BD04F12006304600F0CA
:2040A000B1FD94F84610054694F8450001F0B0FA48B994F8443063B9002DECD1304600F04C
:2040C00087FD0D4B11E00128F6D194F84430002BF2D1002DDFD000252346084A84F84C5061
:2040E0007E21304600F00AFD054B197822462846BDE8704007F03ABE43370020813F00005F
:2041000042370020F8B507F067FD304B304C187007F062FD2F4B304F187007F05DFD2F4ADE
:204120002F4B107022687B600025FF213972FD60002A42D02B4E09E091F84600F9683A7259
:20414000834054F8042F0B43FB60B2B392F8463092F84510926C03F01F0343EA41131F2B52
:20416000C6BF03F01F0331464FF0A04103F5E07342F08C0241F82350236893F8461093F860
:20418000450001F001FA226892F8463092F8450003F01F0343EA4010012105F095F82168D6
:2041A000387A91F8452082424FF00103C4D0FF28C2D054F8042F002AC8D10B48002107F05E
:2041C00013FDBDE8F840044801F036BA42370020CC000020433700201804002041370020D2
:2041E0005940000000030050D4000020042800D0704708B5054A13680133136000F026FEEA
:2042000000B908BDBDE8084000F0F6BD2C04002000B5134B83B000221A6004F033FEC0B9C0
:20422000002004F04BFE0F4B0F4A93E803000090ADF804100D48694605F0C8FA60B90121B1
:204240000A4805F017FB094805F008FB03B05DF804FBFDF7BDF8E3E7FDF7BAF8EFE700BF07
:204260002C0400207C650100ED41000084650100014B1868704700BF2C040020014B186896
:20428000C00970472C04002038B5664C07F084FBFFF7BEFF0AF0EAF807F0D8FC6248002114
:2042A00007F0A2FC00F016FC10F0F6F900F0F0FC0CF00EF807F078FB07F0A8FD04F024F983
:2042C00004F034F92368022B3ADC584A584B1168526819605A605748002107F085FC4FF0CD
:2042E000FF300DF0F1FD2368022B054611DC07F089FB5148FFF738FE10F0F6F907F0C2FCD0
:204300000446E4B210F0F8F9002CF7D107F080FBF4E74A4A4A494B4807F096FB4A4807F0C0
:2043200093FB2368022BE2DD05B10235284601F01DFC2368022BDADD0A2007F057FDD6E772
:204340003E4A3F493F4807F07FFB404807F050FD2368022BB9DD394A39493A4807F074FB4E
:204360003B4B3C48196807F06FFB2368022BACDD324A3349334807F067FB374B37481968C2
:2043800007F062FB2368022B9FDD2C4A2C492D4807F05AFB324B3348196807F055FB23689E
:2043A000022B92DD254A2649264807F04DFB2E484AF6CD3107F048FB2368022B85DD1F4A65
:2043C0001F49204807F040FB28481A2107F03CFB2368022B7FF779AF184A1949194807F090
:2043E00033FB234B2348198807F02EFB2368022B7FF76BAF114A1249124807F025FB1E4820
:2044000007F022FB2368022B7FF75FAF074801F0BDFB2368022B7FF758AF0A2007F0E6FC1C
:2044200053E700BF380100201801002068060020B834002058020020086E01008C65010074
:20444000946501009C65010068660100AC65010014690100DC6501003C6E0100EC650100C2
:2044600094660100F865010004660100206601002837002040660100506601002DE9F047C7
:204480000D468B6892F82C900646506B1446D3E9007801F043FB686807F0F4FCA9681D489F
:2044A00001F02EFC1C48294601F02AFC606B01F0E7FAD8B10023A38507F012FD174BA3FB80
:2044C0000023C11A03EB51039B08C3EBC303C11A134A234604F10C0000F010FB4B463246DF
:2044E00041463846BDE8F04701F0D4BB04F10C0000F06EFB21460B4801F010FB21460A4892
:2045000001F0FEFB4B46324641463846BDE8F04701F0C0BBE4000020FC0000202549922417
:204520002D45000098040020F000002020B32DE9F047044684B0406B01F0A2FA0546C0B1AB
:20454000406807F0B5FC76490D2007F009FA0121082007F0F7F900F0BDF900280DDAAB682C
:204560003BB105202246294604B0BDE8F047FFF785BF04B0BDE8F087704707F07FF9694FDB
:2045800090F802807B68019307F078F9064607F07FF9019B01463046984707F0F5F9BB6936
:2045A00001930646984700282DD1002E61D1D7F81C90C84738BBBB681E4607F069F9B04762
:2045C00000286BD002281ED0AB68002BD1D00420C8E709F031FF6FF028031E1A03E009F0E7
:2045E0002BFFC64202D5C8470028F8D0C84700286ED03B69032103A89847032803D19DF858
:204600000E3043453BD0AA68002AB2D094F82D104B1CDBB2052B84F82D301AD8127A94F83B
:204620002C00904221D2012B88BF1F2671D907F057FCB0FBF6F101FB160104F10C003A4A13
:20464000234600F05BFA686804B0BDE8F04707F013BC94F82C300133DBB2002184F82D1003
:2046600084F82C30127A9A4216D82246294601207AE7BE6807F00CF9B0470028A2D1AB68EC
:20468000002B3FF476AF94F82C300020013384F82D0084F82C3065E70726C8E709F0CCFEEF
:2046A0006FF0180AAAEB000A04E009F0C5FE1AEB000F02D5C8470028F7D0019B98470028AE
:2046C00087D1C847002884D17B699847002880D0A96800293FF44DAF94F82C300133002214
:2046E000DBB284F82D2084F82C300A7A9A4203D822462946022037E707F0F2FB0B4BA3FB62
:204700000023C21A03EB52039B08C3EBC303C11A93E70B1D0126DBB206FA03F35E1E86E730
:2047200068060020706701002D450000254992242DE9F04106460E200F4607F01DF9554BBA
:204740001A780546002A6FD0534C2178002940D04A1CD2B289B20720227007F0F3F80121C0
:204760000C2007F0EFF84D4801F08AF9044620B918E001F0F7F90446A0B12946201D01F0F2
:2047800073F903462046002BF3D0606B01F0E0F9072821DD394630460123BDE8F041062237
:2047A00001F078BA3E4801F08FFA04460028F1D02946201D01F052F9002304F13000C4E9C6
:2047C0000C30A38501F058F93448214601F05AF9DBE701210222BEE7324801F075FA05463A
:2047E00088B3314801F070FAA86040B307F022FB686000B30620D5F8088007F0ABF8C8E95A
:20480000006710F0FF000ABF082388F8080088F80830606B294601F035F9606B01F030F9C0
:2048200085421ED0BDE8F08101221A7007F058FB194CC1B28AE7A9681B4801F061FA19484C
:20484000294601F05DFA606B01F082F90028A1D12146124801F062F92146114801F050FAC8
:2048600098E794F82D30012B0ED91F2507F038FB2346B0FBF5F10D4A01FB150104F10C00EB
:20488000BDE8F04100F03AB90333DBB201259D40013DEBE745370020463700209804002094
:2048A000F0000020FC000020E40000202D45000008B5054801F0F6F9044801F0F3F9BDE89E
:2048C0000840034801F0EEB9FC000020E4000020F000002010B501210C2007F033F8024BFB
:2048E000BDE810405B681847CC660100014B9B68184700BFCC660100014B1B6A184700BFDF
:2049000070670100014B5B6A184700BF7067010010B50D4B82B01B6898470C4B04469B6A61
:2049200001A91820984701280BD0002C019BB8BF1524802BD4BFC4EB0300C4F1800002B063
:2049400010BD002002B010BDCC66010070670100FFF7EEBE30B50C4C83B0A56A69461820D8
:20496000A84738B901A90420A84728B1FFF7A0FF236A984703B030BD0199E36A21F0020125
:20498000019104209847F1E77067010030B583B006F078FF032801D103B030BDFFF7A6FF15
:2049A0000028F9DB0E2006F0E7FF224901F05CF808B30D2006F0E0FF1E4901F055F8044695
:2049C0000028E9D101F00CF90546C8B1082006F0C1FF0028E0D002238DF804308DF80540DD
:2049E00006F04CFF144B8278DB688DF80620032101A89847D0E706F0C7FF0028CCD0D8E78D
:204A000001F014F9082006F0A5FF18B90B4B9B689847C1E702238DF804308DF8055006F077
:204A20002DFF054B8278DB688DF80620032101A89847EBE768060020706701003C6E010083
:204A4000F0B5038883B0054633B14A2B18D188291BD0012003B0F0BD1B4801F011F80446A2
:204A600030B1A168201D00F0CDF92468002CF8D1164B01221A704A2301202B8003B0F0BD31
:204A800000230380032003B0F0BD0F48019200F0F7FF04460028EED0019A031D9A4205D081
:204AA0002468231D002CE6D09A42F9D10648084E214601F033F8D4E90523376832600BB1A9
:204AC000E06998473760D6E77805002047370020C80E002010B5064B064800241C7000F025
:204AE000CBFF21460448BDE8104007F07DB800BF47370020780500200801002070B58261ED
:204B00000D4A0E4D044610782E68E361666130B9A1600B482146BDE8704000F0B3BF201DD8
:204B2000084B2B6000F06EF92E6021460448BDE8704000F0A7BF00BF47370020C80E002001
:204B4000780500200801002070B50C4B1B7804462BB921460A48BDE8704000F093BF094DAC
:204B6000094B2E682B60043000F056F92E6021460348BDE8704000F085BF00BF4737002027
:204B800078050020C80E00200801002070B50C4B1B7804462BB921460A48BDE8704000F01E
:204BA00071BF094D094B2E682B60043000F03EF92E6021460348BDE8704000F063BF00BF39
:204BC0004737002078050020C80E00200801002010B50A4B1B7804463BB9C0E9033321464A
:204BE0000748BDE8104000F099BF043000F036F921460348BDE8104000F090BF4737002052
:204C00007805002038B50C4B1D7804466DB90B4800F036FF38B1A04202D10BE0844209D00E
:204C200000680028FAD1012038BDBDE83840043000F006B9002038BD4737002078050020B3
:204C400010B50446C0B20FF0F3FC0A2C01D0204610BD0FF0BDFC204610BD00BFF8B588B11B
:204C60000F46461E002500E0013516F8014F20464CB1AF4207D00FF0DBFC0A2CF4D10FF0E7
:204C8000A7FCF1E705460FF0A3FC2846F8BD00BF704700BF10B5FFF7EBFA0B4B1A68D2E925
:204CA000003192680B44191A52B1D2E9003423441B1A9268994228BF1946002AF5D1431853
:204CC000024A136010BD00BF800500207C0500202DE9F843038805465BB3592B2CD18729DD
:204CE0002FD0822920D12C4FDFF8B4803C684FF00009CCB1002603E0A3682646A3B11C46F4
:204D000020460CF0FDFD0028F6D0E0682246882107F02CF803464046002B2AD007F058F89A
:204D2000A3682646002BEAD159232B800120BDE8F883194A1360F7E7002303800320BDE88C
:204D4000F883154F3968002019B9EDE789680120D9B1CB689342F9D000B139608B68002B38
:204D6000E2D0D868904207BF9B688B6019469B68F5E7E360A3686EB1B3603B68C4F8089006
:204D80002BB1FFF787FF3C68B3E73960CCE7034A1360C9E73B60F1E7800500207C05002008
:204DA0001801002010B50446104807F011F81049E3680A684BB142B194420FD0134601E05F
:204DC0009C420BD09B68002BFAD10A4BA2601B68E3600C60BDE81040FFF75CBF054B1B68BF
:204DE000E360BDE81040FFF755BF00BF1801002080050020C80E0020014806F0E9BF00BF38
:204E00001801002010B504460CF05EFD2046BDE81040FFF7C7BF00BF10B504460CF05CFDF9
:204E20002046BDE81040FFF7BDBF00BF10B504460CF060FD2046BDE81040FFF7B3BF00BFFC
:204E4000C068B0FA80F04009704700BF024B1868003818BF012070478005002010B5124BD6
:204E600019688142044614D00B462BB19A68A24206D01346002BF9D10023C4E9023310BDB7
:204E8000A2689A6049B1FFF705FF0023C4E9023310BD82681A60002AF5D1044B00221A6009
:204EA0000023C4E9023310BD800500207C050020014B1888704700BFC402002000283ED05C
:204EC000037A022B30B410D00378022B15D00379B3B10024C37913F0030318BF012301B1E1
:204EE0000C6002B1136030BC7047C579447A037965B90CB9012BF2D0DBB100231C46EEE74E
:204F0000447A14F0030418BF0124E3E7C4B1032D37D1032C2ED0022C24D143BB022D2DD0DB
:204F20000123032D24D1A4F10204B4FA84F46409D5E7023C012C8CBF00240124CFE77047D2
:204F40004BB9022D08BF0123EAD1A4F10304B4FA84F46409C3E7032D01D0022D02D1234633
:204F60001C46BCE7002BC8D1022DDAD1EDE701230024B4E7002BC0D10123D4E701231C46B6
:204F8000ADE7022DC7D1002BF1D1022C4FF00103DBD11C46A3E700BF30B500230B608B8083
:204FA000437D0D46D9075CBF01232B70037E012B83B0044623D901AA694604F11000FFF7A9
:204FC0007DFF009B0BB10223EB70019B0BB102236B70E37D03F00303022B03D0032B14BFCC
:204FE00000230823AB70637E03F00303022B03D0032B14BF002308232B7103B030BDC37DA3
:205000009A0706D0437E9B0703D0C28B838B9A4202D000232375CEE701230375CBE700BF5D
:2050200002280CBF012307230B441A78FF2A184603F1FF3303D18142F7D101207047002048
:20504000704700BF00B583B06946FFF7A5FF9DF800309DF801209DF802009DF803100233BA
:20506000134403449DF804209DF805000B441344184403B05DF804FB4378827890F800C039
:20508000DB00120102F0100203F0080313430CF0070290F803C0134302794FEA4C1C0CF00C
:2050A000200C920143EA0C0302F0400213430B704379827990F809C003F00103520043EA72
:2050C0008C1302F0020290F807C01343027A4FEA8C0000F00C001201034302F03002134386
:2050E0004B70704730B583B005460C466946FFF753FF214605F11000FFF7BEFF9DF80030AD
:20510000012B04BFAB7EA3709DF801300CBF03220222022B08D1AB8BA354531CA98BDBB227
:20512000090A0232E154D2B29DF802306BB303F1FF3E1344AE44DBB294460132D2B21EF8DC
:20514000011904F80C109A42F6D19DF80320022A08D1EA8BE2545A1CE98BD2B2090A02335C
:20516000A154DBB29DF8040088B100F1070C1844AC44C0B21A460133DBB21CF801E904F8FE
:2051800002E09842F6D103B030BD1346DDE7184603B030BD02784378C2F3C00002F0070C22
:2051A0004870C2F3401081F800C0C870C2F3001C03F00100C2F3801281F802C00A71C3F349
:2051C000400CC3F301124871C3F381009B0981F806C0C8710A724B72704700BF012943DDB5
:2051E0002DE9F04186B00F4603A914460546FFF7D1FF0B4603CB9DF811201B8820616161FB
:2052000023836AB3AE1C03A802AA01A9FFF756FE9DF81380B8F1000F43D0029B002B31D1F9
:20522000B8F1020FA38367D0B8F1030F4DD09DF81580B8F1000F2CD0019BBBB9A38BE383FD
:20524000B8F1020F4DD0B8F1030F31D0701B3B1A8742C4E90E6300DA002006B0BDE8F0812E
:20526000AB78A376EE1CCEE700207047727816F8023B03EB0223029A9BB2E383002ADFD1EB
:20528000A383DDE7727816F8023B03EB02239BB2C6E71E4904F1080000F0E0FBA4F81E8079
:2052A000D4E71A49204600F0D9FBA4F81C80BEE706F10800034604F1080213F8011D02F85F
:2052C000011BB342F9D10646C0E706F108000346621E13F8011D02F8011FB342F9D10646EA
:2052E000A5E70A4904F1080000F0B8FB7378237216F8023B6372A9E70449204600F0AEFBB3
:205300007378237016F8023B637090E7D866010030B591B006F0A2FA044606F0B3FA6A46E6
:2053200001462046FFF75AFF00283ED0044606F07BFAD0B39DF810100C2006F003FB9DF899
:205340001310082006F0FEFA9DF817308BB1BDF81C50FFF7ADFD854205D0BDF81C204FF669
:20536000FF739A4221D19DF817006946FFF758FEB0B102A90D2006F0F3FA9DF815303BB164
:205380004FF6FF71072006F0DDFA204611B030BD9DF81A10072006F0D5FA204611B030BD91
:2053A00069460E2006F0DCFAE3E74FF0FF34ECE7F8B505460C2014460E46A84700232074BD
:2053C000A37496B3E37463750920A847002701232376A07567740720A847A076FFF768FDCB
:2053E000E0830A20A84701280CBF3B4603236376FFF75EFDA0830B20A84701281AD066B9FD
:205400000323E375637E022B0CD0E37DA3F10203B3FA83F35B092375F8BD0223E375637EF9
:20542000022BF2D101232375F8BD0820A8476675E074C9E7E775E5E730B591B00446FFF787
:2054400037FD4FF6FF7398425DD040220021684610F010FE2D4B1A7832B36CBB06F094FA81
:2054600001466A462A48C9B2FFF7A2FF06F08CFA00283DD04FF6FF73ADF800300D2006F051
:205480007BFA014602A800F0E9FA06F0E7F90E9006F0F8F9034668460F93FFF7D3FD0546CE
:2054A000D4B9284611B030BD01221A7006F018FD184B1870002CD1D0072006F04BFA002849
:2054C000CCD1144D2978D9B189B2072006F03AFA2B7801332B70C1E706F076F998B106F059
:2054E000CDF901466846FFF7FDFD284611B030BD0E2006F041FA0146684600F0AFFABDE754
:2055000001212970E1E74FF0FF35CAE74837002055B90000493700200120FFF78DBF00BF75
:205520000020FFF789BF00BF0649074A074B9B1A03DD043BC858D050FBDC0BF049FCFBF73F
:20554000D3FE00006071010008000020D0020020FEE7FEE7FEE7FEE7FEE7FEE7FEE7FEE766
:20556000FEE7FEE700F01F0301219940C0F3471000F068B808B503F00DFE00B108BDBDE864
:20558000084003F0CFBD00BF30B583B00223002501F01F018DF8063012F00C03ADF804504D
:2055A000144641EA401508D0042B26D0082B28D00C2B04BF03238DF8043014F0030306D030
:2055C000022B16D0012B04BF03238DF805300F4A01A9284603F0E8FD230604D4284603F03E
:2055E000E3FE03B030BD0121284603F06DFE03B030BD01238DF80530E9E701238DF8043011
:20560000DBE702238DF80430D7E700BF6555000001F01F0141EA40101F28CABF054B4FF0C8
:20562000A04300F01F00D3F8101521FA00F000F001007047000300500146014800F022BA26
:205640008405002070B505460C480E4600F018FA90B1044601E0246874B1237AAB42FAD115
:20566000E36816EA0301F6D063682846002BF2D098472468002CF0D170BD00BF8405002002
:2056800008B5034800F0F8F9BDE80840FFF772BF84050020EFF3108072B6704780F3108808
:2056A000704700BF032824D8124B00EB40001A181B5C9178527803F01F0343EA421361B1A0
:2056C0001F2BC6BF0C4903F01F034FF0A041012202FA03F3C1F8083570471F2BC6BF064991
:2056E00003F01F034FF0A041012202FA03F3C1F80C3570475C6501000003005010B51B4A70
:205700001B4C00234FF0010C40FA03F1C90713D59178B9B1117892F801E001F01F0141EA2A
:205720004E111F29C6BF01F01F01A6464FF0A04E0CFA01F1CEF80C150133042B02F10302D9
:20574000E2D110BD117892F801E001F01F0141EA4E111F29C6BF01F01F01A6464FF0A04E43
:205760000CFA01F1CEF80815E6E700BF5C6501000003005010B51B4A1B4C00234FF0010CAD
:2057800040FA03F1C90713D59178B9B1117892F801E001F01F0141EA4E111F29C6BF01F063
:2057A0001F01A6464FF0A04E0CFA01F1CEF808150133042B02F10302E2D110BD117892F8E7
:2057C00001E001F01F0141EA4E111F29C6BF01F01F01A6464FF0A04E0CFA01F1CEF80C1577
:2057E000E6E700BF5C650100000300500F4A10B40F4C02F10C0C03201378517803F01F03F9
:2058000043EA41131F2BC6BF03F01F0321464FF0A04103F5E0730332944541F82300EBD12B
:205820005DF8044B0F20FFF7A5BF00BF5C6501000003005010B50948FFF786F9084802F09A
:20584000EFFC48B1064C037A5B0801460372204602F0AEFC0028F6D110BD00BF480600208B
:20586000280100200146014802F098BD2801002080B110B50446FEF7FBFC2368C01AB0F589
:20588000963F05D2207A032894BF0020012010BD002010BD0020704770B50546144689B16E
:2058A000022907D006290CD129462B48BDE8704002F074BD2848294602F070FD06460028CE
:2058C00032D170BD2448294602F068FD0646002835D0FEF7CDFC337A30602344102BA8BFE9
:2058E00010233372FEF7C4FC3368C01AE401B0F5963FA4B208D2337A042BB38834BF1922D2
:205900000A222BB9B48070BDB3881922002BF9D0C2F16400114904FB02F203FB0022A1FB8C
:2059200002325209B28070BDFEF7A2FC337A30602344102BA8BF102333720C34D2E7334656
:2059400005480822294602F097FC06460028B8D047F6FF73C380BCE7280100201F85EB5122
:2059600038B50546042005F0F5FF29460446244824B202F013FD68B3B0F9063047F6FF723D
:20598000934232D004EB840252001E4C5A2113FB012384FB0324DB17C3EB6414838824B2B3
:2059A000C48003B138BD6FF03B039C42A8BF1C466FF058039C42B8BF1C465A3424B24FF49E
:2059C0007063B3FBF4F4B4F5C07F28BF4FF4C074848038BD034608220948294602F04CFCB2
:2059E0000028DFD047F6FF73C3808388C480002BD8D147F6FF739C42D5D14FF48074E7E783
:205A0000280100201F85EB5138B5094802F008FC60B1074D04462146284602F0DBFC214675
:205A2000284602F0C5FB04460028F4D138BD00BF2801002010B50021054802F097FBBDE8B6
:205A40001040044A044800234FF4E131FFF756B82801002035580000480600200B684A6877
:205A600042600360704700BF08B5082210F00AFBB0FA80F0400908BD00230360704700BF9B
:205A8000006870470368DBB110B4002400E0134699420FD01A681C46002AF8D100230B60B0
:205AA0000368CBB11A461B68002BFBD111605DF8044B70470A686CB1226000221A60EDE7D8
:205AC00000230B6003684BB11A461B68002BFBD1116070470260F0E70160E8E7016070474E
:205AE00030B405684DB12B46002400E01346994207D01A681C46002AF8D10D6030BC016046
:205B000070470A683CB1226000221A6005680D6030BC016070470260F6E700BF03689BB1BE
:205B200010B4002400E0134699421A6805D01C46002AF8D15DF8044B704734B122600022D9
:205B40001A605DF8044B704770470260F7E700BF03682BB100201B680130002BFBD17047F1
:205B60001846704700B10068704700BF00B58BB00246282168460EF05BFC6946024805F00F
:205B800063FF0BB05DF804FBE066010008B3F8B50025114F0446012665B1EB070FD521786A
:205BA000384605F051FF082E12D0013501360134002DF2D12178384605F046FFF5E72E20FD
:205BC00006F014F92178384605F03EFF082EECD1F8BD024805F038BF746B0100E466010070
:205BE000F8B5FEF745FB104E0746344600250D2005F0C2FE2146FFF737FF103420B90135B1
:205C0000102DF4D10020F8BD072006EB051505F0A1FE2B7B8342F5D1A868381AB0F5206F20
:205C20008CBF00200120F8BD7006002070B5184E002435460D2005F09FFE2946FFF714FF2C
:205C4000103510BB0134102CF4D10F2406EB041C64465CF8100DDCF80410DCF80820DCF8E7
:205C60000C3066450FC4F3D1072005F073FE3073FEF7FEFA03460D20B36005F07DFEBDE8EB
:205C8000704001460248FFF7E9BE002CDED1EBE7700600208C4611461A46034608B16046B2
:205CA0001847704710B5044642884068002110F0E1F923886288A06803FB02F2BDE81040CE
:205CC000002110F0D7B900BF30B44588ADB14368002202E00132AA420CD0194601330C7884
:205CE000002CF7D101230B700588806802FB050030BC7047002030BC70472846F8E700BF28
:205D000010B4448882685CB18A420ED0B0F800C0002301E0914209D00133A3426244F9D1B1
:205D20004FF0FF305DF8044B704700234268D15C0029F5D00020D0545DF8044B704700BF54
:205D400083688B4208D84288008800FB023081422CBF00200120704700207047418849B1EC
:205D600043680020194413F8012B02B901308B42F9D1704708467047026F00F174018A42E2
:205D800007D0002380F87432521A00F234700BF0F5BA012380F87432704700BF90F8383097
:205DA000024623B90B4B0C48197805F0DFBF10B5022300F2347480F8603020460BF0FCFA0E
:205DC00020460BF007FB20463422BDE81040002110F050B9503700203C01002008B505F0CF
:205DE000FBFE1B4A1B4B1070187005F0F5FE1A4B187005F0F1FE194B187005F0EDFE184BEF
:205E0000187005F0E9FE174B187005F0E5FE164B187005F0E1FE154B187005F0DDFE144B88
:205E2000187005F0D9FE134A134B1070187005F0D3FE124B187005F0CFFE1148FFF71CFE75
:205E40001048002105F0D0FE0F4B01221A7008BD4E370020553700204D3700204F3700209F
:205E600052370020533700205137002050370020563700204B370020543700204C370020E3
:205E8000740700203C0100204A37002070B5012300250621044684B080F86010A0F868303E
:205EA0002946A0F89C5280F838504FF4087200F5956010F0DFF80F490F4A84F8745204F286
:205EC0003476CDE902214FF4007304F17401CDE9001304F2A622214630460BF0EBF9B4F830
:205EE000302704F5E461304604B0BDE870400BF01FBA00BFA55F00008179000070B5D0F810
:205F0000A0520446006F16462944551B04F51D72121A954228BF1546ADB22A4610F0C2F847
:205F2000D4F8A002226F28442A448642C4F8A002226703D10020C4F8A00270BD04F17401F0
:205F40008A420BD0002384F87432521A04F234700BF014FAD4F8A002301A70BD012384F8C1
:205F60007432F9E708B5026F034600F51D70824205D011701A6F01321A67002008BD03F172
:205F800074018A4209D0002083F87402521A03F234700BF0F3F9012008BD012083F87402F2
:205FA00008BD00BFF0B583B0032A8DF807200C460ED8F2B92C492D4809780722012384F895
:205FC000602084F87432224605F0D0FE03B0F0BD042AFBD1B1F856372BB9012201F17403F4
:205FE00081F874220B6704F11800FEF7CFFD03B0F0BD1F4B1D480A460427197805F0B6FE6E
:2060000004F1180084F86070FEF7E2FD636E0DF10702012120469847164BE06E19780022B2
:2060200005F0A4FE002604F1740323672422314604F2347584F86A6004F51E7010F01AF872
:2060400028460BF0B9F928460BF0C4F934223146284610F00FF8637D84F86070012BB5D1DF
:206060002046FFF713FFB1E74D3700203C0100204B370020563700202DE9F04F83B00388B7
:206080008DF8071040F296618B420546144600F0BC816BD840F276618B4200F03D8240F2A2
:2060A000BF8040F284618B4240F0A981A64B9DF807101B788B4200F09383A44B1B788B4211
:2060C00040F27683A24B1B788B4240F0D282A14ED6F800A09AF86030DFF87492DFF894827B
:2060E00040F28E27032B01F09682BAF89C32BB4201F0238100F263814BB140F28D229342E8
:2061000041F0D4809AF87432002B00F06981DAF870300AF51D729A4201F0DF82E021197005
:20612000DAF870300133CAF870309A4201F0F68000201870DAF870200AF1740101328A429B
:20614000CAF8702001F0F3828AF87402521A0AF234700BF013F94FF480710AF104000BF04E
:20616000B3FB40F29D23AAF89C322DE1B3F5D66F00F03C8240F2BD618B4240F09380724B49
:206180009DF807101B788B4200F05D836F4B1B788B4240F201836E4B1B788B4240F0738215
:2061A0006C4E346894F86030694F4FF00008092B40F0FE80B4F89C32002B01F03F81A3F2A1
:2061C0006B339AB2252A00F2F080252B00F2ED80DFE813F09204AF04EB00EB000705290552
:2061E0003505EB00EB005E05F204EB00EB00EB00EB00EB00EB00EB00EB003A05EB00EB00C9
:20620000EB00EB00EB00EB00EB00EB00EB00EB00EB00EB00EB00EB00EB00EB00EB00D200E7
:20622000002B00F0C58040F25F62934240F0E780454B9DF807101B788B4200F0E082464B20
:206240001B788B4201F0E180444B1B788B4201F03080434E33788B4201F0A580414B1B78BE
:206260008B4201F07580404B1B788B4201F044803E4B1B788B4201F02D803D4B1B788B425C
:2062800040F0968094F87432324E012B346040F08F8094F86030092B40F08A800022A4F8BF
:2062A0009C2281E740F2A3618B4240F0A880264B9DF807101B788B4200F0D482234B1B7899
:2062C0008B4240F28182224B1B788B4240F0F181204ED6F8009099F86030DFF87480254F21
:2062E000092B41F0F681B9F89C32002B01F04981A3F531739AB21F2A00F2FE811F2B00F2DF
:20630000FB81DFE813F0DC04FE04F901F901F9016A058E05F901F901F901F901F901F90189
:20632000F901A805C2054205F901F901F901F901F9015405F901F901F901F901F901F90191
:20634000F901F901E00100BF4B370020553700204C370020700700204E3700204D370020D8
:206360004F37002050370020523700205337002051370020C80E002004F1040994F8993286
:20638000012B05D048460BF0BBFA002800F02D8448460BF0B5FA4FF40872002104F59560F1
:2063A0000FF068FE002384F86A300023A4F89C3240F25F632B80012003B0BDE8F08F40F2E9
:2063C0009D22934240F072879AF87432002B40F058820AF104000BF093FA002840F05182E1
:2063E00099F80010D8F80000002205F0BFFC002800F03F81D6F800A09AF8603072E6002377
:2064000003202B8003B0BDE8F08FA14B9DF807101B788B4200F0E9879E4B1B788B4240F204
:20642000AF819D4B1B788B4240F028819B4E376897F86030DFF860A2DFF8649240F2B138A3
:20644000092B41F0EB80B7F89C32434500F0A18747D82BB1B3F56C7F58D197F8743293B31D
:206460003B6F07F51D729A4201F04981C02119703B6F01333B67934200F07C8700201870F6
:206480003A6F07F1740101328A423A6701F0548187F87402521A07F234700AF06FFF0123F6
:2064A00087F838304FF40872002107F595600FF0E1FD4FF4A061381D0BF006FA4FF46F7390
:2064C000A7F89C3210E09AF80010D9F80000002205F04CFC002800F0D180376897F8603066
:2064E000AEE7B3F56F7F11D197F8B03423B9381D0BF006FA0028E6D04FF40872002107F538
:2065000095600FF0B7FD002387F8383000239DF80710A7F89C32A6E65D4B9DF807101B781A
:206520008B4200F07B875B4B1B788B4240F21C81594B1B788B4240F0C180584E3768B7F85E
:206540009C32DFF860914FF00008002B01F06A80A3F22B239AB2422A00F2F380422B00F2F9
:20656000F080DFE813F0AB04C904EE00EE004C067606F00405051D052C053A05EE00EE004F
:20658000EE00EE00EE00EE00EE00490552058206EE00EE00EE00EE00EE00EE00EE00EE00B8
:2065A000E405ED050506EE0015061E063706EE00EE00EE00EE00EE00EE00EE00EE00B10565
:2065C000BA05D405EE00EE00EE00EE007D058605A105EE00EE00EE00EE00EE00EE00EE0036
:2065E000EE00EE00EE00EE00EE008806284B9DF807101B788B4200F0E886264B1B788B42B9
:2066000040F2A680244B1B788B424DD1234ED6F8009099F86030DFF88080214F092B41F099
:206620005480B9F89C32002B00F062876FF4457213449AB2182A7ED8182B7CD8DFE813F04D
:20664000630184017B007B007B00E10104027B007B007B007B007B007B0029024302CB01DA
:206660007B007B007B007B007B007B007B007B00620040F284632B8001209DE640F296634D
:206680002B80012098E640F2BD632B80012093E64B370020553700204C3700207007002091
:2066A000C80E0020F46601004FF4D6632B80012082E640F2A3632B8001207DE640F2766367
:2066C0002B80012078E609F1040A99F89932012B05D050460BF014F9002800F082835046DA
:2066E0000BF00EF94FF40872002109F595600FF0C1FC002389F86A3000239DF80710A9F85D
:206700009C32B5E509F1040A99F89932012B05D050460BF0F5F8002800F0778150460BF08D
:20672000EFF84FF40872002109F595600FF0A2FC002389F86A3000239DF80710A9F89C3288
:206740009BE5C64E9DF807100023A7F89C3281E5C34B1B788B42FFF455AFC24B186805F01C
:2067600005FB9DF807104DE7BD4B1B788B42FFF4DFAEBC4B186805F0F9FA9DF80710D7E679
:20678000B74B1B788B42FFF44CAEB64B186805F0EDFA9DF8071044E6B14B1B788B42FFF428
:2067A000FAACB04B186805F0E1FA9DF80710F2E4AB4B1B788B42FFF485ACAA4B186805F082
:2067C000D5FA9DF807107DE4A54B1B788B42FFF47AADA44B186805F0C9FA9DF8071072E549
:2067E000A14BA0481B680068032683F860600026A3F89C6205F0BAFA9DF8071062E40322F7
:20680000994B84F86020002704F17402394604F23476226784F86A70242204F51E701C60BF
:206820000FF028FC30460AF0C7FD30460AF0D2FD3946342230460FF01DFC04239DF807108C
:2068400084F86030FBE4884B1B68032083F860000020A3F89C02834B186805F087FA9DF847
:20686000071098E4804B7F481B680068032683F860600026A3F89C6205F078FA9DF80710D2
:2068800021E537680023AAF89C3207F174034FF000083B672422414607F2347987F86A808C
:2068A00007F51E700FF0E6FB48460AF085FD48460AF090FD3422414648460FF0DBFB366871
:2068C000042387F86030736E0DF10702012130469847664BF06E1978424605F047FA9DF830
:2068E0000710BBE409F174018A4200F04E870023521A89F8743209F234700AF03FFD40F225
:206900001533A9F89C3299F87432002B7DD0D9F8702099F8781209F51D739A42E2D01170F8
:20692000D9F870300133C9F870300023C9F8A03299F8842209F520714846FFF7DFFA40B187
:2069400040F21633A9F89C3299F87432002BEFD15BE0D9F87010B9F8862209F51D738B42EB
:206960004FEA12223CD00A70D9F870200132C9F87020934299F8861255D01170D9F870203A
:206980000132C9F87020B9F88C129A424FEA11216ED01170D9F870200132C9F870209A425D
:2069A00099F88C127ED01170D9F870300133C9F870300023C9F8A032B9F88C22D9F8881253
:2069C0004846FFF79BFA8346002800F03A874FF44973A9F89C3299F87432002BECD114E07B
:2069E00009F174018B4200F006875A1A002389F8743209F234700AF0C1FC40F21A33A9F8AA
:206A00009C3299F87432002BA3D198F800103868002205F0ABF900283FF446AED6F800902A
:206A200099F86030FAE509F17401994200F048875A1A002389F8743209F234700AF09EFC5C
:206A400040F21B33A9F89C3299F87432002BDCD0D9F8702009F51D738BE700BF4F37002073
:206A600054370020C80E0020700700205637002009F17401914200F01E870023521A89F84A
:206A8000743209F234700AF079FC40F22233A9F89C3299F87432002BB7D0D9F8702009F504
:206AA0001D7370E709F174018A4200F0F6860023521A89F8743209F234700AF05FFC40F26C
:206AC0002333A9F89C3299F87432002B9DD0D9F8702009F51D7362E704F174018A4200F0C4
:206AE0004F8684F87482521A04F234700AF046FC40F26B33A4F89C3294F87432002B74D032
:206B000094F87832226F04F51D718A42E4D01370236FC4F8A0820133236794F8842204F5CB
:206B200020712046FFF7EAF940B14FF45B73A4F89C3294F87432002BEFD156E0216FB4F88A
:206B40008C3204F51D728A424FEA132339D00B70236F013323679A4294F88C1253D019702E
:206B6000236FC4F8A08201332367B4F88C22D4F888122046FFF7C2F900285CD194F8983265
:206B8000002B00F00786226FB4F8863204F51D718A424FEA13236BD01370236F0133236788
:206BA00094F886122046FFF7DDF9002800F0F28540F27533A4F89C3294F87432002BEFD18F
:206BC00013E004F174018A4200F01A8684F87482521A04F234700AF0D1FB40F26F33A4F84E
:206BE0009C3294F87432002BA8D1C64B39781868002205F0BBF800283FF445AD346894F870
:206C00006030FFF7D4BA04F17401914200F0408684F87482521A04F234700AF0AFFB4FF40E
:206C20005C73A4F89C3294F87432002BDDD0236F04F51D728FE740F27133A4F89C3294F8B5
:206C40007432002B91D1D0E794F87432002BCCD0B4F89422D4F890122046FFF74FF9824615
:206C6000002800F0A08540F27E33A4F89C32EBE704F174018A4200F0028684F87482521A2C
:206C800004F234700AF07AFB4FF45D73A4F89C3294F87432002B7FF476AFA6E709F174017D
:206CA0008A4200F07B850023521A89F8743209F234700AF063FB4FF43173A9F89C3299F884
:206CC0007432002B00F08D80D9F8702099F8781209F51D739A42E1D01170D9F87030013329
:206CE000C9F870300023C9F8A03299F8842209F520714846FFF702F940B140F2C523A9F88C
:206D00009C3299F87432002BEFD16AE0B9F88632D9F870101A0A09F51D738B424CD00A706A
:206D2000D9F870200132C9F87020934299F8861266D01170D9F870200132C9F87020B9F823
:206D40008C129A424FEA112174D01170D9F870200132C9F870209A4299F88C1200F08480A5
:206D60001170D9F870300133C9F870300023C9F8A032B9F88C22D9F888124846FFF7BEF8D2
:206D800040B14FF43573A9F89C3299F87432002BEFD126E099F898124846FFF7E3F883461D
:206DA000002800F0378540F2DA23A9F89C3299F87432002BEED114E009F174018B4200F020
:206DC00015855A1A002389F8743209F234700AF0D5FA40F2C923A9F89C3299F87432002B04
:206DE00094D198F800103868002204F0BFFF00283FF45FACD6F8009099F86030FFF770BA15
:206E000009F17401994200F000855A1A002389F8743209F234700AF0B1FA40F2CA23A9F8F1
:206E20009C3299F87432002BDBD0D9F8702009F51D737AE709F174018A4200F04B85002309
:206E4000521A89F8743209F234700AF097FA40F2D223A9F89C3299F87432002BC1D0D9F81B
:206E6000702009F51D736AE709F174018A4200F02C850023521A89F8743209F234700AF078
:206E80007DFA40F2D323A9F89C3299F87432002BA7D0D9F8702009F51D735CE707F174016C
:206EA0008A4200F09E8487F87482521A07F234700AF064FA40F22B23A7F89C3297F87432FC
:206EC000002B00F0A1813A6F97F8781207F51D739A42E3D011703B6FC7F8A08201333B67B6
:206EE00097F8842207F520713846FFF707F858B14FF40B73A7F89C3297F87432002BEFD106
:206F000082E100BFC80E00203A6F07F51D739A4200F0658182F800803A6F01323A679A421F
:206F200000F08781062313703B6FC7F8A08201333B67062249463846FEF7E0FFE8B140F278
:206F40003123A7F89C3297F87432002BF1D15BE107F174018A4200F0A58487F87482521ADF
:206F600007F234700AF00AFA40F23223A7F89C3297F87432002B00F047813A6F07F51D7335
:206F80009A42E5D0032313703B6F01333B67397D3846FEF7E7FF40B140F23323A7F89C3242
:206FA00097F87432002BF2D12EE1F98A3846090AFEF7D8FF40B14FF40D73A7F89C3297F80F
:206FC0007432002BF1D11FE1B97D3846FEF7CAFF40B140F23523A7F89C3297F87432002B64
:206FE000F2D111E1398A3846090AFEF7BBFF88B140F23D23A7F89C3297F87432002BF1D17F
:2070000002E140F23E23A7F89C3297F87432002B00F0FA80397C3846FEF7A4FF0028F0D10F
:20702000C7F8A0023A8AF9683846FEF767FF002840F017813B7D58076ED497F91430002BA9
:2070400037DB3B7D590640F14A84B7F85C103846090AFEF787FF88B140F25E23A7F89C3288
:2070600097F87432002BF0D1CEE040F25F23A7F89C3297F87432002B00F0C68097F85C108F
:207080003846FEF76FFF0028EFD1C7F8A002B7F85C20B96D3846FEF731FF002800F01F8417
:2070A0004FF41873A7F89C3297F87432002BEED1AAE0B7F854103846090AFEF753FF88B1C8
:2070C00040F25723A7F89C3297F87432002BF0D19AE04FF41673A7F89C3297F87432002B63
:2070E00000F0928097F854103846FEF73BFF0028EFD1C7F8A002B7F85420396D3846FEF769
:20710000FDFE00289DD040F25923A7F89C3297F87432002BEFD177E0B7F840103846090ABD
:20712000FEF720FF80B14FF41273A7F89C3297F87432002BF0D167E040F24923A7F89C3262
:2071400097F87432002B5FD097F840103846FEF709FF0028F0D1C7F8A002B7F84020F96B89
:207160003846FEF7CBFE40B140F24A23A7F89C3297F87432002BF0D146E0B7F8481038460A
:20718000090AFEF7EFFE78B14FF41373A7F89C3297F87432002BF0D136E040F24D23A7F823
:2071A0009C3297F874327BB397F848103846FEF7D9FE0028F1D1C7F8A002B7F84820796C26
:2071C0003846FEF79BFE00283FF437AF40F24E23A7F89C3297F87432002BEED114E007F147
:2071E00074018A4200F0508387F87482521A07F234700AF0C3F840F22F23A7F89C3297F8D8
:207200007432002B7FF480AE336893F86030032B00F08982D04B1978D04B0022186804F0C0
:20722000A5FD00283FF44AAA3768B7F89C32FFF78CB907F174018A4200F0398387F87482AC
:20724000521A07F234700AF099F84FF40C73A7F89C3297F87432002BD6D03A6F07F51D7330
:207260005DE640F23F23A7F89C3297F87432002B7FF4D8AEC8E707F1040A97F89932012B36
:2072800004D050460AF03CFB0028BDD050460AF037FB002840F05582B14E4FF408720021D0
:2072A00007F595600EF0E6FEFFF74CBA5746FFF7E9BAB4F8A432A4F85C3794F87432A94EEF
:2072C000012B34607EF4C5AF0023A4F89C322746FFF737B994F87432A24E012B34607EF4D4
:2072E000CCAF94F86030092B7EF4C7AF0022A4F89C22A146FFF78FB994F87432994E012BF5
:2073000034607EF4B5AF94F86030092B7EF4B0AF0022A4F89C22A146FEF7DFBF0AF174017C
:20732000914200F029820023521A8AF874320AF234700AF023F8AAF89C729AF87432002B60
:207340003FF44EA8DAF870300AF51D72FEF7EDBE94F87432834E012B34607EF484AF94F870
:207360006030092B7EF47FAF0022A4F89C222746FFF760B807F17401994200F0F9815A1A8C
:20738000002387F8743207F2347009F0F7FFA7F89C8297F87432002B3FF495A83B6F07F5E6
:2073A0001D72FFF768B894F860306E4E0A2B34607EF454AF94F87422012A40F020810022D2
:2073C000A4F89C22A246FEF787BE664B63481B680068032683F860600026A3F89C6204F0D3
:2073E000C5FC9DF80710FFF70DB95E4B5B481B680068032683F860600026A3F89C6204F016
:20740000B5FC9DF80710FFF70CB8564B20461C60FEF73CFD9DF80710FEF716BF514B4F48FB
:207420001B680068032683F860600026A3F89C6204F09CFC9DF80710FFF77AB894F89812A8
:2074400094F89A224B0043F03003DBB2012A84F8783208BF43F00103B4F88C2208BF84F8BA
:207460007832D4F894321A44002940F0D0800232C4F87C2284F8848204F5207E002302F00D
:207480007F007F2A60F07F0C4FEAD21216D80EF8030094F884320133DBB2042B84F8843271
:2074A00016D894F89832002B7FF42AAB94F8783203F0F70384F87832FFF724BB0EF803C02E
:2074C00094F884320133DBB2042B84F88432D6D9636E0022812120469847234BE06E197872
:2074E000002204F043FC0023A4F89C32FEF760BFB9F88C1289F884320431A222C9F87C12C8
:2075000089F8782209F5207C01F07F007F2960F07F0E4FEAD11129D80CF8030099F8843257
:207520000133DBB2042B89F884327FF6F0A9D9F8643000228121484698470B4BD9F86C00ED
:207540001978002204F012FC00239DF80710A9F89C32FEF792BE00BF4C370020C80E00209B
:207560004F37002070070020563700200CF803E099F884320133DBB2042B89F88432C3D930
:20758000D5E7B9F88C1289F8843205318222C9F87C1289F8782209F5207C01F07F007F29B3
:2075A00060F07F0E4FEAD1111ED80CF8030099F884320133DBB2042B89F884327FF684ABC4
:2075C000D9F864300022812148469847D04BD9F86C001978002204F0C9FB00239DF8071083
:2075E000A9F89C32FEF744BE0CF803E099F884320133DBB2042B89F88432CED9E0E7C54855
:20760000224604F0B3FB9DF80710FEF727BE0432C4F87C222EE75746FFF737B99DF8071006
:20762000FEF721BE3A8A102387F87832002A78D00E32B7F854300BB102331A44B7F85C30E7
:207640000BB102331A44B7F840300BB102331A44B7F848300BB102331A44C7F87C2287F81B
:20766000848207F5207C002302F07F007F2A60F07F0E4FEAD2121DD80CF8030097F88432F4
:207680000133DBB2042B87F884327FF61CAC7B6EA14E00228121384698479D4BF86E1978B0
:2076A000002204F063FB00239DF80710A7F89C32FEF7D0BD0CF803E097F884320133DBB2AB
:2076C000042B87F88432CFD9E1E79DF80710FEF7D4BD9DF80710FEF7CBBD0AF174018A423F
:2076E0003ED00023521A8AF874320AF2347009F045FE40F28D23AAF89C32FEF703BD07F1EA
:2077000074018A4230D00023521A87F8743207F2347009F033FE4FF46C73A7F89C32FEF729
:207720009CBE0C2285E79DF80710FEF792BD01238AF87432FEF70FBD012387F87432FEF71A
:20774000AEBE97F86030744E092B7FF4A6AD0A23317887F860303A466E4804F007FB9CE550
:2077600001238AF87432C4E7012387F87432D2E7012387F874320AE601238AF87432DAE5CC
:20778000012384F87432FFF7B3B9012389F87432FFF7B5B8C4F8A082FFF75ABA012389F806
:2077A0007432FFF788BA204604F10409FEF7E4FA4FF4A06148460AF087F894F89822002AF5
:2077C00056D0012A7EF4E7AD51464FF4087204F595600EF04FFC4FF46473A4F89C32FEF74E
:2077E000CDBD012387F87432FFF764BB012389F87432FFF7EEBA012389F87432FFF7FDB8C2
:20780000012384F87432FFF7E8B9012389F87432FFF703BB484609F1040AFEF7ADFA4FF417
:20782000A06150460AF050F859464FF4087209F595600EF01FFC40F2E323A9F89C32FEF76B
:2078400044BF484609F1040AFEF796FA4FF4A06150460AF039F859464FF4087209F59560B6
:207860000EF008FC40F22D33A9F89C32FEF74CBF274BE06E197804F079FAFEF78CBD0123EB
:2078800084F87432FFF700BA012387F87432B2E4012384F87432FFF7C2B9012389F8743235
:2078A000FFF70DB9012387F87432FFF75DBB012387F87432C9E4012389F87432FFF7E5B8E1
:2078C000012389F87432FFF7BBB8012389F87432FFF7D7BA012389F87432FFF7B8BA3846F1
:2078E000FEF74AFA07F1040A082387F860304FF4A061504609F0E8FF4FF40872002107F57B
:2079000095600EF0B7FB40F26D23A7F89C32B4E4563700203C0100204F3700202DE9F04302
